:020000040800F2
:10000000380400201D010008750100086D0100087A
:1000100071010008650100083506000800000000B5
:10002000000000000000000000000000A90400081B
:100030006901000800000000A5040008AD040008E4
:1000400037010008370100083701000837010008B0
:1000500037010008370100083701000837010008A0
:100060003701000837010008370100083701000890
:100070003701000837010008370100083701000880
:100080003701000837010008370100083701000870
:100090003701000837010008370100083701000860
:1000A00037010008890500083701000837010008FA
:1000B0003701000837010008370100083701000840
:1000C0003701000837010008370100083701000830
:1000D00037010008370100089D05000837010008B6
:1000E0003701000837010008370100080000000050
:1000F0000000000000000000000000000000000000
:1001000037010008DFF810D000F01AF80048004767
:100110001D080008AFF3008038040020064880471F
:1001200006480047FEE7FEE7FEE7FEE7FEE7FEE7DC
:10013000FEE7FEE7FEE7FEE7B5040008050100085C
:10014000064C074D06E0E06840F0010394E8070024
:1001500098471034AC42F6D3FFF7D8FF4018000898
:100160006018000800BFFEE700BFFEE700BFFEE723
:1001700000BFFEE700BFFEE710B5002807DA0A0758
:10018000140E054A00F00F031B1FD45403E00A07A6
:10019000130E024A135410BD18ED00E000E400E015
:1001A00030B5002415E004F1B001C8B200F0F6F853
:1001B000012000F0F3F8102000F0F0F8002504E032
:1001C000002000F01BF9681CC5B2842DF8DB601C10
:1001D000C4B2082CE7DB30BD10B540F2046000F07B
:1001E0005DFB4FF4004303221021484800F04FFA12
:1001F0004FF4004045494861431003221021434811
:1002000000F045FA4FF48040404948614310032212
:1002100010213E4800F03BFA4FF400503B49486142
:1002200040F2026000F03AFB01230322102138481B
:1002300000F02DFA0120364914310860C00333491B
:10024000086180104861322000F006FA4FF4005037
:100250002E490861AE2000F0A1F8002000F09EF8C1
:10026000102000F09BF8402000F098F8812000F06A
:1002700095F8CF2000F092F8A12000F08FF8C82068
:1002800000F08CF8A62000F089F8A82000F086F88D
:100290003F2000F083F8D32000F080F8002000F029
:1002A0007DF8D52000F07AF8802000F077F8D9208A
:1002B00000F074F8F12000F071F8DA2000F06EF828
:1002C000122000F06BF8DB2000F068F8402000F00E
:1002D00065F8202000F062F8022000F05FF88D2021
:1002E00000F05CF8142000F059F8A42000F056F853
:1002F000A62000F053F8AF2000F050F8FFF750FFB1
:100300000021084600F038F810BD00000010014040
:10031000000801402DE9F0430446884615464FF099
:1003200000090026002720E0E85D203800F0FF09E2
:100330007E2C04DD002408F1010000F0FF08414696
:10034000204600F019F8002609E009EB4901094AA6
:1003500002EB4101885D00F051F8701CC6B2062E18
:10036000F3DBA01DC4B2781CC7B2E85D0028DBD166
:10037000BDE8F0832810000830B504460D4605F1AD
:10038000B001C8B200F00AF8102141EA141000F0E0
:1003900005F804F00F0000F001F830BD10B5034679
:1003A0000824012013490860C00313494861012053
:1003B00000F02CFA18E003F0800020B14FF48040E8
:1003C0000D49086103E04FF480400B4948614FF448
:1003D000004009490861012000F018FA4FF400407C
:1003E000054948615806030E201EA4F10101CCB254
:1003F000E1D110BD140801400010014010B50346C2
:100400000824012013490860C003134948610120F2
:1004100000F0FCF918E003F0800020B14FF48040B8
:100420000D49086103E04FF480400B4948614FF4E7
:10043000004009490861012000F0E8F94FF400404C
:10044000054948615806030E201EA4F10101CCB2F3
:10045000E1D110BD100801400010014010B540F27C
:10046000026000F01BFA4FF4C06000F017FA4FF47E
:100470008073032218210A4800F009F94FF4007331
:1004800003221821064800F002F94FF4806303228A
:100490001821034800F0FBF800F028FC10BD000014
:1004A0000008014000BFFEE700BFFEE710B500F006
:1004B000DDF810BD08B53048006840F001002E4955
:1004C000086000BF2C48006800F002000028F9D046
:1004D00000BF2948406840F080002749486000205C
:1004E000009002E00098401C009000985028F9D33A
:1004F0002148406840F090001F494860002000906B
:1005000002E00098401C009000985028F9D300BFEA
:100510001948406820F00300174948600846006801
:1005200016490840144908600846406814490840C4
:100530001149486008460068104908400E490860A3
:100540000846006820F480200860084640680D498D
:1005500008400949486008460068084908400649BB
:1005600008604FF41F00886000F02AFA00214FF065
:10057000006000F07BF908BD00100240FFFFF6FEAE
:100580000C00FFE8FFFF00F710B50121024800F062
:100590009AFC00F029F910BD002C014010B51C494F
:1005A0001C4800F025FDB0B11A4800F00BFDC1B2A7
:1005B000194802880088401C174B1880174881543E
:1005C0001846008816490978884204D140F205315E
:1005D000104800F000FD13490E4800F009FDA8B1D5
:1005E000114802780078401C0F4B18700F48815C4E
:1005F000084800F0ECFC0C4800780D490978884266
:1006000004D140F20731034800F0E5FC10BD0000C2
:1006100005030500004400401600002018000020DB
:100620001400002007030700150000200800002028
:100630001300002000BFFEE702E008C8121F08C137
:10064000002AFAD170477047002001E001C1121F53
:10065000002AFBD1704700000349086000BF02492F
:1006600009680029FBD17047040000200448006895
:1006700020B103480068401E01490860704700002F
:10068000040000200AB1016100E041617047F0B54B
:10069000044616460025002201F00F0501F0100760
:1006A00007B1354300201EE0012787401F40C7B136
:1006B00022684FEA800C0F2707FA0CF7BA4387002D
:1006C00005FA07F73A43282904D1012787401F403C
:1006D000676105E0482903D1012787401F40276152
:1006E0002260471CB8B20828DED3082022E0012788
:1006F00087401F40E7B16268A0F108074FEA870C06
:100700000F2707FA0CF7BA43A0F10807BF0005FA54
:1007100007F73A43282904D1012787401F40676122
:1007200005E0482903D1012787401F402761626007
:10073000471CB8B21028DAD3F0BD024690680840D2
:1007400008B1012070470020FCE7000010B540F21E
:10075000036000F0A3F80123032204211648FFF7E9
:1007600096FF40F2036000F099F80223032204216F
:100770001148FFF78CFF40F2036000F08FF804236C
:10078000032219460C48FFF782FF40F2036000F095
:1007900085F84FF40063032204210848FFF777FF30
:1007A00040F2026000F07AF84FF4805303220421F3
:1007B0000248FFF76CFF10BD000C0140000801402B
:1007C00010B540F2036000F069F84FF400430322D3
:1007D00010210448FFF75BFF4FF40040014914313A
:1007E000086010BD000C014010B54FF400410648F0
:1007F000FFF7A3FFC0F10100C4B222464FF400414D
:100800000148FFF73FFF10BD000C014000E000BFB2
:10081000011EA0F10100FAD17047000000F0D4F8E9
:10082000002000F02FF800F0CFF84FF4C06000F087
:1008300035F8FFF7C5FFFFF789FFFFF7CDFCC820AC
:10084000FFF70AFFFFF7ACFCFFF708FE07E004A282
:1008500001210020FFF75EFD6420FFF7FDFEF6E7B3
:1008600050574D5F546573742E000000034A0A40D0
:100870000243034B1A60BFF34F8F704780FFFF1F87
:1008800008ED00E0044A516821F0F00141EA00025D
:10089000014B5A607047000000100240064A02EB0C
:1008A0009011096800F01F0301229A401143024B86
:1008B00003EB90121160704700100240064A02EBF1
:1008C0009011096800F01F0301229A409143024BE6
:1008D00003EB90121160704700100240064A02EBD1
:1008E0009011096800F01F0301229A401143024B46
:1008F00003EB9012116070470010024000200021AD
:100900002C4A126842F480322A4B1A6000BF401C05
:10091000284A126802F4003119B94FF6FF7290426A
:10092000F5D1244A126802F400320AB900BFFEE78A
:10093000204A52681F4B5A601A4652685A601A463B
:10094000526842F480625A601A46526822F4403279
:100950005A601A46526842F440325A601A46526847
:10096000154B1A40134B5A601A465268134B1A43E0
:10097000104B5A601A46126842F080721A6000BF2B
:100980000C4A126802F00072002AF9D0094A526833
:1009900022F00302074B5A601A46526842F00202E4
:1009A0005A6000BF034A526802F00C02082AF9D1CB
:1009B0007047000000100240FFFFC3F7000004086A
:1009C00010B5FFF79BFF10BD10B5124800684FF43B
:1009D0007A71B0FBF1F4601EB0F1807F01D3012089
:1009E0000FE0601E4FF0E02148610F214FF0FF3013
:1009F000FFF7C2FB00204FF0E0218861072008616B
:100A0000002008B100BFFEE70021481EFFF7B4FB3D
:100A100010BD000000000020016841F0800101606D
:100A20007047000010B531B101293FD002297DD0B7
:100A300003297CD1BFE0036A23F0010303628369C9
:100A400023F003038361036A148823430362036A68
:100A500023F002030362036A9488234303626A4B10
:100A6000984202D0694B98421FD1036A23F00403D5
:100A70000362036A548823430362036A23F0080372
:100A80000362036AD48823430362436823F48073B8
:100A900043604368148923434360436823F400732D
:100AA00043604368548923434360ABE0036A23F007
:100AB00010030362836923F440738361036A14881B
:100AC00043EA04130362036A23F020030362036A08
:100AD000948843EA041303624B4B984202D04B4B79
:100AE000984226D1036A23F040030362036A5488C4
:100AF00043EA04130362036A23F080030362036A78
:100B0000D48843EA04130362436823F48063436098
:100B10004368148943EA84034360436823F4006311
:100B200043604368548943EA840301E002E068E0DB
:100B3000436067E0036A23F480730362C36923F0B0
:100B40000303C361036A148843EA04230362036A4C
:100B500023F400730362036A948843EA0423036264
:100B6000294B984202D0294B984223D1036A23F49F
:100B700080630362036A548843EA04230362036ABE
:100B800023F400630362036AD48843EA0423036204
:100B9000436823F4805343604368148943EA041391
:100BA0004360436823F4005343604368548943EA35
:100BB0000413436026E0036A23F480530362C3698D
:100BC00023F44073C361036A148843EA0433036265
:100BD000036A23F400530362036A948843EA0433EC
:100BE0000362094B984202D0084B984208D14368EF
:100BF00023F4804343604368148943EA84134360C9
:100C000000E000BF00BF10BD002C014000340140D7
:100C100031B101290CD0022913D0032922D118E0C7
:100C2000836923F0700383618369134383611AE04E
:100C3000836923F4E0438361836943EA0223836188
:100C400011E0C36923F07003C361C3691343C36137
:100C500009E0C36923F4E043C361C36943EA0223A3
:100C6000C36100E000BF00BF704731B1012906D069
:100C7000022906D0032908D105E0426306E0826319
:100C800004E0C26302E0026400E000BF00BF7047FE
:100C900031B101290CD0022913D0032922D118E047
:100CA000836923F0080383618369134383611AE036
:100CB000836923F400638361836943EA02238361C8
:100CC00011E0C36923F00803C361C3691343C3611F
:100CD00009E0C36923F40063C361C36943EA0223E3
:100CE000C36100E000BF00BF7047000000B587B0DF
:100CF00040F20B60FFF7D2FD384800F071F88F200A
:100D0000ADF800000020ADF80200ADF8040042F29A
:100D10000F7002900020ADF80C008DF80E006946AF
:100D20002E4800F0D3F80020ADF814000120ADF8F3
:100D300010000020ADF81600ADF81200ADF8180054
:100D4000ADF81A0004AA00212448FFF76BFE04AA9C
:100D500001212248FFF766FE04AA02211F48FFF77F
:100D600061FE40F2F31200211C48FFF77EFF602273
:100D700000211A48FFF74CFF002211461748FFF7E1
:100D800087FF40F2F31201211448FFF76EFF602243
:100D900001211248FFF73CFF002201210F48FFF715
:100DA00077FF40F2F31202210C48FFF75EFF60224A
:100DB00002210A48FFF72CFF002202210748FFF713
:100DC00067FF0648FFF728FE0121044800F0EEF80F
:100DD000024800F073F807B000BD0000002C01408D
:100DE00010B504463349601A8C4244D00CDCB4F18F
:100DF000804F1CD03048204410B3B0F5806F28D00D
:100E0000B0F5006F52D12DE0B0F5806F3CD0B0F559
:100E10008E3F03D0B0F5923F48D13EE040F20B3018
:100E2000FFF75CFD40F20B30FFF748FD3FE04FF469
:100E30008060FFF753FD4FF48060FFF73FFD36E021
:100E400040F20140FFF74AFD40F20140FFF736FD56
:100E50002DE040F20240FFF741FD40F20240FFF773
:100E60002DFD24E040F20340FFF738FD40F203403F
:100E7000FFF724FD1BE040F20440FFF72FFD40F296
:100E80000440FFF71BFD12E040F20540FFF726FD8E
:100E900040F20540FFF712FD09E040F20D30FFF788
:100EA0001DFD40F20D30FFF709FD00E000BF00BF5F
:100EB00010BD00000010004000FCFFBF016841F0C1
:100EC000010101607047CA43026170470A8882626B
:100ED000294A904220D0B0F1804F1DD0274A90423D
:100EE0001AD0274A904217D0264A904214D0264A58
:100EF000904211D0254A90420ED0254A90420BD004
:100F0000244A904208D0244A904205D0234A904275
:100F100002D0234A90420FD1026822F07002026090
:100F200002688B7803F060031A43026002680B7951
:100F300003F010031A4302608A68C262194A9042A1
:100F40000CD0194A904209D0026822F44072026023
:100F500002688B8903F440731A430260064A904288
:100F600002D0094A904201D18A7B0263426942F071
:100F70000102426170470000002C01400004004063
:100F800000080040000C004000340140004C0140CB
:100F9000005001400054014000180040001C004077
:100FA000002000400010004000140040012904D13E
:100FB000426C42F40042426403E0426C22F400427C
:100FC0004264704701464868C0F308007047C1F3A7
:100FD00008024260704710B5C1F38912825801F0CF
:100FE0001F040123A3409A43C1F38913C25010BDCB
:100FF00070B5024600230024C1F38910105801F097
:101000001F060125B54000EA050302EB9150006878
:10101000C1F304460125B54000EA050414B10BB143
:10102000012070BD0020FCE700000000000000006F
:10103000002F000000000700070000147F147F1439
:1010400000242A7F2A1200626408132300364955BF
:10105000225000000503000000001C224100000097
:1010600041221C000014083E08140008083E08082D
:10107000000000A060000008080808080000606088
:101080000000002010080402003E5149453E0000C7
:10109000427F4000004261514946002141454B31A9
:1010A000001814127F10002745454539003C4A4975
:1010B00049300001710905030036494949360006E7
:1010C0004949291E0000363600000000563600004F
:1010D00000081422410000141414141400004122CA
:1010E000140800020151090600324959513E007CA2
:1010F0001211127C007F49494936003E414141228C
:10110000007F4141221C007F49494941007F090974
:101110000901003E4149497A007F0808087F000024
:10112000417F4100002040413F01007F08142241DF
:10113000007F40404040007F020C027F007F040897
:10114000107F003E4141413E007F09090906003EF3
:101150004151215E007F091929460046494949311C
:101160000001017F0101003F4040403F001F20403F
:10117000201F003F4038403F0063140814630007FD
:101180000870080700615149454300007F41410054
:1011900000552A552A55000041417F0000040201F4
:1011A00002040040404040400000010204000020D2
:1011B00054545478007F4844443800384444442010
:1011C00000384444487F00385454541800087E09BD
:1011D00001020018A4A4A47C007F08040478000085
:1011E000447D4000004080847D00007F1028440042
:1011F0000000417F4000007C04180478007C080453
:10120000047800384444443800FC2424241800188E
:10121000242418FC007C080404080048545454207A
:1012200000043F444020003C4040207C001C204003
:10123000201C003C4030403C004428102844001C46
:10124000A0A0A07C004464544C441414141414143E
:10125000000000000000000000000000000000008E
:10126000000000F800000000000000333000000023
:1012700000100C06100C060000000000000000002A
:1012800040C07840C0784000043F04043F0404009C
:10129000007088FC08300000001820FF211E0000AC
:1012A000F008F000E018000000211C031E211E00C1
:1012B00000F00888700000001E2123241927211047
:1012C00010160E00000000000000000000000000EA
:1012D000000000E018040200000000071820400091
:1012E00000020418E0000000004020180700000081
:1012F000404080F0804040000202010F01020200E5
:10130000000000F0000000000101011F01010100C8
:10131000000000000000000080B07000000000002D
:1013200000000000000000000001010101010101B6
:10133000000000000000000000303000000000004D
:101340000000000080601804006018060100000022
:1013500000E010080810E000000F102020100F001F
:10136000001010F8000000000020203F20200000A6
:1013700000700808088870000030282422213000FE
:1013800000300888884830000018202020110E0006
:101390000000C02010F8000000070424243F2400AF
:1013A00000F80888880808000019212020110E0084
:1013B00000E0108888180000000F112020110E0096
:1013C00000380808C83808000000003F000000008E
:1013D0000070880808887000001C222121221C004F
:1013E00000E010080810E0000000312222110F0078
:1013F000000000C0C000000000000030300000000D
:10140000000000800000000000008060000000007C
:101410000000804020100800000102040810200095
:1014200040404040404040000404040404040400E0
:101430000008102040800000002010080402010075
:10144000007048080808F000000000303601000075
:10145000C030C828E810E0000718272423140B0028
:101460000000C038E0000000203C230202273820A2
:1014700008F8888888700000203F202020110E0086
:10148000C03008080808380007182020201008007D
:1014900008F808080810E000203F202020100F0066
:1014A00008F88888E8081000203F20202320180032
:1014B00008F88888E8081000203F2000030000009A
:1014C000C03008080838000007182020221E02003B
:1014D00008F808000008F808203F210101213F20FA
:1014E000000808F8080800000020203F2020000025
:1014F00000000808F8080800C08080807F00000015
:1015000008F888C028180800203F2001263820004D
:1015100008F8080000000000203F202020203000B4
:1015200008F8F800F8F80800203F003F003F2000CE
:1015300008F830C00008F808203F200007183F00D6
:10154000E01008080810E0000F10202020100F0005
:1015500008F808080808F000203F210101010000F8
:10156000E01008080810E0000F18242438504F003D
:1015700008F8888888887000203F2000030C3020FD
:1015800000708808080838000038202121221C003B
:10159000180808F8080818000000203F2000000084
:1015A00008F808000008F808001F202020201F006D
:1015B0000878880000C83808000007380E010000CD
:1015C000F80800F80008F800033C0700073C030097
:1015D000081868808068180820302C03032C3020FD
:1015E0000838C800C83808000000203F200000006C
:1015F00010080808C83808002038262120201800C4
:10160000000000FE020202000000007F4040400097
:10161000000C30C000000000000000010638C000CF
:1016200000020202FE000000004040407F00000077
:10163000000004020202040000000000000000009C
:10164000000000000000000080808080808080809A
:101650000002020400000000000000000000000082
:1016600000008080808000000019242222223F2078
:1016700008F8008080000000003F112020110E00BB
:101680000000008080800000000E1120202011004A
:10169000000000808088F800000E112020103F20FC
:1016A0000000808080800000001F22222222130080
:1016B000008080F0888888180020203F20200000CB
:1016C0000000808080808000006B94949493600080
:1016D00008F8008080800000203F210000203F208B
:1016E00000809898000000000020203F202000008B
:1016F000000000809898000000C08080807F00007B
:1017000008F8000080808000203F24022D30200057
:10171000000808F8000000000020203F2020000002
:101720008080808080808000203F20003F20003F1C
:101730008080008080800000203F210000203F202A
:101740000000808080800000001F202020201F00DB
:10175000808000808000000080FFA12020110E000A
:101760000000008080808000000E112020A0FF80FB
:10177000808080008080800020203F2120000100A8
:1017800000008080808080000033242424241900FD
:10179000008080E0808000000000001F202000000A
:1017A0008080000000808000001F202020103F204B
:1017B000808080000080808000010E3008060100DB
:1017C00080800080008080800F300C030C300F0080
:1017D00000808000808080000020312E0E312000AB
:1017E000808080000080808080818E7018060100DB
:1017F00000808080808080000021302C22213000F9
:1018000000000000807C020200000000003F404019
:1018100000000000FF00000000000000FF000000CA
:101820000002027C800000000040403F00000000F9
:101830000006010102020404000000000000000094
:10184000601800080000002018000000380600089A
:10185000781800081800002020040000480600083E
:1018600000A24A040000000048454C4C4F574F521C
:081870004C44000A0A000000CC
:0400000508000105E9
:00000001FF
