:020000040800F2
:10000000C00400201D010008D50200089901000865
:100010009D010008910100089508000800000000FB
:10002000000000000000000000000000D5060008ED
:10003000950100080000000071060008D9060008BC
:1000400037010008370100083701000837010008B0
:1000500037010008370100083701000837010008A0
:100060003701000837010008370100083701000890
:100070003701000837010008370100083701000880
:100080003701000837010008370100083701000870
:100090003701000837010008370100083701000860
:1000A00037010008B50700083701000837010008CC
:1000B0003701000837010008370100083701000840
:1000C0003701000837010008370100083701000830
:1000D0003701000837010008C90700086108000857
:1000E0003701000837010008370100080000000050
:1000F0000000000000000000000000000000000000
:1001000037010008DFF810D000F030F80048004751
:10011000F90D0008AFF30080C004002006488047B6
:1001200006480047FEE7FEE7FEE7FEE7FEE7FEE7DC
:10013000FEE7FEE7FEE7FEE7E1060008050100082E
:1001400030B50B46014600202022012409E021FAA7
:1001500002F59D4205D303FA02F5491B04FA02F5A4
:100160002844151EA2F10102F1DC30BD064C074DFA
:1001700006E0E06840F0010394E807009847103477
:10018000AC42F6D3FFF7C2FF4C2000086C200008F9
:1001900000BFFEE700BFFEE700BFFEE700BFFEE7CF
:1001A00070B504460D461646002C0ADDA2B20021A9
:1001B000224801F052F94FF48051214800F04CFDE3
:1001C0000AE0604282B200211C4801F046F94FF477
:1001D00080511B4800F042FD002D0ADDAAB201212A
:1001E000164801F03AF94FF40051154800F034FD7B
:1001F0000AE0684282B20121104801F02EF94FF462
:1002000000510F4800F02AFD002E0ADDB2B2022193
:100210000A4801F022F94FF48041094800F01CFD22
:100220000AE0704282B20221044801F016F94FF44C
:100230008041034800F012FD70BD0000002C014019
:10024000000C014010B540F2036000F0F3FE4FF4E3
:100250008053032210211D4800F007FD4FF4005386
:1002600003221021194800F000FD4FF480430322BF
:100270001021164800F0F9FC4FF480501349143156
:100280000860400008604000086040F2026000F032
:10029000D1FE4FF4C06000F0CDFE4FF48073032216
:1002A00018210B4800F0E1FC4FF4007303221821E1
:1002B000074800F0DAFC4FF4806303221821044859
:1002C00000F0D3FC01F00AF910BD0000000C014061
:1002D0000008014000BFFEE710B5002807DA0A0752
:1002E000140E054A00F00F031B1FD45403E00A0745
:1002F000130E024A135410BD18ED00E000E400E0B4
:1003000070B5002415E004F1B001C8B200F044F962
:10031000012000F041F9102000F03EF9002504E032
:10032000002000F06FF9681CC5B2842DF8DB601C5A
:10033000C4B2082CE7DB70BD10B540F2046000F0D9
:1003400079FE40F2026000F075FE4FF40043032294
:1003500010214B4800F089FC4FF40041484800F060
:100360007BFC4FF4804303221021454800F07DFCC4
:100370004FF48041424800F06FFC4FF400530322D9
:1003800010213F4800F071FC4FF400513C4800F050
:1003900063FC0123032210213A4800F066FC01218E
:1003A000384800F059FC4FF40041354800F056FC45
:1003B0004FF40051324800F04FFC322000F036FC80
:1003C0004FF400512E4800F049FCAE2000F0E4F854
:1003D000002000F0E1F8102000F0DEF8402000F0EE
:1003E000DBF8812000F0D8F8CF2000F0D5F8A1206C
:1003F00000F0D2F8C82000F0CFF8A62000F0CCF82A
:10040000A82000F0C9F83F2000F0C6F8D32000F083
:10041000C3F8002000F0C0F8D52000F0BDF880201F
:1004200000F0BAF8D92000F0B7F8F12000F0B4F8E5
:10043000DA2000F0B1F8122000F0AEF8DB2000F076
:10044000ABF8402000F0A8F8202000F0A5F802202A
:1004500000F0A2F88D2000F09FF8142000F09CF826
:10046000A42000F099F8A62000F096F8AF2000F044
:1004700093F8FFF745FF0021084600F07BF810BD18
:1004800000100140000801402DE9F047044688466D
:1004900015464FF000090026002720E0E85D2038CF
:1004A00000F0FF097E2C04DD002408F1010000F0BB
:1004B000FF084146204600F05DF8002609E009EB00
:1004C0004901094A02EB4101885D00F09BF8701C6C
:1004D000C6B2062EF3DBA01DC4B2781CC7B2E85D1D
:1004E0000028DBD1BDE8F087321800082DE9F0477D
:1004F00006460F46904600250024A14631E018F834
:1005000009002038C5B2782E02DD0026781CC7B25B
:100510003946304600F02EF8002407E004EB0511C0
:10052000134A505C00F06EF8601CC4B2082CF5DB76
:10053000781CC1B2304600F01DF8002408E004EB3E
:10054000051108310A4A505C00F05CF8601CC4B226
:10055000082CF4DB06F10800C6B209F1010000F036
:10056000FF0918F809000028C9D1BDE8F08700008C
:100570005A1A000870B504460D4605F1B001C8B21C
:1005800000F00AF8102141EA141000F005F804F018
:100590000F0000F001F870BD70B504460825012178
:1005A000164800F059FB2903154800F055FB0120BF
:1005B00000F01AFC1CE004F0800028B14FF48041E8
:1005C0000F4800F04BFB04E04FF480410C4800F072
:1005D00043FB4FF400410A4800F040FB012000F0CB
:1005E00003FC4FF40041064800F036FB6006040EA1
:1005F000281EA5F10101CDB2DDD170BD000801407A
:100600000010014070B5044608250121164800F08D
:1006100025FB2903154800F01FFB012000F0E4FB37
:100620001CE004F0800028B14FF480410F4800F036
:1006300015FB04E04FF480410C4800F00DFB4FF433
:1006400000410A4800F00AFB012000F0CDFB4FF406
:100650000041064800F000FB6006040E281EA5F1CC
:100660000101CDB2DDD170BD000801400010014094
:1006700000BFFEE710B5044634B1012C0CD0022CAB
:1006800012D0032C20D117E01021114800F043FBB9
:1006900008B9012010BD17E080210D4800F03BFB98
:1006A00008B90120F6E70FE04021094800F033FBCC
:1006B00008B90120EEE707E02021054800F02BFBF8
:1006C00008B90120E6E700BF00BF0020E2E7000014
:1006D0000008014000BFFEE710B500F0B1FA10BD00
:1006E00008B53048006840F001002E49086000BF9E
:1006F0002C48006800F002000028F9D000BF29480B
:10070000406840F08000274948600020009002E0E7
:100710000098401C009000985028F9D32148406868
:1007200040F090001F4948600020009002E00098CF
:10073000401C009000985028F9D300BF1948406829
:1007400020F0030017494860084600681649084031
:100750001449086008464068144908401149486037
:1007600008460068104908400E49086008460068BD
:1007700020F480200860084640680D490840094977
:1007800048600846006808490840064908604FF478
:100790001F00886000F00CFD00214FF0006000F0A9
:1007A00031FC08BD00100240FFFFF6FE0C00FFE820
:1007B000FFFF00F710B50121024800F07AFF00F0BA
:1007C00001FB10BD002C014010B51C491C4801F074
:1007D00014F8B0B11A4800F0EBFFC1B21948028812
:1007E0000088401C174B1880174881541846008811
:1007F00016490978884204D140F20531104800F0CA
:10080000EFFF13490E4800F0F8FFA8B11148027835
:100810000078401C0F4B18700F48815C084800F0AE
:10082000CCFF0C4800780D490978884204D140F289
:100830000731034800F0D4FF10BD00000503050098
:10084000004400401600002020000020140000207A
:1008500007030700150000200800002013000020F7
:1008600010B50A490A4800F0C8FF70B1084800F006
:100870009FFFC4B22146064800F09FFF00BF07213A
:10088000034800F09EFF0028F9D010BD05030500C5
:100890000048004000BFFEE70FB4084B10B504A9A4
:1008A00002AA039800F01CF8044602A9002000F0F8
:1008B000B8F9204610BC5DF814FB0000230C0008BA
:1008C00002E008C8121F08C1002AFAD17047704719
:1008D000002001E001C1121F002AFBD17047000077
:1008E0002DE9FF4F8BB088460546002606E02528F7
:1008F0000BD0DDE90D1290476D1C761C287800287E
:10090000F5D10FB03046BDE8F08F0024A146A246D5
:100910000122AE4900E0044315F8013F203B02FAF2
:1009200003F00842F7D128782A2810D06FF02F0260
:100930002878A0F13001092915D809EB890102EBCB
:10094000410144F0020400EB01096D1CF0E758F886
:10095000041B5FEA010903D544F40054C9F10009FE
:1009600044F002046D1C28782E2817D115F8010FC9
:1009700044F004042A280ED06FF02F022878A0F14A
:10098000300109290AD80AEB8A0102EB410100EB88
:10099000010A6D1CF2E758F804AB6D1C28786C282E
:1009A0000FD006DC4C2817D068280DD06A2814D147
:1009B00004E0742810D07A280FD10DE044F400141C
:1009C0000AE044F4801401E044F440146978814260
:1009D00002D104F580146D1C6D1C2878692865D03F
:1009E00006DC00288DD0632827D0642806D15DE07E
:1009F0006E2808D073282AD0752877D0DDE90D122B
:100A00009047761CE0E0C4F30250022809D0032886
:100A10000DD0D8F8001004280DD00E6008F104089D
:100A2000D2E0D8F80010F217C1E90062F6E7D8F872
:100A300000100E80F2E70E70F0E718F8041B8DF836
:100A4000001000208DF80100EB46012003E058F86B
:100A500004BB4FF0FF3061074FF0000701D40AE0FC
:100A60007F1C57450DDA8742FADB1BF80710002977
:100A7000F6D106E07F1C8742FCDB1BF8071000293B
:100A8000F8D1DDE90D23A9EB07008146214600F0EE
:100A9000B1F83044C61904E0DDE90D121BF8010B72
:100AA00090477F1EF8D22146484688E058F8040B4C
:100AB000C4F302514FF00A0B032900D100B20429FC
:100AC00000D140B2002802DA40422D2102E0210587
:100AD00005D52B218DF82410012104E006E0E10763
:100AE00010D02021F6E708AF089113E058F8040B66
:100AF000C4F302514FF00A0B032900D180B204293C
:100B000000D1C0B20021EEE75946FFF719FB3031A2
:100B100007F8011D0028F7D1ADEB070000F1200B0D
:100B2000600702D524F4803401E04FF0010ADA4571
:100B300002DDAAEB0B0000E00020824600EB0B0177
:100B400008980144A9EB01000A90E00306D4DDE90E
:100B50000D2321460A9800F04DF806444FF0000995
:100B600008E009A911F80900DDE90D12904709F123
:100B70000109761C08998945F3DBE0030CD5DDE912
:100B80000D2321460A9800F035F8064404E0DDE91B
:100B90000D1230209047761CBAF10001AAF1010A2B
:100BA000F5DC05E0DDE90D1217F8010B9047761C26
:100BB000BBF10001ABF1010BF4DC0A982146DDE941
:100BC0000D2300F005F806446D1C97E60928010086
:100BD0002DE9F041044600251E461746880404D43A
:100BE00005E039462020B0476D1C641EF9D5284623
:100BF000BDE8F0812DE9F041044600251E469046EF
:100C0000C80301D5302700E02027880404D505E07B
:100C100041463846B0476D1C641EF9D52846BDE8EC
:100C2000F0810A68531C0B6010707047034908601C
:100C300000BF024909680029FBD170470400002069
:100C40000448006820B103480068401E014908605C
:100C50007047000004000020416170470161704747
:100C60000AB1016100E041617047F0B504461646E3
:100C70000025002201F00F0501F0100707B13543F0
:100C800000201EE0012787401F40C7B122684FEABD
:100C9000800C0F2707FA0CF7BA43870005FA07F70D
:100CA0003A43282904D1012787401F40676105E0A6
:100CB000482903D1012787401F4027612260471C34
:100CC000B8B20828DED3082022E0012787401F4061
:100CD000E7B16268A0F108074FEA870C0F2707FA0F
:100CE0000CF7BA43A0F10807BF0005FA07F73A432B
:100CF000282904D1012787401F40676105E0482962
:100D000003D1012787401F4027616260471CB8B2AA
:100D10001028DAD3F0BD02469068084008B10120DF
:100D200070470020FCE7000010B540F2036000F0BF
:100D300081F90123032204211648FFF796FF40F2B0
:100D4000036000F077F90223032204211148FFF722
:100D50008CFF40F2036000F06DF904230322194672
:100D60000C48FFF782FF40F2036000F063F94FF494
:100D70000063032204210848FFF777FF40F2026076
:100D800000F058F94FF48053032204210248FFF782
:100D90006CFF10BD000C01400008014010B540F28E
:100DA000036000F047F94FF4004303221021044888
:100DB000FFF75BFF4FF400410148FFF74FFF10BD05
:100DC000000C014010B54FF400410648FFF7A3FFA7
:100DD000C0F10100C4B222464FF400410148FFF7C0
:100DE0003FFF10BD000C014000E000BF011EA0F15C
:100DF0000100FAD1704700008CB000F0DDF900204E
:100E000000F00CF900F0D8F94FF4C06000F012F9CE
:100E1000FFF7C4FFFFF788FFFFF78EFAC820FFF740
:100E200005FFFFF76DFA00F035F9FFF70BFA002424
:100E300000200290039004900590CEE00020FFF780
:100E400019FC8DF82C000120FFF714FC8DF82D0003
:100E50000220FFF70FFC8DF82E000320FFF70AFC9D
:100E60008DF82F009DF82F009DF82E10CDE9001071
:100E70009DF82D309DF82C2058A106A8FFF70CFDF9
:100E800006AA02210020FFF7FFFAFFF79BFF40F2BE
:100E900014564FF4E16740F634054FF4C86852A287
:100EA00001210020FFF7F0FA9DF82D00012810D154
:100EB0009DF82E0001280CD19DF82C009DF82F10D4
:100EC000884206D12C46224661420020FFF768F98D
:100ED00073E09DF82C00012810D19DF82D00012809
:100EE0000CD19DF82E00012808D19DF82F0028B9BB
:100EF0003A4669420020FFF753F95EE09DF82C0066
:100F000088B99DF82D0001280DD19DF82E000128EB
:100F100009D19DF82F00012805D12A4679420020E9
:100F2000FFF73EF949E09DF82C00012818D19DF803
:100F30002E00A8B99DF82F0090B93246C8F10001E3
:100F40000020FFF72DF99DF82C0002909DF82D0050
:100F500003909DF82E0004909DF82F0005902CE042
:100F60009DF82C00C0B99DF82D00A8B99DF82F0060
:100F7000012811D1424671420020FFF711F99DF876
:100F80002C0002909DF82D0003909DF82E000490F7
:100F90009DF82F00059010E00298012806D1154C0D
:100FA000224621462046FFF7FBF806E04FF47A740C
:100FB000224621462046FFF7F3F822460EA106A856
:100FC000FFF76AFC06AA05210A20FFF78FFAFFF750
:100FD000F9FE0A20FFF72AFE00BF2FE7256420252F
:100FE000642025642025640050574D5F5465737458
:100FF0002E00000018FCFFFF447574793A25303547
:1010000064000000034A0A400243034B1A60BFF326
:101010004F8F704780FFFF1F08ED00E0044A5168C2
:1010200021F0F00141EA0002014B5A6070470000D4
:1010300000100240064A02EB9011096800F01F03FD
:1010400001229A401143024B03EB9012116070474A
:1010500000100240064A02EB9011096800F01F03DD
:1010600001229A409143024B03EB901211607047AA
:1010700000100240064A02EB9011096800F01F03BD
:1010800001229A401143024B03EB9012116070470A
:101090000010024010B540F20260FFF7CBFF1023B2
:1010A000032204211048FFF7E0FD40F20260FFF741
:1010B000C1FF8023032204210B48FFF7D6FD40F235
:1010C0000260FFF7B7FF4023032204210648FFF721
:1010D000CCFD40F20260FFF7ADFF20230322042184
:1010E0000148FFF7C2FD10BD0008014000200021AB
:1010F0002C4A126842F480322A4B1A6000BF401C0E
:10110000284A126802F4003119B94FF6FF72904272
:10111000F5D1244A126802F400320AB900BFFEE792
:10112000204A52681F4B5A601A4652685A601A4643
:10113000526842F480625A601A46526822F4403281
:101140005A601A46526842F440325A601A4652684F
:10115000154B1A40134B5A601A465268134B1A43E8
:10116000104B5A601A46126842F080721A6000BF33
:101170000C4A126802F00072002AF9D0094A52683B
:1011800022F00302074B5A601A46526842F00202EC
:101190005A6000BF034A526802F00C02082AF9D1D3
:1011A0007047000000100240FFFFC3F70000040872
:1011B00010B5FFF79BFF10BD10B5124800684FF443
:1011C0007A71B0FBF1F4601EB0F1807F01D3012091
:1011D0000FE0601E4FF0E02148610F214FF0FF301B
:1011E000FFF77AF800204FF0E021886107200861BE
:1011F000002008B100BFFEE70021481EFFF76CF891
:1012000010BD000000000020016841F08001016075
:101210007047000010B531B101293FD002297DD0BF
:1012200003297CD1BFE0036A23F0010303628369D1
:1012300023F003038361036A148823430362036A70
:1012400023F002030362036A9488234303626A4B18
:10125000984202D0694B98421FD1036A23F00403DD
:101260000362036A548823430362036A23F008037A
:101270000362036AD48823430362436823F48073C0
:1012800043604368148923434360436823F4007335
:1012900043604368548923434360ABE0036A23F00F
:1012A00010030362836923F440738361036A148823
:1012B00043EA04130362036A23F020030362036A10
:1012C000948843EA041303624B4B984202D04B4B81
:1012D000984226D1036A23F040030362036A5488CC
:1012E00043EA04130362036A23F080030362036A80
:1012F000D48843EA04130362436823F480634360A1
:101300004368148943EA84034360436823F4006319
:1013100043604368548943EA840301E002E068E0E3
:10132000436067E0036A23F480730362C36923F0B8
:101330000303C361036A148843EA04230362036A54
:1013400023F400730362036A948843EA042303626C
:10135000294B984202D0294B984223D1036A23F4A7
:1013600080630362036A548843EA04230362036AC6
:1013700023F400630362036AD48843EA042303620C
:10138000436823F4805343604368148943EA041399
:101390004360436823F4005343604368548943EA3D
:1013A0000413436026E0036A23F480530362C36995
:1013B00023F44073C361036A148843EA043303626D
:1013C000036A23F400530362036A948843EA0433F4
:1013D0000362094B984202D0084B984208D14368F7
:1013E00023F4804343604368148943EA84134360D1
:1013F00000E000BF00BF10BD002C014000340140E0
:1014000031B101290CD0022913D0032922D118E0CF
:10141000836923F0700383618369134383611AE056
:10142000836923F4E0438361836943EA0223836190
:1014300011E0C36923F07003C361C3691343C3613F
:1014400009E0C36923F4E043C361C36943EA0223AB
:10145000C36100E000BF00BF704731B1012906D071
:10146000022906D0032908D105E0426306E0826321
:1014700004E0C26302E0026400E000BF00BF704706
:1014800031B101290CD0022913D0032922D118E04F
:10149000836923F0080383618369134383611AE03E
:1014A000836923F400638361836943EA02238361D0
:1014B00011E0C36923F00803C361C3691343C36127
:1014C00009E0C36923F40063C361C36943EA0223EB
:1014D000C36100E000BF00BF7047000000B587B0E7
:1014E00040F20B60FFF7A6FD374800F06FF80020D0
:1014F000ADF80000ADF80200ADF8040041F61F4061
:1015000002900020ADF80C008DF80E0069462E48C0
:1015100000F0D2F80020ADF814000120ADF8100062
:101520000020ADF81600ADF81200ADF81800ADF8C7
:101530001A0004AA00212448FFF76CFE04AA012126
:101540002148FFF767FE04AA02211F48FFF762FE49
:1015500040F2F31200211C48FFF77FFF60220021B8
:101560001948FFF74DFF002211461748FFF788FF83
:1015700040F2F31201211448FFF76FFF60220121AE
:101580001148FFF73DFF002201210F48FFF778FFC8
:1015900040F2F31202210C48FFF75FFF60220221A4
:1015A0000948FFF72DFF002202210748FFF768FFD7
:1015B0000548FFF729FE0121034800F0EDF8024835
:1015C00000F072F807B000BD002C014010B50446D1
:1015D0003349601A8C4244D00CDCB4F1804F1CD0EB
:1015E0003048204410B3B0F5806F28D0B0F5006FBC
:1015F00052D12DE0B0F5806F3CD0B0F58E3F03D0D6
:10160000B0F5923F48D13EE040F20B30FFF732FD9B
:1016100040F20B30FFF71EFD3FE04FF48060FFF714
:1016200029FD4FF48060FFF715FD36E040F20140E0
:10163000FFF720FD40F20140FFF70CFD2DE040F2E6
:101640000240FFF717FD40F20240FFF703FD24E0E0
:1016500040F20340FFF70EFD40F20340FFF7FAFCB3
:101660001BE040F20440FFF705FD40F20440FFF7A5
:10167000F1FC12E040F20540FFF7FCFC40F20540AF
:10168000FFF7E8FC09E040F20D30FFF7F3FC40F211
:101690000D30FFF7DFFC00E000BF00BF10BD000011
:1016A0000010004000FCFFBF016841F00101016033
:1016B0007047CA43026170470A888262294A904291
:1016C00020D0B0F1804F1DD0274A90421AD0274A2F
:1016D000904217D0264A904214D0264A904211D008
:1016E000254A90420ED0254A90420BD0244A90427F
:1016F00008D0244A904205D0234A904202D0234A7F
:1017000090420FD1026822F07002026002688B786A
:1017100003F060031A43026002680B7903F01003C0
:101720001A4302608A68C262194A90420CD0194A70
:10173000904209D0026822F44072026002688B89EC
:1017400003F440731A430260064A904202D0094AE9
:10175000904201D18A7B0263426942F001024261F8
:1017600070470000002C01400004004000080040C9
:10177000000C004000340140004C0140005001408A
:101780000054014000180040001C004000200040B0
:101790000010004000140040012904D1426C42F4C2
:1017A0000042426403E0426C22F40042426470470B
:1017B00001464868C0F308007047C1F30802426060
:1017C000704710B5024602EB9110006801F01F044B
:1017D0000123A340184008B1012010BD0020FCE700
:1017E00010B5C1F38912825801F01F040123A340F0
:1017F0009A43C1F38913C25010BD70B5024600234D
:101800000024C1F38910105801F01F060125B540CE
:1018100000EA050302EB91500068C1F3044601257C
:10182000B54000EA050414B10BB1012070BD0020E1
:10183000FCE70000000000000000002F0000000096
:101840000700070000147F147F1400242A7F2A1247
:101850000062640813230036495522500000050336
:10186000000000001C224100000041221C00001466
:10187000083E08140008083E0808000000A06000A8
:101880000008080808080000606000000020100838
:101890000402003E5149453E0000427F40000042A4
:1018A00061514946002141454B31001814127F1007
:1018B000002745454539003C4A4949300001710936
:1018C000050300364949493600064949291E0000EA
:1018D0003636000000005636000000081422410091
:1018E00000141414141400004122140800020151C1
:1018F000090600324959513E007C1211127C007FCA
:1019000049494936003E41414122007F4141221C64
:10191000007F49494941007F09090901003E4149C9
:10192000497A007F0808087F0000417F41000020BD
:1019300040413F01007F08142241007F4040404069
:10194000007F020C027F007F0408107F003E4141AF
:10195000413E007F09090906003E4151215E007F9A
:10196000091929460046494949310001017F010111
:10197000003F4040403F001F2040201F003F4038B4
:10198000403F0063140814630007087008070061F3
:101990005149454300007F41410000552A552A55D1
:1019A000000041417F000004020102040040404069
:1019B0004040000001020400002054545478007F8D
:1019C0004844443800384444442000384444487F64
:1019D00000385454541800087E0901020018A4A4C9
:1019E000A47C007F080404780000447D400000408F
:1019F00080847D00007F102844000000417F40006B
:101A0000007C04180478007C0804047800384444FE
:101A1000443800FC242424180018242418FC007CDA
:101A20000804040800485454542000043F44402053
:101A3000003C4040207C001C2040201C003C4030EA
:101A4000403C004428102844001CA0A0A07C004476
:101A500064544C44141414141414000000000000C6
:101A600000000000000000000000000000F800007E
:101A70000000000000333000000000100C06100CC5
:101A80000600000000000000000040C07840C07860
:101A90004000043F04043F040400007088FC083048
:101AA0000000001820FF211E0000F008F000E018E0
:101AB000000000211C031E211E0000F00888700099
:101AC00000001E2123241927211010160E000000EB
:101AD00000000000000000000000000000E018040A
:101AE0000200000000071820400000020418E00077
:101AF00000000040201807000000404080F08040B7
:101B000040000202010F01020200000000F000008C
:101B100000000101011F01010100000000000000A0
:101B2000000080B070000000000000000000000015
:101B3000000000010101010101010000000000009E
:101B40000000003030000000000000000000806055
:101B50001804006018060100000000E010080810DA
:101B6000E000000F102020100F00001010F80000FF
:101B700000000020203F2020000000700808088896
:101B80007000003028242221300000300888884866
:101B900030000018202020110E000000C02010F896
:101BA000000000070424243F240000F80888880867
:101BB00008000019212020110E0000E0108888186C
:101BC0000000000F112020110E0000380808C8384E
:101BD00008000000003F000000000070880808882E
:101BE0007000001C222121221C0000E010080810B7
:101BF000E0000000312222110F00000000C0C000F0
:101C000000000000003030000000000000800000F4
:101C100000000000806000000000000080402010F4
:101C200008000001020408102000404040404040ED
:101C30004000040404040404040000081020408050
:101C40000000002010080402010000704808080885
:101C5000F0000000003036010000C030C828E81055
:101C6000E0000718272423140B000000C038E00010
:101C70000000203C23020227382008F8888888705A
:101C80000000203F202020110E00C0300808080866
:101C90003800071820202010080008F8080808104D
:101CA000E000203F202020100F0008F88888E80876
:101CB0001000203F20202320180008F88888E8081A
:101CC0001000203F200003000000C0300808083842
:101CD000000007182020221E020008F80800000853
:101CE000F808203F210101213F20000808F80808DA
:101CF00000000020203F2020000000000808F80815
:101D00000800C08080807F00000008F888C0281884
:101D10000800203F20012638200008F808000000B5
:101D20000000203F20202020300008F8F800F8F8BC
:101D30000800203F003F003F200008F830C00008A6
:101D4000F808203F200007183F00E010080808109E
:101D5000E0000F10202020100F0008F808080808E5
:101D6000F000203F210101010000E01008080810E8
:101D7000E0000F18242438504F0008F8888888881D
:101D80007000203F2000030C3020007088080808F5
:101D900038000038202121221C00180808F8080803
:101DA00018000000203F2000000008F8080000088C
:101DB000F808001F202020201F000878880000C895
:101DC0003808000007380E010000F80800F8000885
:101DD000F800033C0700073C03000818688080688F
:101DE000180820302C03032C30200838C800C838CD
:101DF00008000000203F2000000010080808C83834
:101E000008002038262120201800000000FE0202D1
:101E100002000000007F40404000000C30C0000085
:101E20000000000000010638C00000020202FE00AF
:101E30000000004040407F00000000000402020259
:101E4000040000000000000000000000000000008E
:101E5000000080808080808080800002020400007A
:101E60000000000000000000000000008080808072
:101E700000000019242222223F2008F80080800060
:101E80000000003F112020110E0000000080808023
:101E90000000000E1120202011000000008080882A
:101EA000F800000E112020103F200000808080806C
:101EB0000000001F222222221300008080F0888868
:101EC00088180020203F20200000000080808080B3
:101ED0008000006B94949493600008F800808080E8
:101EE0000000203F210000203F2000809898000043
:101EF00000000020203F2020000000000080989873
:101F0000000000C08080807F000008F80000808012
:101F10008000203F24022D302000000808F8000037
:101F200000000020203F20200000808080808080F2
:101F30008000203F20003F20003F80800080808084
:101F40000000203F210000203F2000008080808092
:101F50000000001F202020201F00808000808000C3
:101F6000000080FFA12020110E0000000080808072
:101F70008000000E112020A0FF80808080008080E3
:101F8000800020203F212000010000008080808010
:101F900080000033242424241900008080E0808005
:101FA00000000000001F2020000080800000008052
:101FB0008000001F202020103F20808080000080B3
:101FC000808000010E3008060100808000800080C3
:101FD00080800F300C030C300F0000808000808068
:101FE00080000020312E0E31200080808000008093
:101FF000808080818E701806010000808080808043
:1020000080000021302C2221300000000000807C64
:10201000020200000000003F404000000000FF00FE
:10202000000000000000FF0000000002027C8000B1
:1020300000000040403F00000000000601010202D5
:102040000404000000000000000000006C200008F4
:102050000000002020000000C00800088C200008BC
:1020600020000020A0040000D008000800A24A04BC
:102070000000000048454C4C4F574F524C44000A5A
:0C2080000A00000000000000000000004A
:0400000508000105E9
:00000001FF
