:020000040800F2
:10000000400400201D010008C1010008B9010008DA
:10001000BD01000891010008F10700080000000080
:10002000000000000000000000000000AD04000817
:100030009501000800000000A9040008B1040008B0
:1000400037010008370100083701000837010008B0
:1000500037010008370100083701000837010008A0
:100060003701000837010008370100083701000890
:100070003701000837010008370100083701000880
:100080003701000837010008370100083701000870
:100090003701000837010008370100083701000860
:1000A000370100088D0500083701000837010008F6
:1000B0003701000837010008370100083701000840
:1000C0003701000837010008370100083701000830
:1000D0003701000837010008C10600083701000891
:1000E0003701000837010008370100080000000050
:1000F0000000000000000000000000000000000000
:1001000037010008DFF810D000F030F80048004751
:10011000C10F0008AFF3008040040020064880476C
:1001200006480047FEE7FEE7FEE7FEE7FEE7FEE7DC
:10013000FEE7FEE7FEE7FEE7B90400080501000858
:1001400030B50B46014600202022012409E021FAA7
:1001500002F59D4205D303FA02F5491B04FA02F5A4
:100160002844151EA2F10102F1DC30BD064C074DFA
:1001700006E0E06840F0010394E807009847103477
:10018000AC42F6D3FFF7C2FFC8200008E820000801
:1001900000BFFEE700BFFEE770B5054600246C6AAD
:1001A0000021284601F049F9B4F5004F02DBA4F51F
:1001B0007F44FF3C204670BD00BFFEE700BFFEE766
:1001C00000BFFEE710B5002807DA0A07140E054A3B
:1001D00000F00F031B1FD45403E00A07130E024A5A
:1001E000135410BD18ED00E000E400E030B5002429
:1001F00015E004F1B001C8B200F0F6F8012000F0FB
:10020000F3F8102000F0F0F8002504E0002000F0E2
:100210001BF9681CC5B2842DF8DB601CC4B2082C25
:10022000E7DB30BD10B540F2046001F043F84FF455
:10023000004303221021484800F0B3FD4FF4004072
:1002400045494861431003221021434800F0A9FDAD
:100250004FF48040404948614310032210213E483A
:1002600000F09FFD4FF400503B49486140F20260AE
:1002700001F020F8012303221021384800F091FDFD
:100280000120364914310860C003334908618010E9
:100290004861322000F088FC4FF400502E4908617C
:1002A000AE2000F0A1F8002000F09EF8102000F031
:1002B0009BF8402000F098F8812000F095F8CF20BE
:1002C00000F092F8A12000F08FF8C82000F08CF820
:1002D000A62000F089F8A82000F086F83F2000F062
:1002E00083F8D32000F080F8002000F07DF8D520BE
:1002F00000F07AF8802000F077F8D92000F074F848
:10030000F12000F071F8DA2000F06EF8122000F011
:100310006BF8DB2000F068F8402000F065F8202042
:1003200000F062F8022000F05FF88D2000F05CF829
:10033000142000F059F8A42000F056F8A62000F090
:1003400053F8AF2000F050F8FFF750FF00210846A7
:1003500000F038F810BD0000001001400008014016
:100360002DE9F0430446884615464FF00009002663
:10037000002720E0E85D203800F0FF097E2C04DD36
:10038000002408F1010000F0FF084146204600F07B
:1003900019F8002609E009EB4901094A02EB41017D
:1003A000885D00F051F8701CC6B2062EF3DBA01D6C
:1003B000C4B2781CC7B2E85D0028DBD1BDE8F08389
:1003C000B018000830B504460D4605F1B001C8B2BA
:1003D00000F00AF8102141EA141000F005F804F0CA
:1003E0000F0000F001F830BD10B5034608240120CD
:1003F00013490860C00313494861012000F0D8FD8B
:1004000018E003F0800020B14FF480400D490861EE
:1004100003E04FF480400B4948614FF40040094924
:100420000861012000F0C4FD4FF400400549486117
:100430005806030E201EA4F10101CCB2E1D110BD7B
:10044000140801400010014010B5034608240120A3
:1004500013490860C00313494861012000F0A8FD5A
:1004600018E003F0800020B14FF480400D4908618E
:1004700003E04FF480400B4948614FF400400949C4
:100480000861012000F094FD4FF4004005494861E7
:100490005806030E201EA4F10101CCB2E1D110BD1B
:1004A000100801400010014000BFFEE700BFFEE75A
:1004B00010B500F083FB10BD08B53048006840F06F
:1004C00001002E49086000BF2C48006800F00200BF
:1004D0000028F9D000BF2948406840F08000274933
:1004E00048600020009002E00098401C00900098B6
:1004F0005028F9D32148406840F090001F494860D7
:100500000020009002E00098401C009000985028C5
:10051000F9D300BF1948406820F00300174948602C
:1005200008460068164908401449086008464068B3
:1005300014490840114948600846006810490840BD
:100540000E4908600846006820F4802008600846CC
:1005500040680D4908400949486008460068084954
:100560000840064908604FF41F00886000F034FF1F
:1005700000214FF0006000F0F3FD08BD00100240C4
:10058000FFFFF6FE0C00FFE8FFFF00F710B50121AA
:10059000024800F0C8FF00F0F9FC10BD002C01403B
:1005A000002000F0E9FD00F01BFF4FF4C06000F0F8
:1005B00081FE4FF47A7000F0F7FA4FF4E13000F06A
:1005C000CBF815A000F016F925E018480088184966
:1005D000097888421FDB00201449088015490870FB
:1005E00040F20731144801F012F900BF11480078B9
:1005F000124909788842F9DB00BF06210E4801F054
:10060000D6F80028F9D040F205310B4801F0FFF888
:100610000BA000F0EFF8D8E7205553415254312099
:10062000496E6974206F6B200A00000016000020DC
:10063000140000201500002000440040130000209A
:100640000A52656365697665204F4B200A000000F9
:100650001FB540F20B6000F02DFE184800F0F0FED0
:10066000684600F0FAFF0020ADF80200ADF80C007B
:10067000ADF8040041F61F40029040F2E730ADF8BB
:10068000000000208DF80E0069460C4800F04EFF77
:1006900001210A4800F0BEFF0121084800F0B6FF22
:1006A0004FF4A06000F052FD01221146192000F025
:1006B000F7FC024800F032FF1FBD0000002C014093
:1006C00010B51C491C4801F0AFF8B0B11A4801F050
:1006D00017F8C1B2194802880088401C174B1880CF
:1006E000174881541846008816490978884204D171
:1006F00040F20531104801F07DF813490E4801F031
:1007000093F8A8B1114802780078401C0F4B18707C
:100710000F48815C084800F0F8FF0C4800780D494C
:100720000978884204D140F20731034801F062F8A9
:1007300010BD000005030500004400401600002025
:100740001C000020140000200703070015000020F3
:10075000080000201300002010B5044640F202609B
:1007600000F0A8FD40F2117000F0A4FD0423032264
:1007700018211D4800F015FB0823032204211A4804
:1007800000F00FFB194800F0C5FF2146174800F0A4
:100790006FFF0021154801F083F80021134801F094
:1007A0006FF80021114801F05BF800210F4801F0BB
:1007B00017F800210D4801F009F808210B4801F055
:1007C00067F80421094801F053F8084800F0EAFFEF
:1007D00000221146262000F063FC40F20531034858
:1007E00001F015F810BD0000000801400044004071
:1007F00000BFFEE70FB4054B10B503A9044A0298E9
:1008000000F02CF810BC5DF814FB0000750D00081A
:10081000180000200FB4084B10B504A902AA0398D1
:1008200000F01CF8044602A9002000F0B8F92046A8
:1008300010BC5DF814FB00009F0B000802E008C824
:10084000121F08C1002AFAD170477047002001E04A
:1008500001C1121F002AFBD1704700002DE9FF4F94
:100860008BB088460546002606E025280BD0DDE93A
:100870000D1290476D1C761C28780028F5D10FB01A
:100880003046BDE8F08F0024A146A2460122AE49C1
:1008900000E0044315F8013F203B02FA03F0084250
:1008A000F7D128782A2810D06FF02F022878A0F1ED
:1008B0003001092915D809EB890102EB410144F007
:1008C000020400EB01096D1CF0E758F8041B5FEA15
:1008D000010903D544F40054C9F1000944F00204AD
:1008E0006D1C28782E2817D115F8010F44F0040448
:1008F0002A280ED06FF02F022878A0F130010929A4
:100900000AD80AEB8A0102EB410100EB010A6D1CD7
:10091000F2E758F804AB6D1C28786C280FD006DC81
:100920004C2817D068280DD06A2814D104E0742808
:1009300010D07A280FD10DE044F400140AE044F4FA
:10094000801401E044F440146978814202D104F536
:1009500080146D1C6D1C2878692865D006DC002881
:100960008DD0632827D0642806D15DE06E2808D09A
:1009700073282AD0752877D0DDE90D129047761CB0
:10098000E0E0C4F30250022809D003280DD0D8F8C3
:10099000001004280DD00E6008F10408D2E0D8F849
:1009A0000010F217C1E90062F6E7D8F800100E80D7
:1009B000F2E70E70F0E718F8041B8DF80010002025
:1009C0008DF80100EB46012003E058F804BB4FF01E
:1009D000FF3061074FF0000701D40AE07F1C574544
:1009E0000DDA8742FADB1BF807100029F6D106E082
:1009F0007F1C8742FCDB1BF807100029F8D1DDE9DA
:100A00000D23A9EB07008146214600F0B1F83044E0
:100A1000C61904E0DDE90D121BF8010B90477F1E9B
:100A2000F8D22146484688E058F8040BC4F3025136
:100A30004FF00A0B032900D100B2042900D140B2C3
:100A4000002802DA40422D2102E0210505D52B21A4
:100A50008DF82410012104E006E0E10710D02021E8
:100A6000F6E708AF089113E058F8040BC4F30251FD
:100A70004FF00A0B032900D180B2042900D1C0B283
:100A80000021EEE75946FFF75BFB303107F8011D07
:100A90000028F7D1ADEB070000F1200B600702D56D
:100AA00024F4803401E04FF0010ADA4502DDAAEBBC
:100AB0000B0000E00020824600EB0B010898014487
:100AC000A9EB01000A90E00306D4DDE90D232146DD
:100AD0000A9800F04DF806444FF0000908E009A913
:100AE00011F80900DDE90D12904709F10109761CA2
:100AF00008998945F3DBE0030CD5DDE90D23214698
:100B00000A9800F035F8064404E0DDE90D123020C3
:100B10009047761CBAF10001AAF1010AF5DC05E064
:100B2000DDE90D1217F8010B9047761CBBF10001AF
:100B3000ABF1010BF4DC0A982146DDE90D2300F04E
:100B400005F806446D1C97E6092801002DE9F041DF
:100B5000044600251E461746880404D405E039469D
:100B60002020B0476D1C641EF9D52846BDE8F081F1
:100B70002DE9F041044600251E469046C80301D5E4
:100B8000302700E02027880404D505E04146384698
:100B9000B0476D1C641EF9D52846BDE8F0810A688F
:100BA000531C0B60107070470349086000BF024976
:100BB00009680029FBD17047040000200448006840
:100BC00020B103480068401E0149086070470000DA
:100BD000040000201FB54FF4E06000F06BFB40F212
:100BE000026000F067FB40F2036000F063FB01214C
:100BF0001C4800F035F94FF400430322042140F271
:100C0000026000F0CEF808230322042140F20360C2
:100C100000F0C7F84FF0804000F012FC0020ADF863
:100C20000000ADF80200ADF804004FF6FF7002902E
:100C30000020ADF80C008DF80E0069464FF08040A2
:100C400000F074FC022300221946580700F0E5FC6E
:100C50004FF0804000F0ECFB4FF0804000F05EFC75
:100C60001FBD0000000318001FB540F2017000F026
:100C700021FB40F2036000F01DFB40F2036000F036
:100C800019FB0121194800F0EBF81023032204217D
:100C900040F2036000F085F820230322042140F293
:100CA000036000F07EF8124800F0CAFB0020ADF8A7
:100CB0000000ADF80200ADF804004FF6FF7002909E
:100CC0000020ADF80C008DF80E006946084800F0D1
:100CD0002DFC022300221946054800F09EFC044822
:100CE00000F0A6FB024800F019FC1FBD00081A0026
:100CF000000400401FB540F2027000F0DBFA40F241
:100D0000036000F0D7FA40F2036000F0D3FA40230A
:100D10000322042140F2036000F043F88023032201
:100D2000042140F2036000F03CF8114800F088FB19
:100D30000020ADF80000ADF80200ADF804004FF659
:100D4000FF7002900020ADF80C008DF80E0069468F
:100D5000074800F0EBFB022300221946044800F08C
:100D60005CFC034800F064FB014800F0D7FB1FBDAA
:100D70000008004070B504460D46E1B2054800F099
:100D8000C4FC00BF0621034800F011FD0028F9D083
:100D9000204670BD004400400AB1016100E041619D
:100DA0007047F0B5044616460025002201F00F05F5
:100DB00001F0100707B1354300201EE001278740EE
:100DC0001F40C7B122684FEA800C0F2707FA0CF7C3
:100DD000BA43870005FA07F73A43282904D10127C7
:100DE00087401F40676105E0482903D101278740FC
:100DF0001F4027612260471CB8B20828DED30820B4
:100E000022E0012787401F40E7B16268A0F1080790
:100E10004FEA870C0F2707FA0CF7BA43A0F108072F
:100E2000BF0005FA07F73A43282904D10127874074
:100E30001F40676105E0482903D1012787401F4013
:100E400027616260471CB8B21028DAD3F0BD0246B1
:100E50009068084008B1012070470020FCE70000BE
:100E6000F0B50A46002300240021002500F00046CA
:100E7000B6F1004F02D11D4EF16901E01B4E7168C1
:100E8000C0F3034583B200F44016B6F5401F08D105
:100E900021F07061154E766826F07066134F7E6003
:100EA00012E000F48016B6F5801F06D1032606FA7C
:100EB00005F4A14341F0706106E0460D360103FAE6
:100EC00006F6B14341F0706122B1460D360103FAD6
:100ED00006F6314300F00046B6F1004F02D1034E52
:100EE000F16101E0014E7160F0BD000000000140C1
:100EF00010B540F2036000F0DDF901230322042164
:100F00001648FFF74EFF40F2036000F0D3F90223CA
:100F1000032204211148FFF744FF40F2036000F070
:100F2000C9F90423032219460C48FFF73AFF40F29F
:100F3000036000F0BFF94FF4006303220421084866
:100F4000FFF72FFF40F2026000F0B4F94FF4805336
:100F5000032204210248FFF724FF10BD000C0140CA
:100F60000008014010B540F2036000F0A3F94FF40F
:100F70000043032210210448FFF713FF4FF4004001
:100F800001491431086010BD000C014010B54FF448
:100F900000410648FFF75BFFC0F10100C4B22246E2
:100FA0004FF400410148FFF7F7FE10BD000C01406F
:100FB00000E000BF011EA0F10100FAD1704700005F
:100FC0008EB000F00DFA002000F0D6F800F008FA1C
:100FD0004FF4C06000F06EF9FFF7C4FFFFF788FF21
:100FE000FFF720F9C820FFF7DFFDFFF7FFF8FFF755
:100FF0002FFBFFF7EFFDFFF737FEFFF77BFEFFF755
:10100000CFFA00240025002632E01AA20121002098
:10101000FFF7A6F94FF08040FFF7BEF804462246DE
:1010200017A101A8FFF7F6FB01AA03210020FFF793
:1010300097F91548FFF7B0F805462A4613A101A80D
:10104000FFF7E8FB01AA04210020FFF789F9114806
:10105000FFF7A2F8064632460FA101A8FFF7DAFB18
:1010600001AA05210020FFF77BF96420FFF79CFD12
:10107000CBE7000054494D5F546573742E000000A7
:1010800045313A25346400000004004045323A25D9
:10109000346400000008004045333A253464000001
:1010A0002DE9F04103460D46164600240027A046D0
:1010B0002448006800F4E060B0F5A06F15D006DCAD
:1010C000B0F5407F18D0B0F5806F19D110E0B0F5C1
:1010D000C06F06D0B0F5E06F12D100274FF00408C2
:1010E00015E001274FF0030811E00227B8460EE093
:1010F00003274FF001080AE004274FF0000806E03C
:101100004FF4A06000F022F80227B84600BF00BFED
:10111000C7F1040005FA00F4C8F104010F20C8402B
:101120003040044324010848C45403F01F01012047
:1011300088405911890001F1E021C1F80001BDE8A2
:10114000F08100000CED00E000E400E00249014302
:10115000024A1160704700000000FA050CED00E043
:10116000034A0A400243034B1A60BFF34F8F704794
:1011700080FFFF1F08ED00E0044A516821F0F001F4
:1011800041EA0002014B5A60704700000010024023
:101190002DE9F04F8BB00746002009903EA090E863
:1011A000004CC068CDE905BECDF810A007900FF245
:1011B000EC0ADAE9000ACDE9020A0FF2E00ADAE9FC
:1011C000000ACDE9000A38484068C0F381000A905F
:1011D0000A9820B1012804D0022829D103E033491C
:1011E00028E0324926E03048406800F48038B8F5FD
:1011F000803F09D12D4C2C48406800F40039B9F5E6
:10120000003F02D1641000E0294C27484068C0F339
:1012100083422548406800F0006008B142F01002A7
:101220000F2A01D2921C00E0521C04FB02F101E0E3
:101230001E4900BF00BF1C484068C0F3031504A846
:10124000465D21FA06F318484068C0F3022502A85B
:10125000465D23FA06FC14484068C0F3C2251DF819
:10126000056023FA06F0089037B1012F06D0022F4F
:1012700006D0032F0AD106E0099108E0099306E0A1
:10128000CDF824C003E00898099000E000BF00BF3B
:1012900009980BB0BDE8F08F0000000000000000CE
:1012A00001020304060708090010024000127A0038
:1012B00000093D00064A02EB9011096800F01F0387
:1012C00001229A401143024B03EB901211607047C8
:1012D00000100240064A02EB9011096800F01F035B
:1012E00001229A409143024B03EB90121160704728
:1012F00000100240064A02EB9011096800F01F033B
:1013000001229A401143024B03EB90121160704787
:1013100000100240002000212C4A126842F4803262
:101320002A4B1A6000BF401C284A126802F40031A0
:1013300019B94FF6FF729042F5D1244A126802F4AF
:1013400000320AB900BFFEE7204A52681F4B5A60BC
:101350001A4652685A601A46526842F480625A60CD
:101360001A46526822F440325A601A46526842F4D1
:1013700040325A601A465268154B1A40134B5A6055
:101380001A465268134B1A43104B5A601A46126899
:1013900042F080721A6000BF0C4A126802F00072BC
:1013A000002AF9D0094A526822F00302074B5A601A
:1013B0001A46526842F002025A6000BF034A52685D
:1013C00002F00C02082AF9D1704700000010024018
:1013D000FFFFC3F70000040810B5FFF79BFF10BD27
:1013E00010B5124800684FF47A71B0FBF1F4601E3A
:1013F000B0F1807F01D301200FE0601E4FF0E021AB
:1014000048610F214FF0FF30FEF7DCFE00204FF067
:10141000E021886107200861002008B100BFFEE7D5
:101420000021481EFEF7CEFE10BD00000000002087
:10143000016841F08001016070474162704700001F
:1014400010B504463349601A8C4244D00CDCB4F128
:10145000804F1CD03048204410B3B0F5806F28D0A6
:10146000B0F5006F52D12DE0B0F5806F3CD0B0F5F3
:101470008E3F03D0B0F5923F48D13EE040F20B30B2
:10148000FFF738FF40F20B30FFF724FF3FE04FF447
:101490008060FFF72FFF4FF48060FFF71BFF36E0FF
:1014A00040F20140FFF726FF40F20140FFF712FF34
:1014B0002DE040F20240FFF71DFF40F20240FFF72F
:1014C00009FF24E040F20340FFF714FF40F203401D
:1014D000FFF700FF1BE040F20440FFF70BFF40F274
:1014E0000440FFF7F7FE12E040F20540FFF702FF6D
:1014F00040F20540FFF7EEFE09E040F20D30FFF745
:10150000F9FE40F20D30FFF7E5FE00E000BF00BF3E
:1015100010BD00000010004000FCFFBF016841F05A
:10152000010101607047CA43026170470A88826204
:10153000294A904220D0B0F1804F1DD0274A9042D6
:101540001AD0274A904217D0264A904214D0264AF1
:10155000904211D0254A90420ED0254A90420BD09D
:10156000244A904208D0244A904205D0234A90420F
:1015700002D0234A90420FD1026822F0700202602A
:1015800002688B7803F060031A43026002680B79EB
:1015900003F010031A4302608A68C262194A90423B
:1015A0000CD0194A904209D0026822F440720260BD
:1015B00002688B8903F440731A430260064A904222
:1015C00002D0094A904201D18A7B0263426942F00B
:1015D0000102426170470000002C014000040040FD
:1015E00000080040000C004000340140004C014065
:1015F000005001400054014000180040001C004011
:10160000002000400010004000140040C2680A435F
:10161000C2607047CA430261704730B5846824F0E5
:101620000704846084680C438460846940F2033555
:10163000AC438461846940F201152C438461046ADF
:1016400024F00A040462046A24F0A0040462046A18
:1016500042EA03152C43046230BD00210180418021
:1016600081804FF6FF718160002181818173704715
:101670002DE9F04704460D460027B846B946002636
:101680001D49601A8C421CD006DC1C48204470B1F5
:10169000B0F5806F1FD10FE0B0F5806F16D0B0F5B8
:1016A0006C4F18D10320FFF773FD074614E00220AA
:1016B000FFF76EFD07460FE00220FFF769FD0746C2
:1016C0000AE00220FFF764FD074605E00220FFF76D
:1016D0005FFD074600E000BF00BF07EB5500B0FB11
:1016E000F5F64FF6F07006EA000806F00F0948EA32
:1016F0000900A060BDE8F087004C004000BCFFBFBF
:1017000001464868C0F308007047C1F30802426010
:101710007047000010B504462049601A8C4228D05A
:1017200006DC1F48204490B1B0F5806F33D117E03C
:10173000B0F5806F26D0B0F56C4F2CD140F20E3052
:10174000FFF7D8FD40F20E30FFF7C4FD24E040F271
:101750001140FFF7CFFD40F21140FFF7BBFD1BE04A
:1017600040F21240FFF7C6FD40F21240FFF7B2FD13
:1017700012E040F21340FFF7BDFD40F21340FFF7C7
:10178000A9FD09E040F21440FFF7B4FD40F2144017
:10179000FFF7A0FD00E000BF00BF10BD004C0040FF
:1017A00000BCFFBFC16841F40051C160704710B573
:1017B000024602EB9110006801F01F040123A340D0
:1017C000184008B1012010BD0020FCE7426922F456
:1017D00000724261426901F400731A43426170472A
:1017E000426922F480724261426901F480731A43B3
:1017F0004261704710B5C1F38912825801F01F048D
:101800000123A3409A43C1F38913C25010BD10B500
:10181000C1F38912825801F01F040123A3401A4327
:10182000C1F38913C25010BD70B5024600230024D5
:10183000C1F38910105801F01F060125B54000EAD8
:10184000050302EB91500068C1F304460125B54041
:1018500000EA050414B10BB1012070BD0020FCE7C3
:10186000C26822F4C062C260C2680A43C2607047A4
:101870000A460021C16821F004011143C16070478C
:10188000026922F44052026102690A430261704710
:101890000A460021C16821F008011143C160704768
:1018A000C26822F48052C260C2680A43C2607047B4
:1018B0000000000000000000002F000000000700F2
:1018C000070000147F147F1400242A7F2A1200626C
:1018D0006408132300364955225000000503000018
:1018E00000001C224100000041221C000014083EA0
:1018F00008140008083E0808000000A06000000866
:1019000008080808000060600000002010080402B9
:10191000003E5149453E0000427F40000042615177
:101920004946002141454B31001814127F10002711
:1019300045454539003C4A494930000171090503D4
:1019400000364949493600064949291E0000363605
:101950000000000056360000000814224100001468
:101960001414141400004122140800020151090645
:1019700000324959513E007C1211127C007F4949C6
:101980004936003E41414122007F4141221C007FF7
:1019900049494941007F09090901003E4149497A05
:1019A000007F0808087F0000417F4100002040417F
:1019B0003F01007F08142241007F40404040007FEB
:1019C000020C027F007F0408107F003E4141413E2F
:1019D000007F09090906003E4151215E007F091977
:1019E00029460046494949310001017F0101003F74
:1019F0004040403F001F2040201F003F4038403FF4
:101A00000063140814630007087008070061514957
:101A1000454300007F41410000552A552A550000EA
:101A200041417F0000040201020400404040404068
:101A3000000001020400002054545478007F484400
:101A4000443800384444442000384444487F003837
:101A50005454541800087E0901020018A4A4A47C60
:101A6000007F080404780000447D4000004080842A
:101A70007D00007F102844000000417F4000007C72
:101A800004180478007C080404780038444444387E
:101A900000FC242424180018242418FC007C0804CA
:101AA000040800485454542000043F444020003CA3
:101AB0004040207C001C2040201C003C4030403C2A
:101AC000004428102844001CA0A0A07C00446454BA
:101AD0004C441414141414140000000000000000FE
:101AE0000000000000000000000000F800000000FE
:101AF000000000333000000000100C06100C06003F
:101B0000000000000000000040C07840C0784000A5
:101B1000043F04043F040400007088FC0830000007
:101B2000001820FF211E0000F008F000E01800005F
:101B300000211C031E211E0000F008887000000018
:101B40001E2123241927211010160E00000000006A
:101B50000000000000000000000000E01804020087
:101B6000000000071820400000020418E0000000F8
:101B70000040201807000000404080F080404000F6
:101B80000202010F01020200000000F0000000004C
:101B90000101011F01010100000000000000000020
:101BA00080B0700000000000000000000000000095
:101BB000000101010101010100000000000000001E
:101BC00000303000000000000000000080601804B9
:101BD000006018060100000000E010080810E00096
:101BE000000F102020100F00001010F8000000005F
:101BF0000020203F202000000070080808887000A6
:101C00000030282422213000003008888848300025
:101C10000018202020110E000000C02010F8000045
:101C200000070424243F240000F8088888080800DE
:101C30000019212020110E0000E0108888180000F3
:101C4000000F112020110E0000380808C8380800C5
:101C50000000003F00000000007088080888700045
:101C6000001C222121221C0000E010080810E000C6
:101C70000000312222110F00000000C0C00000004F
:101C80000000003030000000000000800000000074
:101C9000000080600000000000008040201008006C
:101CA0000001020408102000404040404040400035
:101CB0000404040404040400000810204080000010
:101CC0000020100804020100007048080808F00015
:101CD0000000003036010000C030C828E810E000E5
:101CE0000718272423140B000000C038E000000070
:101CF000203C23020227382008F8888888700000DA
:101D0000203F202020110E00C030080808083800AD
:101D1000071820202010080008F808080810E00024
:101D2000203F202020100F0008F88888E8081000C5
:101D3000203F20202320180008F88888E808100099
:101D4000203F200003000000C030080808380000D1
:101D500007182020221E020008F808000008F808D2
:101D6000203F210101213F20000808F80808000059
:101D70000020203F2020000000000808F80808008C
:101D8000C08080807F00000008F888C02818080004
:101D9000203F20012638200008F80800000000003D
:101DA000203F20202020300008F8F800F8F8080034
:101DB000203F003F003F200008F830C00008F8082E
:101DC000203F200007183F00E01008080810E0003E
:101DD0000F10202020100F0008F808080808F00055
:101DE000203F210101010000E01008080810E00078
:101DF0000F18242438504F0008F88888888870000D
:101E0000203F2000030C30200070880808083800AC
:101E10000038202121221C00180808F808081800A2
:101E20000000203F2000000008F808000008F80823
:101E3000001F202020201F000878880000C83808D4
:101E4000000007380E010000F80800F80008F8004C
:101E5000033C0700073C03000818688080681808E6
:101E600020302C03032C30200838C800C838080064
:101E70000000203F2000000010080808C8380800B3
:101E80002038262120201800000000FE0202020057
:101E90000000007F40404000000C30C00000000007
:101EA000000000010638C00000020202FE0000002F
:101EB000004040407F0000000000040202020400D5
:101EC0000000000000000000000000000000000012
:101ED00080808080808080800002020400000000FA
:101EE00000000000000000000000808080800000F2
:101EF0000019242222223F2008F8008080000000E0
:101F0000003F112020110E000000008080800000A2
:101F1000000E112020201100000000808088F800B1
:101F2000000E112020103F200000808080800000E3
:101F3000001F222222221300008080F08888881847
:101F40000020203F20200000000080808080800052
:101F5000006B94949493600008F8008080800000E7
:101F6000203F210000203F200080989800000000C2
:101F70000020203F202000000000008098980000F2
:101F800000C08080807F000008F800008080800012
:101F9000203F24022D302000000808F80000000037
:101FA0000020203F202000008080808080808000F2
:101FB000203F20003F20003F808000808080000084
:101FC000203F210000203F20000080808080000012
:101FD000001F202020201F00808000808000000043
:101FE00080FFA12020110E00000000808080800072
:101FF000000E112020A0FF80808080008080800063
:1020000020203F212000010000008080808080008F
:102010000033242424241900008080E08080000004
:102020000000001F20200000808000000080800051
:10203000001F202020103F208080800000808080B2
:1020400000010E3008060100808000800080808042
:102050000F300C030C300F00008080008080800067
:102060000020312E0E312000808080000080808092
:1020700080818E7018060100008080808080800042
:102080000021302C2221300000000000807C020260
:1020900000000000003F404000000000FF00000082
:1020A00000000000FF0000000002027C8000000031
:1020B0000040403F0000000000060101020204044D
:1020C0000000000000000000E820000800000020E0
:1020D0001C0000003C080008042100081C0000202F
:1020E000240400004C08000800A24A04000000007C
:1020F00048454C4C4F574F524C44000A0A000000D0
:0421000000000000DB
:0400000508000105E9
:00000001FF
