:020000040800F2
:10000000D00400201D010008D50200089901000855
:100010009D01000891010008E90B000800000000A4
:10002000000000000000000000000000750600084D
:10003000950100080000000071060008790600081C
:1000400037010008370100083701000837010008B0
:1000500037010008370100083701000837010008A0
:100060003701000837010008370100083701000890
:100070003701000837010008370100083701000880
:100080003701000837010008370100083701000870
:100090003701000837010008370100083701000860
:1000A00037010008BD0700083701000837010008C4
:1000B00037010008D10700083701000837010008A0
:1000C0003701000837010008370100083701000830
:1000D0003701000837010008F9090008910A0008F3
:1000E0003701000837010008370100080000000050
:1000F0000000000000000000000000000000000000
:1001000037010008DFF810D000F030F80048004751
:10011000C1130008AFF30080D004002006488047D8
:1001200006480047FEE7FEE7FEE7FEE7FEE7FEE7DC
:10013000FEE7FEE7FEE7FEE781060008050100088E
:1001400030B50B46014600202022012409E021FAA7
:1001500002F59D4205D303FA02F5491B04FA02F5A4
:100160002844151EA2F10102F1DC30BD064C074DFA
:1001700006E0E06840F0010394E807009847103477
:10018000AC42F6D3FFF7C2FFBC280008DC28000809
:1001900000BFFEE700BFFEE700BFFEE700BFFEE7CF
:1001A00070B504460D461646002C0ADDA2B20021A9
:1001B000224801F07AFC4FF48051214800F0E8FF1A
:1001C0000AE0604282B200211C4801F06EFC4FF44C
:1001D00080511B4800F0DEFF002D0ADDAAB201218C
:1001E000164801F062FC4FF40051154800F0D0FFB2
:1001F0000AE0684282B20121104801F056FC4FF437
:1002000000510F4800F0C6FF002E0ADDB2B20221F5
:100210000A4801F04AFC4FF48041094800F0B8FF59
:100220000AE0704282B20221044801F03EFC4FF421
:100230008041034800F0AEFF70BD0000002C01407B
:10024000000C014010B540F2036001F01BFA4FF4BE
:100250008053032210211D4800F0A3FF4FF40053E8
:1002600003221021194800F09CFF4FF48043032221
:100270001021164800F095FF4FF4805013491431B7
:100280000860400008604000086040F2026001F031
:10029000F9F94FF4C06001F0F5F94FF480730322CF
:1002A00018210B4800F07DFF4FF400730322182142
:1002B000074800F076FF4FF48063032218210448BA
:1002C00000F06FFF01F032FC10BD0000000C014097
:1002D0000008014000BFFEE710B5002807DA0A0752
:1002E000140E054A00F00F031B1FD45403E00A0745
:1002F000130E024A135410BD18ED00E000E400E0B4
:1003000070B5002415E004F1B001C8B200F044F962
:10031000012000F041F9102000F03EF9002504E032
:10032000002000F06FF9681CC5B2842DF8DB601C5A
:10033000C4B2082CE7DB70BD10B540F2046001F0D8
:10034000A1F940F2026001F09DF94FF4004303224D
:1003500010214B4800F025FF4FF40041484800F0C1
:1003600017FF4FF4804303221021454800F019FF86
:100370004FF48041424800F00BFF4FF4005303223A
:1003800010213F4800F00DFF4FF400513C4800F0B1
:10039000FFFE0123032210213A4800F002FF012151
:1003A000384800F0F5FE4FF40041354800F0F2FE09
:1003B0004FF40051324800F0EBFE322000F0F0FD27
:1003C0004FF400512E4800F0E5FEAE2000F0E4F8B6
:1003D000002000F0E1F8102000F0DEF8402000F0EE
:1003E000DBF8812000F0D8F8CF2000F0D5F8A1206C
:1003F00000F0D2F8C82000F0CFF8A62000F0CCF82A
:10040000A82000F0C9F83F2000F0C6F8D32000F083
:10041000C3F8002000F0C0F8D52000F0BDF880201F
:1004200000F0BAF8D92000F0B7F8F12000F0B4F8E5
:10043000DA2000F0B1F8122000F0AEF8DB2000F076
:10044000ABF8402000F0A8F8202000F0A5F802202A
:1004500000F0A2F88D2000F09FF8142000F09CF826
:10046000A42000F099F8A62000F096F8AF2000F044
:1004700093F8FFF745FF0021084600F07BF810BD18
:1004800000100140000801402DE9F047044688466D
:1004900015464FF000090026002720E0E85D2038CF
:1004A00000F0FF097E2C04DD002408F1010000F0BB
:1004B000FF084146204600F05DF8002609E009EB00
:1004C0004901094A02EB4101885D00F09BF8701C6C
:1004D000C6B2062EF3DBA01DC4B2781CC7B2E85D1D
:1004E0000028DBD1BDE8F087A42000082DE9F04703
:1004F00006460F46904600250024A14631E018F834
:1005000009002038C5B2782E02DD0026781CC7B25B
:100510003946304600F02EF8002407E004EB0511C0
:10052000134A505C00F06EF8601CC4B2082CF5DB76
:10053000781CC1B2304600F01DF8002408E004EB3E
:10054000051108310A4A505C00F05CF8601CC4B226
:10055000082CF4DB06F10800C6B209F1010000F036
:10056000FF0918F809000028C9D1BDE8F08700008C
:10057000CC22000870B504460D4605F1B001C8B2A2
:1005800000F00AF8102141EA141000F005F804F018
:100590000F0000F001F870BD70B504460825012178
:1005A000164800F0F5FD2903154800F0F1FD012083
:1005B00000F0FEFE1CE004F0800028B14FF4804102
:1005C0000F4800F0E7FD04E04FF480410C4800F0D4
:1005D000DFFD4FF400410A4800F0DCFD012000F08F
:1005E000E7FE4FF40041064800F0D2FD6006040E1D
:1005F000281EA5F10101CDB2DDD170BD000801407A
:100600000010014070B5044608250121164800F08D
:10061000C1FD2903154800F0BBFD012000F0C8FE14
:100620001CE004F0800028B14FF480410F4800F036
:10063000B1FD04E04FF480410C4800F0A9FD4FF4F7
:1006400000410A4800F0A6FD012000F0B1FE4FF481
:100650000041064800F09CFD6006040E281EA5F12E
:100660000101CDB2DDD170BD000801400010014094
:1006700000BFFEE700BFFEE710B500F09BFC10BD19
:1006800008B53048006840F001002E49086000BFFE
:100690002C48006800F002000028F9D000BF29486B
:1006A000406840F08000274948600020009002E048
:1006B0000098401C009000985028F9D321484068C9
:1006C00040F090001F4948600020009002E0009830
:1006D000401C009000985028F9D300BF194840688A
:1006E00020F0030017494860084600681649084092
:1006F0001449086008464068144908401149486098
:1007000008460068104908400E490860084600681D
:1007100020F480200860084640680D4908400949D7
:1007200048600846006808490840064908604FF4D8
:100730001F00886001F064F800214FF0006000F0B5
:10074000F7FE08BD00100240FFFFF6FE0C00FFE8B8
:10075000FFFF00F77FB505460C4640F2017000F040
:1007600091FF154801F05AFA684601F070FB00202D
:10077000ADF80200ADF80C00ADF804000295ADF83C
:1007800000408DF80E0069460B4801F0BDFA0121CA
:10079000094801F02DFB0121074801F025FB4FF42A
:1007A000A06000F0BBFE012211461D2000F060FE9B
:1007B000014801F0A1FA7FBD0004004010B50121FD
:1007C000024801F09EFA00F0E1FD10BD002C01404E
:1007D00010B50121044801F094FA04480068401C57
:1007E0000249086010BD0000000400400400002021
:1007F00090B040F26C7500BF31244FF4E13000F04E
:1008000065F9FFF799FD4FA200210A20FFF76EFE60
:10081000322000F0C5FB4EA000F0E8F951A1554888
:1008200000F0B4F98CE05448027854A1684600F016
:10083000EDF96A4604210020FFF758FE00F0A6FDFE
:10084000642000F0ADFB4C480078332812D14C4AAC
:1008500011461046FFF7A4FC142000F0A1FB494A02
:1008600011461046FFF79CFC142000F099FB42480B
:10087000047862E040480078312805D12A46694270
:100880000020FFF78DFC58E03B480078322813D158
:10089000020111461046FFF783FC142000F080FB94
:1008A0004FF4FA7211461046FFF77AFC142000F05C
:1008B00077FB3148047840E02F48007830283CD15D
:1008C000322C14D1220111461046FFF769FCC820D2
:1008D00000F066FB4FF4FA7211461046FFF760FC19
:1008E000012000F05DFB30202349087025E0332C07
:1008F00013D1234A11461046FFF752FCC82000F0DE
:100900004FFB002211461046FFF74AFC012000F081
:1009100047FB3020184908700FE0194A114610466D
:10092000FFF73EFC142000F03BFB164A1146104630
:10093000FFF736FC142000F033FB012000F030FB01
:1009400071E70000546573742055534152543200CE
:1009500055534152543220496E6974204F4B200A3E
:100960000000000055534152543220496E697420F2
:100970004F4B0A000048004024000020256300007F
:10098000E0FCFFFF0CFEFFFF1FB540F2017000F01E
:1009900079FE184801F042F9684601F058FA002043
:1009A000ADF80200ADF80C00ADF8040041F61F40B0
:1009B000029042F20F70ADF8000000208DF80E009A
:1009C00069460C4801F0A0F901210A4801F010FA2B
:1009D0000121084801F008FA4FF4A06000F09EFDE4
:1009E000012211461D2000F043FD024801F084F968
:1009F0001FBD00000004004010B51C491C4801F058
:100A00000DFBB0B11A4801F075FAC1B2194802885D
:100A10000088401C174B18801748815418460088DE
:100A200016490978884204D140F20531104801F096
:100A3000DBFA13490E4801F0F1FAA8B11148027827
:100A40000078401C0F4B18700F48815C084801F07B
:100A500056FA0C4800780D490978884204D140F2D2
:100A60000731034801F0C0FA10BD0000050305007E
:100A7000004400401A0000202C0000201800002034
:100A800007030700190000200C00002017000020B9
:100A900010B50B490B4801F0C1FA80B1094801F0CB
:100AA00029FA0949087008460178064801F027FA32
:100AB00000BF0721034801F074FA0028F9D010BDE7
:100AC00005030500004800402400002010B504463E
:100AD00040F2036000F0D6FD40F2127000F0D2FD4B
:100AE0004FF48063032218211D4800F05AFB4FF495
:100AF0000063032204211A4800F053FB194801F057
:100B000003FA2146174801F0ADF90021154801F01C
:100B1000C1FA0021134801F0ADFA0021114801F09B
:100B200099FA00210F4801F055FA00210D4801F013
:100B300047FA08210B4801F0A5FA0421094801F001
:100B400091FA084801F028FA00221146272000F007
:100B50008FFC40F20531034801F053FA10BD00004C
:100B6000000C01400048004070B505460C46214687
:100B7000054801F0C4F900BF0721034801F011FA4C
:100B80000028F9D070BD00000048004070B505464F
:100B90000C4604E021782846FFF7E6FF641C14B1F8
:100BA00020780028F6D170BD10B540F2036000F047
:100BB00069FD4FF40063032210210A4800F0F1FAA6
:100BC0004FF4806303220421064800F0EAFA002271
:100BD0004FF40061034800F0DFFA4D210920FFF7D0
:100BE000B9FD10BD000C014000BFFEE70FB4054B7E
:100BF00010B503A9044A029800F02CF810BC5DF867
:100C000014FB00006D110008280000200FB4084BF1
:100C100010B504A902AA039800F01CF8044602A922
:100C2000002000F0B8F9204610BC5DF814FB00006D
:100C3000970F000802E008C8121F08C1002AFAD165
:100C400070477047002001E001C1121F002AFBD14C
:100C5000704700002DE9FF4F8BB0884605460026FF
:100C600006E025280BD0DDE90D1290476D1C761C9F
:100C700028780028F5D10FB03046BDE8F08F002469
:100C8000A146A2460122AE4900E0044315F8013F07
:100C9000203B02FA03F00842F7D128782A2810D026
:100CA0006FF02F022878A0F13001092915D809EB3F
:100CB000890102EB410144F0020400EB01096D1CC3
:100CC000F0E758F8041B5FEA010903D544F4005427
:100CD000C9F1000944F002046D1C28782E2817D1B0
:100CE00015F8010F44F004042A280ED06FF02F02EB
:100CF0002878A0F1300109290AD80AEB8A0102EB11
:100D0000410100EB010A6D1CF2E758F804AB6D1CC1
:100D100028786C280FD006DC4C2817D068280DD016
:100D20006A2814D104E0742810D07A280FD10DE07D
:100D300044F400140AE044F4801401E044F4401444
:100D40006978814202D104F580146D1C6D1C2878ED
:100D5000692865D006DC00288DD0632827D0642858
:100D600006D15DE06E2808D073282AD0752877D088
:100D7000DDE90D129047761CE0E0C4F30250022832
:100D800009D003280DD0D8F8001004280DD00E602B
:100D900008F10408D2E0D8F80010F217C1E90062A7
:100DA000F6E7D8F800100E80F2E70E70F0E718F8BA
:100DB000041B8DF8001000208DF80100EB46012087
:100DC00003E058F804BB4FF0FF3061074FF0000715
:100DD00001D40AE07F1C57450DDA8742FADB1BF885
:100DE00007100029F6D106E07F1C8742FCDB1BF8C8
:100DF00007100029F8D1DDE90D23A9EB0700814692
:100E0000214600F0B1F83044C61904E0DDE90D12C6
:100E10001BF8010B90477F1EF8D22146484688E018
:100E200058F8040BC4F302514FF00A0B032900D108
:100E300000B2042900D140B2002802DA40422D213C
:100E400002E0210505D52B218DF82410012104E0B5
:100E500006E0E10710D02021F6E708AF089113E083
:100E600058F8040BC4F302514FF00A0B032900D1C8
:100E700080B2042900D1C0B20021EEE75946FFF745
:100E80005FF9303107F8011D0028F7D1ADEB0700FD
:100E900000F1200B600702D524F4803401E04FF00C
:100EA000010ADA4502DDAAEB0B0000E000208246D1
:100EB00000EB0B0108980144A9EB01000A90E00344
:100EC00006D4DDE90D2321460A9800F04DF80644CA
:100ED0004FF0000908E009A911F80900DDE90D1239
:100EE000904709F10109761C08998945F3DBE00375
:100EF0000CD5DDE90D2321460A9800F035F80644AB
:100F000004E0DDE90D1230209047761CBAF10001B3
:100F1000AAF1010AF5DC05E0DDE90D1217F8010B75
:100F20009047761CBBF10001ABF1010BF4DC0A9891
:100F30002146DDE90D2300F005F806446D1C97E617
:100F4000092801002DE9F041044600251E461746F8
:100F5000880404D405E039462020B0476D1C641E87
:100F6000F9D52846BDE8F0812DE9F0410446002579
:100F70001E469046C80301D5302700E0202788048C
:100F800004D505E041463846B0476D1C641EF9D5CE
:100F90002846BDE8F0810A68531C0B60107070474A
:100FA0000349086000BF024909680029FBD1704766
:100FB000080000200448006820B103480068401E73
:100FC0000149086070470000080000201FB54FF479
:100FD000E06000F057FB40F2026000F053FB40F28B
:100FE000036000F04FFB01211C4800F039F94FF479
:100FF00000430322042140F2026000F0D2F80823EB
:101000000322042140F2036000F0CBF84FF080404F
:1010100000F004FE0020ADF80000ADF80200ADF8CD
:1010200004004FF6FF7002900020ADF80C008DF820
:101030000E0069464FF0804000F066FE0223002259
:101040001946580700F0E3FE4FF0804000F004FC22
:101050004FF0804000F050FE1FBD0000000318005C
:101060001FB540F2017000F00DFB40F2036000F08C
:1010700009FB40F2036000F005FB0121194800F074
:10108000EFF810230322042140F2036000F089F8F6
:1010900020230322042140F2036000F082F812486A
:1010A00000F0BCFD0020ADF80000ADF80200ADF886
:1010B00004004FF6FF7002900020ADF80C008DF890
:1010C0000E006946084800F01FFE02230022194660
:1010D000054800F09CFE044800F0BEFB024800F00A
:1010E0000BFE1FBD00081A00000400401FB540F2AF
:1010F000027000F0C7FA40F2036000F0C3FA40F259
:10110000036000F0BFFA40230322042140F2036091
:1011100000F047F880230322042140F2036000F02E
:1011200040F8114800F07AFD0020ADF80000ADF85D
:101130000200ADF804004FF6FF7002900020ADF8F9
:101140000C008DF80E006946074800F0DDFD022313
:1011500000221946044800F05AFE034800F07CFBC8
:10116000014800F0C9FD1FBD0008004070B50446ED
:101170000D46E1B2054800F0C2FE00BF062103485B
:1011800000F00FFF0028F9D0204670BD0044004059
:1011900041617047016170470AB1016100E041613E
:1011A0007047F0B5044616460025002201F00F05F1
:1011B00001F0100707B1354300201EE001278740EA
:1011C0001F40C7B122684FEA800C0F2707FA0CF7BF
:1011D000BA43870005FA07F73A43282904D10127C3
:1011E00087401F40676105E0482903D101278740F8
:1011F0001F4027612260471CB8B20828DED30820B0
:1012000022E0012787401F40E7B16268A0F108078C
:101210004FEA870C0F2707FA0CF7BA43A0F108072B
:10122000BF0005FA07F73A43282904D10127874070
:101230001F40676105E0482903D1012787401F400F
:1012400027616260471CB8B21028DAD3F0BD0246AD
:101250009068084008B1012070470020FCE70000BA
:10126000F0B50A46002300240021002500F00046C6
:10127000B6F1004F02D11D4EF16901E01B4E7168BD
:10128000C0F3034583B200F44016B6F5401F08D101
:1012900021F07061154E766826F07066134F7E60FF
:1012A00012E000F48016B6F5801F06D1032606FA78
:1012B00005F4A14341F0706106E0460D360103FAE2
:1012C00006F6B14341F0706122B1460D360103FAD2
:1012D00006F6314300F00046B6F1004F02D1034E4E
:1012E000F16101E0014E7160F0BD000000000140BD
:1012F00010B540F2036000F0C5F901230322042178
:101300001648FFF74EFF40F2036000F0BBF90223DE
:10131000032204211148FFF744FF40F2036000F06C
:10132000B1F90423032219460C48FFF73AFF40F2B3
:10133000036000F0A7F94FF400630322042108487A
:10134000FFF72FFF40F2026000F09CF94FF480534A
:10135000032204210248FFF724FF10BD000C0140C6
:101360000008014010B540F2036000F08BF94FF423
:101370000043032210210448FFF713FF4FF40041FC
:101380000148FFF707FF10BD000C014010B54FF4F6
:1013900000410648FFF75BFFC0F10100C4B22246DE
:1013A0004FF400410148FFF7F7FE10BD000C01406B
:1013B00000E000BF011EA0F10100FAD1704700005B
:1013C00000F022FA002000F0BFF800F01DFA4FF400
:1013D000C06000F057F9FFF7C5FFFFF789FFFEF780
:1013E000ABFFC820FFF7DCFDFEF78AFF00F07AF9BB
:1013F000FEF728FF00BFFFF7C7FAFFF7E7FDFFF78B
:101400002FFEFFF773FE00BF00BF00BF00F0FCF926
:10141000002000F099F800F0F7F94FF4C06000F0F8
:1014200031F9FFF79FFFFFF763FFFEF785FFC82045
:10143000FFF7B6FDFEF764FFFFF7B6FBFEF77CFF94
:1014400007A202210A20FFF71FF80520FFF7A8FDD9
:10145000FFF7CEF902E06420FFF7A2FDFBE70000F2
:1014600054657374207265642062616C6C200000A6
:101470002DE9F04103460D46164600240027A046FC
:101480002448006800F4E060B0F5A06F15D006DCD9
:10149000B0F5407F18D0B0F5806F19D110E0B0F5ED
:1014A000C06F06D0B0F5E06F12D100274FF00408EE
:1014B00015E001274FF0030811E00227B8460EE0BF
:1014C00003274FF001080AE004274FF0000806E068
:1014D0004FF4A06000F022F80227B84600BF00BF1A
:1014E000C7F1040005FA00F4C8F104010F20C84058
:1014F0003040044324010848C45403F01F01012074
:1015000088405911890001F1E021C1F80001BDE8CE
:10151000F08100000CED00E000E400E0024901432E
:10152000024A1160704700000000FA050CED00E06F
:10153000034A0A400243034B1A60BFF34F8F7047C0
:1015400080FFFF1F08ED00E0044A516821F0F00120
:1015500041EA0002014B5A6070470000001002404F
:101560002DE9F04F8BB00746002009903EA090E88F
:10157000004CC068CDE905BECDF810A007900FF271
:10158000EC0ADAE9000ACDE9020A0FF2E00ADAE928
:10159000000ACDE9000A38484068C0F381000A908B
:1015A0000A9820B1012804D0022829D103E0334948
:1015B00028E0324926E03048406800F48038B8F529
:1015C000803F09D12D4C2C48406800F40039B9F512
:1015D000003F02D1641000E0294C27484068C0F366
:1015E00083422548406800F0006008B142F01002D4
:1015F0000F2A01D2921C00E0521C04FB02F101E010
:101600001E4900BF00BF1C484068C0F3031504A872
:10161000465D21FA06F318484068C0F3022502A887
:10162000465D23FA06FC14484068C0F3C2251DF845
:10163000056023FA06F0089037B1012F06D0022F7B
:1016400006D0032F0AD106E0099108E0099306E0CD
:10165000CDF824C003E00898099000E000BF00BF67
:1016600009980BB0BDE8F08F0000000000000000FA
:1016700001020304060708090010024000127A0064
:1016800000093D00064A02EB9011096800F01F03B3
:1016900001229A401143024B03EB901211607047F4
:1016A00000100240064A02EB9011096800F01F0387
:1016B00001229A409143024B03EB90121160704754
:1016C00000100240064A02EB9011096800F01F0367
:1016D00001229A401143024B03EB901211607047B4
:1016E0000010024010B540F20260FFF7CBFF10235C
:1016F000032204211048FFF754FD40F20260FFF777
:10170000C1FF8023032204210B48FFF74AFD40F26A
:101710000260FFF7B7FF4023032204210648FFF7CA
:1017200040FD40F20260FFF7ADFF202303220421B9
:101730000148FFF736FD10BD0008014000200021E0
:101740002C4A126842F480322A4B1A6000BF401CB7
:10175000284A126802F4003119B94FF6FF7290421C
:10176000F5D1244A126802F400320AB900BFFEE73C
:10177000204A52681F4B5A601A4652685A601A46ED
:10178000526842F480625A601A46526822F440322B
:101790005A601A46526842F440325A601A465268F9
:1017A000154B1A40134B5A601A465268134B1A4392
:1017B000104B5A601A46126842F080721A6000BFDD
:1017C0000C4A126802F00072002AF9D0094A5268E5
:1017D00022F00302074B5A601A46526842F0020296
:1017E0005A6000BF034A526802F00C02082AF9D17D
:1017F0007047000000100240FFFFC3F7000004081C
:1018000010B5FFF79BFF10BD10B5124800684FF4EC
:101810007A71B0FBF1F4601EB0F1807F01D301203A
:101820000FE0601E4FF0E02148610F214FF0FF30C4
:10183000FEF752FD00204FF0E0218861072008618B
:10184000002008B100BFFEE70021481EFEF744FD5E
:1018500010BD000000000020016841F0800101601F
:101860007047000010B531B101293FD002297DD069
:1018700003297CD1BFE0036A23F00103036283697B
:1018800023F003038361036A148823430362036A1A
:1018900023F002030362036A9488234303626A4BC2
:1018A000984202D0694B98421FD1036A23F0040387
:1018B0000362036A548823430362036A23F0080324
:1018C0000362036AD48823430362436823F480736A
:1018D00043604368148923434360436823F40073DF
:1018E00043604368548923434360ABE0036A23F0B9
:1018F00010030362836923F440738361036A1488CD
:1019000043EA04130362036A23F020030362036AB9
:10191000948843EA041303624B4B984202D04B4B2A
:10192000984226D1036A23F040030362036A548875
:1019300043EA04130362036A23F080030362036A29
:10194000D48843EA04130362436823F4806343604A
:101950004368148943EA84034360436823F40063C3
:1019600043604368548943EA840301E002E068E08D
:10197000436067E0036A23F480730362C36923F062
:101980000303C361036A148843EA04230362036AFE
:1019900023F400730362036A948843EA0423036216
:1019A000294B984202D0294B984223D1036A23F451
:1019B00080630362036A548843EA04230362036A70
:1019C00023F400630362036AD48843EA04230362B6
:1019D000436823F4805343604368148943EA041343
:1019E0004360436823F4005343604368548943EAE7
:1019F0000413436026E0036A23F480530362C3693F
:101A000023F44073C361036A148843EA0433036216
:101A1000036A23F400530362036A948843EA04339D
:101A20000362094B984202D0084B984208D14368A0
:101A300023F4804343604368148943EA841343607A
:101A400000E000BF00BF10BD002C01400034014089
:101A500031B101290CD0022913D0032922D118E079
:101A6000836923F0700383618369134383611AE000
:101A7000836923F4E0438361836943EA022383613A
:101A800011E0C36923F07003C361C3691343C361E9
:101A900009E0C36923F4E043C361C36943EA022355
:101AA000C36100E000BF00BF704731B1012906D01B
:101AB000022906D0032908D105E0426306E08263CB
:101AC00004E0C26302E0026400E000BF00BF7047B0
:101AD00031B101290CD0022913D0032922D118E0F9
:101AE000836923F0080383618369134383611AE0E8
:101AF000836923F400638361836943EA022383617A
:101B000011E0C36923F00803C361C3691343C361D0
:101B100009E0C36923F40063C361C36943EA022394
:101B2000C36100E000BF00BF7047000000B587B090
:101B300040F20B60FFF7A6FD374800F06FF8002079
:101B4000ADF80000ADF80200ADF8040041F61F400A
:101B500002900020ADF80C008DF80E0069462E486A
:101B600000F0D2F80020ADF814000120ADF810000C
:101B70000020ADF81600ADF81200ADF81800ADF871
:101B80001A0004AA00212448FFF76CFE04AA0121D0
:101B90002148FFF767FE04AA02211F48FFF762FEF3
:101BA00040F2F31200211C48FFF77FFF6022002162
:101BB0001948FFF74DFF002211461748FFF788FF2D
:101BC00040F2F31201211448FFF76FFF6022012158
:101BD0001148FFF73DFF002201210F48FFF778FF72
:101BE00040F2F31202210C48FFF75FFF602202214E
:101BF0000948FFF72DFF002202210748FFF768FF81
:101C00000548FFF729FE0121034800F0F4F80248D7
:101C100000F072F807B000BD002C014010B504467A
:101C20003349601A8C4244D00CDCB4F1804F1CD094
:101C30003048204410B3B0F5806F28D0B0F5006F65
:101C400052D12DE0B0F5806F3CD0B0F58E3F03D07F
:101C5000B0F5923F48D13EE040F20B30FFF732FD45
:101C600040F20B30FFF71EFD3FE04FF48060FFF7BE
:101C700029FD4FF48060FFF715FD36E040F201408A
:101C8000FFF720FD40F20140FFF70CFD2DE040F290
:101C90000240FFF717FD40F20240FFF703FD24E08A
:101CA00040F20340FFF70EFD40F20340FFF7FAFC5D
:101CB0001BE040F20440FFF705FD40F20440FFF74F
:101CC000F1FC12E040F20540FFF7FCFC40F2054059
:101CD000FFF7E8FC09E040F20D30FFF7F3FC40F2BB
:101CE0000D30FFF7DFFC00E000BF00BF10BD0000BB
:101CF0000010004000FCFFBF016841F001010160DD
:101D00007047CA43026170470A888262294A90423A
:101D100020D0B0F1804F1DD0274A90421AD0274AD8
:101D2000904217D0264A904214D0264A904211D0B1
:101D3000254A90420ED0254A90420BD0244A904228
:101D400008D0244A904205D0234A904202D0234A28
:101D500090420FD1026822F07002026002688B7814
:101D600003F060031A43026002680B7903F010036A
:101D70001A4302608A68C262194A90420CD0194A1A
:101D8000904209D0026822F44072026002688B8996
:101D900003F440731A430260064A904202D0094A93
:101DA000904201D18A7B0263426942F001024261A2
:101DB00070470000002C0140000400400008004073
:101DC000000C004000340140004C01400050014034
:101DD0000054014000180040001C0040002000405A
:101DE0000010004000140040C2680A43C2607047FF
:101DF000CA4302617047012904D1426C42F4004297
:101E0000426403E0426C22F400424264704730B501
:101E1000846824F00704846084680C4384608469C7
:101E200040F20335AC438461846940F201152C43D0
:101E30008461046A24F00A040462046A24F0A004A1
:101E40000462046A42EA03152C43046230BD002197
:101E50000180418081804FF6FF7181600021818186
:101E6000817370472DE9F04704460D460027B846B8
:101E7000B94600261D49601A8C421CD006DC1C485D
:101E8000204470B1B0F5806F1FD10FE0B0F5806FC6
:101E900016D0B0F56C4F18D10320FFF761FB074651
:101EA00014E00220FFF75CFB07460FE00220FFF77B
:101EB00057FB07460AE00220FFF752FB074605E002
:101EC0000220FFF74DFB074600E000BF00BF07EB15
:101ED0005500B0FBF5F64FF6F07006EA000806F084
:101EE0000F0948EA0900A060BDE8F087004C0040F7
:101EF00000BCFFBF01464868C0F308007047C1F34B
:101F0000080242607047000010B504462049601A7C
:101F10008C4228D006DC1F48204490B1B0F5806F79
:101F200033D117E0B0F5806F26D0B0F56C4F2CD1CF
:101F300040F20E30FFF7C6FB40F20E30FFF7B2FB67
:101F400024E040F21140FFF7BDFB40F21140FFF7E3
:101F5000A9FB1BE040F21240FFF7B4FB40F2124035
:101F6000FFF7A0FB12E040F21340FFF7ABFB40F29B
:101F70001340FFF797FB09E040F21440FFF7A2FB84
:101F800040F21440FFF78EFB00E000BF00BF10BD21
:101F9000004C004000BCFFBFC16841F40051C1606B
:101FA000704710B5024602EB9110006801F01F0463
:101FB0000123A340184008B1012010BD0020FCE718
:101FC000426922F400724261426901F400731A43CB
:101FD00042617047426922F480724261426901F4B1
:101FE00080731A434261704710B5C1F38912825859
:101FF00001F01F040123A3409A43C1F38913C25087
:1020000010BD10B5C1F38912825801F01F040123DD
:10201000A3401A43C1F38913C25010BD70B50246E4
:1020200000230024C1F38910105801F01F06012578
:10203000B54000EA050302EB91500068C1F3044685
:102040000125B54000EA050414B10BB1012070BDB3
:102050000020FCE7C26822F4C062C260C2680A4382
:10206000C26070470A460021C16821F00401114393
:10207000C1607047026922F44052026102690A435A
:10208000026170470A460021C16821F0080111432E
:10209000C1607047C26822F48052C260C2680A43BD
:1020A000C26070470000000000000000002F000028
:1020B00000000700070000147F147F1400242A7F0B
:1020C0002A1200626408132300364955225000008A
:1020D0000503000000001C224100000041221C00FA
:1020E0000014083E08140008083E0808000000A07C
:1020F0006000000808080808000060600000002078
:1021000010080402003E5149453E0000427F400055
:10211000004261514946002141454B3100181412DB
:102120007F10002745454539003C4A4949300001A8
:102130007109050300364949493600064949291EF7
:102140000000363600000000563600000008142259
:102150004100001414141414000041221408000259
:102160000151090600324959513E007C1211127C7E
:10217000007F49494936003E41414122007F4141AB
:10218000221C007F49494941007F09090901003E9D
:102190004149497A007F0808087F0000417F4100DB
:1021A000002040413F01007F08142241007F404051
:1021B0004040007F020C027F007F0408107F003E39
:1021C0004141413E007F09090906003E4151215E1F
:1021D000007F091929460046494949310001017F1C
:1021E0000101003F4040403F001F2040201F003FB2
:1021F0004038403F00631408146300070870080764
:1022000000615149454300007F41410000552A5576
:102210002A55000041417F000004020102040040F1
:102220004040404000000102040000205454547813
:10223000007F484444380038444444200038444433
:10224000487F00385454541800087E0901020018D1
:10225000A4A4A47C007F080404780000447D40000E
:10226000004080847D00007F102844000000417FF2
:102270004000007C04180478007C080404780038CE
:102280004444443800FC242424180018242418FC56
:10229000007C0804040800485454542000043F44BF
:1022A0004020003C4040207C001C2040201C003C82
:1022B0004030403C004428102844001CA0A0A07CD2
:1022C000004464544C44141414141414000000000A
:1022D000000000000000000000000000000000F806
:1022E00000000000000000333000000000100C0669
:1022F000100C0600000000000000000040C0784004
:10230000C0784000043F04043F040400007088FCCF
:1023100008300000001820FF211E0000F008F00027
:10232000E018000000211C031E211E0000F0088898
:10233000700000001E2123241927211010160E0002
:10234000000000000000000000000000000000E0AD
:1023500018040200000000071820400000020418C2
:10236000E00000000040201807000000404080F01E
:10237000804040000202010F01020200000000F054
:10238000000000000101011F010101000000000028
:102390000000000080B0700000000000000000009D
:1023A0000000000000010101010101010000000026
:1023B00000000000003030000000000000000000BD
:1023C00080601804006018060100000000E010089A
:1023D0000810E000000F102020100F00001010F86F
:1023E000000000000020203F2020000000700808AE
:1023F000088870000030282422213000003008882E
:10240000884830000018202020110E000000C02055
:1024100010F8000000070424243F240000F8088876
:10242000880808000019212020110E0000E0108803
:1024300088180000000F112020110E000038080835
:10244000C83808000000003F000000000070880845
:1024500008887000001C222121221C0000E01008C6
:102460000810E0000000312222110F00000000C01F
:10247000C0000000000000303000000000000080BC
:1024800000000000000080600000000000008040AC
:1024900020100800000102040810200040404040C5
:1024A0004040400004040404040404000008102018
:1024B000408000000020100804020100007048085D
:1024C0000808F0000000003036010000C030C828C5
:1024D000E810E0000718272423140B000000C03880
:1024E000E0000000203C23020227382008F88888FA
:1024F00088700000203F202020110E00C030080806
:1025000008083800071820202010080008F80808DC
:102510000810E000203F202020100F0008F88888D5
:10252000E8081000203F20202320180008F88888A1
:10253000E8081000203F200003000000C030080819
:102540000838000007182020221E020008F80800A2
:102550000008F808203F210101213F20000808F869
:10256000080800000020203F20200000000008088C
:10257000F8080800C08080807F00000008F888C04C
:1025800028180800203F20012638200008F80800FD
:1025900000000000203F20202020300008F8F80034
:1025A000F8F80800203F003F003F200008F830C046
:1025B0000008F808203F200007183F00E010080836
:1025C0000810E0000F10202020100F0008F8080865
:1025D0000808F000203F210101010000E010080878
:1025E0000810E0000F18242438504F0008F888889D
:1025F00088887000203F2000030C3020007088087D
:10260000080838000038202121221C00180808F88A
:10261000080818000000203F2000000008F808000B
:102620000008F808001F202020201F0008788800DC
:1026300000C83808000007380E010000F80800F84C
:102640000008F800033C0700073C030008186880F6
:102650008068180820302C03032C30200838C8006C
:10266000C83808000000203F2000000010080808BB
:10267000C83808002038262120201800000000FE5D
:10268000020202000000007F40404000000C30C009
:1026900000000000000000010638C0000002020235
:1026A000FE000000004040407F00000000000402E7
:1026B0000202040000000000000000000000000012
:1026C0000000000080808080808080800002020402
:1026D00000000000000000000000000000008080FA
:1026E000808000000019242222223F2008F8008068
:1026F00080000000003F112020110E00000000802B
:1027000080800000000E11202020110000000080B9
:102710008088F800000E112020103F2000008080EB
:1027200080800000001F222222221300008080F0FF
:10273000888888180020203F20200000000080802A
:1027400080808000006B94949493600008F800806F
:1027500080800000203F210000203F2000809898CA
:10276000000000000020203F20200000000000802A
:102770009898000000C08080807F000008F800006A
:1027800080808000203F24022D302000000808F8BF
:10279000000000000020203F20200000808080807A
:1027A00080808000203F20003F20003F808000800C
:1027B00080800000203F210000203F20000080801A
:1027C00080800000001F202020201F0080800080CB
:1027D0008000000080FFA12020110E00000000807A
:1027E00080808000000E112020A0FF80808080006B
:1027F0008080800020203F21200001000000808098
:10280000808080000033242424241900008080E08C
:10281000808000000000001F202000008080000059
:1028200000808000001F202020103F20808080003A
:102830000080808000010E3008060100808000804A
:10284000008080800F300C030C300F00008080006F
:10285000808080000020312E0E312000808080009A
:102860000080808080818E7018060100008080804A
:10287000808080000021302C2221300000000000E8
:10288000807C020200000000003F40400000000089
:10289000FF00000000000000FF0000000002027CBA
:1028A000800000000040403F0000000000060101E1
:1028B000020204040000000000000000DC28000800
:1028C000000000202C000000340C0008082900083B
:1028D0002C000020A4040000440C000800A24A04BC
:1028E000000000000000000048454C4C4F574F527C
:1028F0004C44000A0A000000000000000000000034
:082900000000000000000000CF
:0400000508000105E9
:00000001FF
