:020000040800F2
:10000000D00400201D01000819050008DD030008C8
:10001000E103000811030008890B0008000000003C
:10002000000000000000000000000000910800082F
:1000300015030008000000002D08000895080008BE
:1000400037010008370100083701000837010008B0
:1000500037010008370100083701000837010008A0
:100060003701000837010008370100083701000890
:100070003701000837010008370100083701000880
:100080003701000837010008370100083701000870
:100090003701000837010008370100083701000860
:1000A00037010008D90900083701000837010008A6
:1000B00037010008ED090008370100083701000882
:1000C0003701000837010008370100083701000830
:1000D00037010008370100087D0A0008150B0008E9
:1000E0003701000837010008370100080000000050
:1000F0000000000000000000000000000000000000
:1001000037010008DFF810D000F0F0F80048004791
:1001100071130008AFF30080D00400200648804728
:1001200006480047FEE7FEE7FEE7FEE7FEE7FEE7DC
:10013000FEE7FEE7FEE7FEE79D0800080501000870
:1001400080EA010210B502F00043400022D04A00CC
:100150001FD0010E01EB1261C0F35600C2F356022C
:1001600040F4000042F40002A0FB022000047F39AA
:10017000140400D0401C50EA124001D44000491E33
:10018000C2B20C0604EBD010401C4008802A02D0FA
:1001900003E0002010BD20F00100002900DA00205B
:1001A000184310BD30B480EA010202F0004530F07F
:1001B000004221F0004013D090B1C30DD40DC2F322
:1001C0001601C0F31600E41A41F4000140F40002E5
:1001D0007D34914201D3641C00E04900002C02DA16
:1001E00030BC002070474FF400000023914201D33F
:1001F000891A034340084FEA4101F7D151B19142B6
:1002000002D14FF0004105E002D24FF0010101E0C0
:100210006FF0010103EBC450284430BC00F02FB84C
:1002200096230022114600F033B820F00040C10DA3
:10023000C0F3160040F400007F2901DA0020704767
:10024000962903DCC1F19601C84070479639884071
:10025000704730B50B46014600202022012409E0FA
:1002600021FA02F59D4205D303FA02F5491B04FA6F
:1002700002F52844151EA2F10102F1DC30BD00296F
:10028000A8BF7047401C490008BF20F0010070471C
:1002900010B4B0FA80FC00FA0CF050EA010404BF7C
:1002A00010BC704749B1CCF1200421FA04F411FAD2
:1002B0000CF118BF012121430843A3EB0C01CB1D16
:1002C0004FEA00614FEA102042BF002010BC704787
:1002D00000EBC35010440029A4BF10BC7047401C61
:1002E000490008BF20F0010010BC7047064C074DC4
:1002F00006E0E06840F0010394E8070098471034F6
:10030000AC42F6D3FFF702FFD8280008F82800080F
:1003100000BFFEE700BFFEE770B5054600246C6A2B
:100320000021284601F064FDB4F5004F02DBA4F57E
:100330007F44FF3C204670BD2DE9F041002401229E
:10034000D102204800F000FF0A2000F0FFFD00224B
:100350004FF400611B4800F0F7FE00BF4FF48061CE
:10036000184800F04CFF0028F8D0174800681749DB
:10037000086000BF4FF48061124800F040FF012880
:10038000F8D01148006811490968884216D90E480A
:1003900000680E490968401A0D490860084600685F
:1003A000FFF73EFF07460B49FFF7CAFE06460A491C
:1003B000FFF7F8FE0546FFF738FF04462046BDE884
:1003C000F0810000000C0140040000202400002007
:1003D00028000020000088410000C84200BFFEE75E
:1003E00000BFFEE770B504460D461646002C0ADD38
:1003F000A2B20021224801F042FC4FF48051214872
:1004000000F09EFE0AE0604282B200211C4801F02A
:1004100036FC4FF480511B4800F094FE002D0ADD9D
:10042000AAB20121164801F02AFC4FF400511548E8
:1004300000F086FE0AE0684282B20121104801F015
:100440001EFC4FF400510F4800F07CFE002E0ADD28
:10045000B2B202210A4801F012FC4FF4804109486F
:1004600000F06EFE0AE0704282B20221044801F000
:1004700006FC4FF48041034800F064FE70BD0000AC
:10048000002C0140000C014010B540F2036001F067
:10049000E3F94FF48053032210211D4800F059FE68
:1004A0004FF4005303221021194800F052FE4FF47C
:1004B000804303221021164800F04BFE4FF4805079
:1004C000134914310860400008604000086040F2A1
:1004D000026001F0C1F94FF4C06001F0BDF94FF4C2
:1004E0008073032218210B4800F033FE4FF4007391
:1004F00003221821074800F02CFE4FF480630322EA
:100500001821044800F025FE01F0FAFB10BD0000A0
:10051000000C01400008014000BFFEE710B50028B4
:1005200007DA0A07140E054A00F00F031B1FD45404
:1005300003E00A07130E024A135410BD18ED00E041
:1005400000E400E070B5002415E004F1B001C8B289
:1005500000F000F9012000F0FDF8102000F0FAF89A
:10056000002504E0002000F02BF9681CC5B2842DA2
:10057000F8DB601CC4B2082CE7DB70BD10B540F29C
:10058000046001F069F940F2026001F065F94FF48E
:100590000043032210214B4800F0DBFD4FF40041E3
:1005A000484800F0CDFD4FF4804303221021454818
:1005B00000F0CFFD4FF48041424800F0C1FD4FF400
:1005C0000053032210213F4800F0C3FD4FF40051B7
:1005D0003C4800F0B5FD0123032210213A4800F009
:1005E000B8FD0121384800F0ABFD4FF4004135481B
:1005F00000F0A8FD4FF40051324800F0A1FD322078
:1006000000F08EFC4FF400512E4800F09BFDAE2010
:1006100000F0A0F8002000F09DF8102000F09AF8FB
:10062000402000F097F8812000F094F8CF2000F0EF
:1006300091F8A12000F08EF8C82000F08BF8A620D9
:1006400000F088F8A82000F085F83F2000F082F83C
:10065000D32000F07FF8002000F07CF8D52000F0D7
:1006600079F8802000F076F8D92000F073F8F120B6
:1006700000F070F8DA2000F06DF8122000F06AF84F
:10068000DB2000F067F8402000F064F8202000F044
:1006900061F8022000F05EF88D2000F05BF8142075
:1006A00000F058F8A42000F055F8A62000F052F809
:1006B000AF2000F04FF8FFF745FF0021084600F09B
:1006C00037F810BD00100140000801402DE9F04747
:1006D0000446884615464FF000090026002720E012
:1006E000E85D203800F0FF097E2C04DD002408F1CD
:1006F000010000F0FF084146204600F019F80026EE
:1007000009E009EB4901094A02EB4101885D00F06B
:1007100057F8701CC6B2062EF3DBA01DC4B2781CBD
:10072000C7B2E85D0028DBD1BDE8F087BE20000835
:1007300070B504460D4605F1B001C8B200F00AF8E4
:10074000102141EA141000F005F804F00F0000F049
:1007500001F870BD70B5044608250121164800F067
:10076000EFFC2903154800F0EBFC012000F0F8FD38
:100770001CE004F0800028B14FF480410F4800F0E5
:10078000E1FC04E04FF480410C4800F0D9FC4FF448
:1007900000410A4800F0D6FC012000F0E1FD4FF4D2
:1007A0000041064800F0CCFC6006040E281EA5F1AE
:1007B0000101CDB2DDD170BD000801400010014043
:1007C00070B5044608250121164800F0BBFC29033A
:1007D000154800F0B5FC012000F0C2FD1CE004F05B
:1007E000800028B14FF480410F4800F0ABFC04E0DA
:1007F0004FF480410C4800F0A3FC4FF400410A483C
:1008000000F0A0FC012000F0ABFD4FF400410648D1
:1008100000F096FC6006040E281EA5F10101CDB281
:10082000DDD170BD000801400010014000BFFEE7AF
:1008300010B5044634B1012C0CD0022C12D0032C7C
:1008400020D117E01021114800F0D9FC08B901208F
:1008500010BD17E080210D4800F0D1FC08B901203F
:10086000F6E70FE04021094800F0C9FC08B9012073
:10087000EEE707E02021054800F0C1FC08B901209F
:10088000E6E700BF00BF0020E2E7000000080140EB
:1008900000BFFEE710B500F04DFB10BD08B53048B5
:1008A000006840F001002E49086000BF2C48006835
:1008B00000F002000028F9D000BF2948406840F04D
:1008C0008000274948600020009002E00098401C0A
:1008D000009000985028F9D32148406840F09000DB
:1008E0001F4948600020009002E00098401C0090E2
:1008F00000985028F9D300BF1948406820F0030041
:1009000017494860084600681649084014490860BD
:100910000846406814490840114948600846006884
:10092000104908400E4908600846006820F48020FD
:100930000860084640680D49084009494860084673
:10094000006808490840064908604FF41F008860A5
:1009500001F040F800214FF0006000F065FF08BD95
:1009600000100240FFFFF6FE0C00FFE8FFFF00F75B
:100970007FB505460C4640F2017000F06DFF15484A
:1009800001F038FA684601F04EFB0020ADF8020095
:10099000ADF80C00ADF804000295ADF800408DF8FC
:1009A0000E0069460B4801F09BFA0121094801F04D
:1009B0000BFB0121074801F003FB4FF4A06000F09E
:1009C00029FF012211461D2000F0CEFE014801F052
:1009D0007FFA7FBD0004004010B50121024801F0FC
:1009E0007CFA00F0ABFC10BD002C014010B50121D9
:1009F000044801F072FA04480068401C024908608B
:100A000010BD000000040040040000201FB540F2AB
:100A1000017000F021FF184801F0ECF9684601F080
:100A200002FB0020ADF80200ADF80C00ADF80400A8
:100A300041F61F40029042F20F70ADF80000002016
:100A40008DF80E0069460C4801F04AFA01210A4867
:100A500001F0BAFA0121084801F0B2FA4FF4A0609F
:100A600000F0D8FE012211461D2000F07DFE024854
:100A700001F02EFA1FBD00000004004010B51C4913
:100A80001C4801F000FBB0B11A4801F0D7FAC1B21E
:100A9000194802880088401C174B18801748815459
:100AA0001846008816490978884204D140F2053179
:100AB000104801F0DBFA13490E4801F0E4FAA8B13E
:100AC000114802780078401C0F4B18700F48815C69
:100AD000084801F0B8FA0C4800780D4909788842B6
:100AE00004D140F20731034801F0C0FA10BD000004
:100AF00005030500004400401A0000202C000020DF
:100B00001800002007030700190000200C00002037
:100B10001700002010B50A490A4801F0B4FA70B174
:100B2000084801F08BFAC4B22146064801F08BFA5E
:100B300000BF0721034801F08AFA0028F9D010BD50
:100B4000050305000048004010B540F2036000F0C6
:100B500083FE4FF40063032210210A4800F0F9FAE3
:100B60004FF4806303220421064800F0F2FA0022C9
:100B70004FF40061034800F0E7FA4D210920FFF728
:100B8000F7FE10BD000C014000BFFEE70FB4084B9C
:100B900010B504A902AA039800F01CF8044602A9A3
:100BA000002000F0B8F9204610BC5DF814FB0000EE
:100BB000170F000802E008C8121F08C1002AFAD166
:100BC00070477047002001E001C1121F002AFBD1CD
:100BD000704700002DE9FF4F8BB088460546002680
:100BE00006E025280BD0DDE90D1290476D1C761C20
:100BF00028780028F5D10FB03046BDE8F08F0024EA
:100C0000A146A2460122AE4900E0044315F8013F87
:100C1000203B02FA03F00842F7D128782A2810D0A6
:100C20006FF02F022878A0F13001092915D809EBBF
:100C3000890102EB410144F0020400EB01096D1C43
:100C4000F0E758F8041B5FEA010903D544F40054A7
:100C5000C9F1000944F002046D1C28782E2817D130
:100C600015F8010F44F004042A280ED06FF02F026B
:100C70002878A0F1300109290AD80AEB8A0102EB91
:100C8000410100EB010A6D1CF2E758F804AB6D1C42
:100C900028786C280FD006DC4C2817D068280DD097
:100CA0006A2814D104E0742810D07A280FD10DE0FE
:100CB00044F400140AE044F4801401E044F44014C5
:100CC0006978814202D104F580146D1C6D1C28786E
:100CD000692865D006DC00288DD0632827D06428D9
:100CE00006D15DE06E2808D073282AD0752877D009
:100CF000DDE90D129047761CE0E0C4F302500228B3
:100D000009D003280DD0D8F8001004280DD00E60AB
:100D100008F10408D2E0D8F80010F217C1E9006227
:100D2000F6E7D8F800100E80F2E70E70F0E718F83A
:100D3000041B8DF8001000208DF80100EB46012007
:100D400003E058F804BB4FF0FF3061074FF0000795
:100D500001D40AE07F1C57450DDA8742FADB1BF805
:100D600007100029F6D106E07F1C8742FCDB1BF848
:100D700007100029F8D1DDE90D23A9EB0700814612
:100D8000214600F0B1F83044C61904E0DDE90D1247
:100D90001BF8010B90477F1EF8D22146484688E099
:100DA00058F8040BC4F302514FF00A0B032900D189
:100DB00000B2042900D140B2002802DA40422D21BD
:100DC00002E0210505D52B218DF82410012104E036
:100DD00006E0E10710D02021F6E708AF089113E004
:100DE00058F8040BC4F302514FF00A0B032900D149
:100DF00080B2042900D1C0B20021EEE75946FFF7C6
:100E000028FA303107F8011D0028F7D1ADEB0700B3
:100E100000F1200B600702D524F4803401E04FF08C
:100E2000010ADA4502DDAAEB0B0000E00020824651
:100E300000EB0B0108980144A9EB01000A90E003C4
:100E400006D4DDE90D2321460A9800F04DF806444A
:100E50004FF0000908E009A911F80900DDE90D12B9
:100E6000904709F10109761C08998945F3DBE003F5
:100E70000CD5DDE90D2321460A9800F035F806442B
:100E800004E0DDE90D1230209047761CBAF1000134
:100E9000AAF1010AF5DC05E0DDE90D1217F8010BF6
:100EA0009047761CBBF10001ABF1010BF4DC0A9812
:100EB0002146DDE90D2300F005F806446D1C97E698
:100EC000092801002DE9F041044600251E46174679
:100ED000880404D405E039462020B0476D1C641E08
:100EE000F9D52846BDE8F0812DE9F04104460025FA
:100EF0001E469046C80301D5302700E0202788040D
:100F000004D505E041463846B0476D1C641EF9D54E
:100F10002846BDE8F0810A68531C0B6010707047CA
:100F20000349086000BF024909680029FBD17047E6
:100F3000080000200448006820B103480068401EF3
:100F4000014908607047000008000020F0B5034622
:100F500000224FF0E02675690F4E36680F4FB6FB42
:100F6000F7F606FB03F44FF0E026B16910E04FF00E
:100F7000E026B06988420BD0884202D20E1A324471
:100F800002E02E1A0E4432440146A24200D300E091
:100F9000EDE700BFF0BD00000000002040420F0060
:100FA0001FB54FF4E06000F057FC40F2026000F023
:100FB00053FC40F2036000F04FFC01211C4800F09C
:100FC00027F94FF400430322042140F2026000F0AD
:100FD000C0F808230322042140F2036000F0B9F8AE
:100FE0004FF0804000F006FF0020ADF80000ADF8A3
:100FF0000200ADF804004FF6FF7002900020ADF83B
:101000000C008DF80E0069464FF0804000F068FF3C
:10101000022300221946580700F0E5FF4FF08040F8
:1010200000F004FD4FF0804000F052FF1FBD0000B3
:10103000000318001FB540F2017000F00DFC40F2F3
:10104000036000F009FC40F2036000F005FC0121A0
:10105000194800F0DDF810230322042140F2036058
:1010600000F077F820230322042140F2036000F00F
:1010700070F8124800F0BEFE0020ADF80000ADF898
:101080000200ADF804004FF6FF7002900020ADF8AA
:101090000C008DF80E006946084800F021FF02237D
:1010A00000221946054800F09EFF044800F0BEFCEF
:1010B000024800F00DFF1FBD00081A0000040040A8
:1010C0001FB540F2027000F0C7FB40F2036000F071
:1010D000C3FB40F2036000F0BFFB40230322042166
:1010E00040F2036000F035F880230322042140F22F
:1010F000036000F02EF8114800F07CFE0020ADF8EF
:101100000000ADF80200ADF804004FF6FF70029049
:101110000020ADF80C008DF80E006946074800F07D
:10112000DFFE022300221946044800F05CFF03485A
:1011300000F07CFC014800F0CBFE1FBD0008004021
:1011400041617047016170470AB1016100E041618E
:101150007047F0B5044616460025002201F00F0541
:1011600001F0100707B1354300201EE0012787403A
:101170001F40C7B122684FEA800C0F2707FA0CF70F
:10118000BA43870005FA07F73A43282904D1012713
:1011900087401F40676105E0482903D10127874048
:1011A0001F4027612260471CB8B20828DED3082000
:1011B00022E0012787401F40E7B16268A0F10807DD
:1011C0004FEA870C0F2707FA0CF7BA43A0F108077C
:1011D000BF0005FA07F73A43282904D101278740C1
:1011E0001F40676105E0482903D1012787401F4060
:1011F00027616260471CB8B21028DAD3F0BD0246FE
:101200009068084008B1012070470020FCE700000A
:10121000F0B50A46002300240021002500F0004616
:10122000B6F1004F02D11D4EF16901E01B4E71680D
:10123000C0F3034583B200F44016B6F5401F08D151
:1012400021F07061154E766826F07066134F7E604F
:1012500012E000F48016B6F5801F06D1032606FAC8
:1012600005F4A14341F0706106E0460D360103FA32
:1012700006F6B14341F0706122B1460D360103FA22
:1012800006F6314300F00046B6F1004F02D1034E9E
:10129000F16101E0014E7160F0BD0000000001400D
:1012A00010B540F2036000F0D7FA012303220421B5
:1012B0001648FFF74EFF40F2036000F0CDFA02231C
:1012C000032204211148FFF744FF40F2036000F0BD
:1012D000C3FA0423032219460C48FFF73AFF40F2F1
:1012E000036000F0B9FA4FF40063032204210848B8
:1012F000FFF72FFF40F2026000F0AEFA4FF4805388
:10130000032204210248FFF724FF10BD000C014016
:101310000008014010B540F2036000F09DFA4FF460
:101320000043032210210448FFF713FF4FF400414C
:101330000148FFF707FF10BD000C014010B54FF446
:1013400000410648FFF75BFFC0F10100C4B222462E
:101350004FF400410148FFF7F7FE10BD000C0140BB
:1013600000E000BF011EA0F10100FAD170470000AB
:101370009CB000F033FB002000F062FA00F02EFB7E
:101380004FF4C06000F068FAFFF7C4FFFFF788FF72
:10139000FFF7F4F8C820FFF7C3FDFFF7D3F800F01C
:1013A0008BFAFFF771F80025002005900690079052
:1013B000089010274FF001084FF4FA7940F2DC5AF8
:1013C00054464FF4E16BFFF721FBFFF7E9FDFFF710
:1013D00031FEFFF775FE0020049003900290002676
:1013E00000F0FCFA002000F02BFA00F0F7FA4FF4BE
:1013F000C06000F031FAFFF78DFFFFF751FFFFF7F4
:10140000BDF8C820FFF78CFDFFF79CF8FFF79CFBA9
:10141000FFF7B4F8C1A200210A20FFF757F9052011
:10142000FFF77EFD79E1FEF787FF86B2FFF786FFC3
:101430000020FFF7FDF98DF86C000120FFF7F8F9A7
:101440008DF86D000220FFF7F3F98DF86E00032090
:10145000FFF7EEF98DF86F009DF86F009DF86E10A4
:10146000CDE900109DF86D309DF86C20AFA116A855
:10147000FFF78CFBFFF762FFAFA201210020FFF70F
:1014800025F94FF08040FEF747FF0490ADA109A871
:10149000049AFFF77BFB09AA03210020FFF716F946
:1014A000AA48FEF739FF0390A9A109A8039AFFF7FC
:1014B0006DFB09AA04210020FFF708F9A648FEF7F2
:1014C0002BFF0290A5A109A8029AFFF75FFB09AACA
:1014D00005210020FFF7FAF89DF86D0001280BD0D8
:1014E0009DF86E00012807D09DF86C00012803D0FC
:1014F0009DF86F00012801D14FF00008BE4201DCC9
:10150000012E7DD1B8F1000FFBD19DF86D000128AF
:101510001CD19DF86E00012818D19DF86C009DF833
:101520006F10884212D125462A4669420020FEF7F4
:1015300059FF9DF86C0005909DF86D0006909DF890
:101540006E0007909DF86F000890C9E09DF86C0050
:1015500001281CD19DF86D00012818D19DF86E005E
:10156000012814D19DF86F0088B9524661420020CD
:10157000FEF738FF9DF86C0005909DF86D00069011
:101580009DF86E0007909DF86F000890A8E09DF808
:101590006C00F0B99DF86D0001281AD19DF86E001D
:1015A000012816D19DF86F00012812D12246CAF1F8
:1015B00000010020FEF716FF9DF86C0005909DF8D5
:1015C0006D0006909DF86E0007909DF86F000890E2
:1015D00086E09DF86C0001281AD19DF86E00B8B91C
:1015E0009DF86F00A0B94A46CBF100010020FEF73C
:1015F000F9FE9DF86C0005909DF86D00069000E0E6
:1016000053E09DF86E0007909DF86F00089067E02A
:101610009DF86C00D0B99DF86D00B8B99DF86F00C9
:10162000012813D10BF59672C9F100010020FEF7D5
:10163000D9FE9DF86C0005909DF86D0006909DF810
:101640006E0007909DF86F00089049E00698012809
:1016500002D10798012805D00598012805D10898DE
:10166000012802D14FF001083AE00598012808D17D
:10167000089830B93B4D2A4629462846FEF7B2FE67
:101680002EE00898012809D1059838B94FF47A75E9
:101690002A4629462846FEF7A5FE21E0314D2A4676
:1016A00029462846FEF79EFE1AE0BE4201DC012EC6
:1016B00009D1B8F1010F06D125462A46694200201A
:1016C000FEF790FE0CE0BE420ADA4FF00108254D0D
:1016D0002A4629462846FEF785FE9620FFF720FC7D
:1016E0000498A8B9039898B9029888B925466A421F
:1016F00029460020FEF776FE4FF47A70FFF710FCC3
:101700002A4629462846FEF76DFE6420FFF708FCAE
:10171000FFF714FE0A20FFF703FC84E65465737498
:101720002048435352303420000000002564202517
:10173000642025642025640054494D5F546573740A
:101740002E00000045313A253464000000040040BA
:1017500045323A25346400000008004045333A25FC
:101760003464000018FCFFFF2DE9F04103460D46EC
:10177000164600240027A0462448006800F4E060D4
:10178000B0F5A06F15D006DCB0F5407F18D0B0F5ED
:10179000806F19D110E0B0F5C06F06D0B0F5E06FE2
:1017A00012D100274FF0040815E001274FF003087D
:1017B00011E00227B8460EE003274FF001080AE0C7
:1017C00004274FF0000806E04FF4A06000F022F874
:1017D0000227B84600BF00BFC7F1040005FA00F4B5
:1017E000C8F104010F20C8403040044324010848D8
:1017F000C45403F01F01012088405911890001F1F0
:10180000E021C1F80001BDE8F08100000CED00E02E
:1018100000E400E002490143024A11607047000001
:101820000000FA050CED00E0034A0A400243034BB6
:101830001A60BFF34F8F704780FFFF1F08ED00E075
:10184000044A516821F0F00141EA0002014B5A605C
:101850007047000000100240064A02EB9011096830
:1018600000F01F0301229A401143024B03EB901238
:101870001160704700100240064A02EB901109689F
:1018800000F01F0301229A409143024B03EB901298
:101890001160704700100240064A02EB901109687F
:1018A00000F01F0301229A401143024B03EB9012F8
:1018B000116070470010024010B540F20260FFF75F
:1018C000CBFF1023032204211048FFF742FC40F213
:1018D0000260FFF7C1FF8023032204210B48FFF7BA
:1018E00038FC40F20260FFF7B7FF402303220421D7
:1018F0000648FFF72EFC40F20260FFF7ADFF202301
:10190000032204210148FFF724FC10BD0008014018
:10191000002000212C4A126842F480322A4B1A60BF
:1019200000BF401C284A126802F4003119B94FF672
:10193000FF729042F5D1244A126802F400320AB9CB
:1019400000BFFEE7204A52681F4B5A601A46526891
:101950005A601A46526842F480625A601A465268C7
:1019600022F440325A601A46526842F440325A60B9
:101970001A465268154B1A40134B5A601A46526861
:10198000134B1A43104B5A601A46126842F0807289
:101990001A6000BF0C4A126802F00072002AF9D0E7
:1019A000094A526822F00302074B5A601A465268ED
:1019B00042F002025A6000BF034A526802F00C0271
:1019C000082AF9D17047000000100240FFFFC3F75A
:1019D0000000040810B5FFF79BFF10BD10B51248BA
:1019E00000684FF47A71B0FBF1F4601EB0F1807FB3
:1019F00001D301200FE0601E4FF0E02148610F216C
:101A00004FF0FF30FEF78AFD00204FF0E0218861A3
:101A100007200861002008B100BFFEE70021481E32
:101A2000FEF77CFD10BD000000000020016841F0C1
:101A3000800101607047000010B531B101293FD02D
:101A400002297DD003297CD1BFE0036A23F0010382
:101A50000362836923F003038361036A14882343C9
:101A60000362036A23F002030362036A9488234338
:101A700003626A4B984202D0694B98421FD1036AB5
:101A800023F004030362036A548823430362036A56
:101A900023F008030362036AD48823430362436884
:101AA00023F480734360436814892343436043688D
:101AB00023F4007343604368548923434360ABE0DD
:101AC000036A23F010030362836923F44073836184
:101AD000036A148843EA04130362036A23F02003B1
:101AE0000362036A948843EA041303624B4B9842EF
:101AF00002D04B4B984226D1036A23F04003036285
:101B0000036A548843EA04130362036A23F08003E0
:101B10000362036AD48843EA04130362436823F42C
:101B2000806343604368148943EA840343604368E5
:101B300023F4006343604368548943EA840301E06B
:101B400002E068E0436067E0036A23F480730362A5
:101B5000C36923F00303C361036A148843EA0423BF
:101B60000362036A23F400730362036A948843EAFE
:101B700004230362294B984202D0294B984223D177
:101B8000036A23F480630362036A548843EA0423EC
:101B90000362036A23F400630362036AD48843EA9E
:101BA00004230362436823F4805343604368148929
:101BB00043EA04134360436823F4005343604368DB
:101BC000548943EA0413436026E0036A23F48053F4
:101BD0000362C36923F44073C361036A148843EA50
:101BE00004330362036A23F400530362036A948894
:101BF00043EA04330362094B984202D0084B9842EF
:101C000008D1436823F4804343604368148943EA5E
:101C10008413436000E000BF00BF10BD002C0140F2
:101C20000034014031B101290CD0022913D003291D
:101C300022D118E0836923F0700383618369134321
:101C400083611AE0836923F4E0438361836943EA93
:101C50000223836111E0C36923F07003C361C36988
:101C60001343C36109E0C36923F4E043C361C3695B
:101C700043EA0223C36100E000BF00BF704731B1F7
:101C8000012906D0022906D0032908D105E04263C4
:101C900006E0826304E0C26302E0026400E000BF89
:101CA00000BF704731B101290CD0022913D003299C
:101CB00022D118E0836923F0080383618369134309
:101CC00083611AE0836923F400638361836943EAD3
:101CD0000223836111E0C36923F00803C361C36970
:101CE0001343C36109E0C36923F40063C361C3699B
:101CF00043EA0223C36100E000BF00BF7047000059
:101D000000B587B040F20B60FFF7A6FD374800F042
:101D100071F80020ADF80000ADF80200ADF8040045
:101D200041F61F4002900020ADF80C008DF80E0027
:101D300069462E4800F0D4F80020ADF814000120C8
:101D4000ADF810000020ADF81600ADF81200ADF8A7
:101D50001800ADF81A0004AA00212448FFF76CFE11
:101D600004AA01212148FFF767FE04AA02211F48A7
:101D7000FFF762FE40F2F31200211C48FFF77FFFDD
:101D8000602200211948FFF74DFF00221146174835
:101D9000FFF788FF40F2F31201211448FFF76FFFAD
:101DA000602201211148FFF73DFF002201210F4869
:101DB000FFF778FF40F2F31202210C48FFF75FFFB4
:101DC000602202210948FFF72DFF00220221074867
:101DD000FFF768FF0548FFF729FE0121034800F0DF
:101DE000F6F8024800F074F807B000BD002C01407E
:101DF0004162704710B504463349601A8C4244D0A2
:101E00000CDCB4F1804F1CD03048204410B3B0F546
:101E1000806F28D0B0F5006F52D12DE0B0F5806F03
:101E20003CD0B0F58E3F03D0B0F5923F48D13EE0B4
:101E300040F20B30FFF730FD40F20B30FFF71CFD96
:101E40003FE04FF48060FFF727FD4FF48060FFF71D
:101E500013FD36E040F20140FFF71EFD40F2014065
:101E6000FFF70AFD2DE040F20240FFF715FD40F2BA
:101E70000240FFF701FD24E040F20340FFF70CFDB4
:101E800040F20340FFF7F8FC1BE040F20440FFF78C
:101E900003FD40F20440FFF7EFFC12E040F2054082
:101EA000FFF7FAFC40F20540FFF7E6FC09E040F2DC
:101EB0000D30FFF7F1FC40F20D30FFF7DDFC00E0E4
:101EC00000BF00BF10BD00000010004000FCFFBFBD
:101ED000016841F0010101607047CA430261704727
:101EE0000A888262294A904220D0B0F1804F1DD0EA
:101EF000274A90421AD0274A904217D0264A904249
:101F000014D0264A904211D0254A90420ED0254A3C
:101F100090420BD0244A904208D0244A904205D0E7
:101F2000234A904202D0234A90420FD1026822F005
:101F30007002026002688B7803F060031A4302604B
:101F400002680B7903F010031A4302608A68C262C8
:101F5000194A90420CD0194A904209D0026822F4E2
:101F60004072026002688B8903F440731A43026076
:101F7000064A904202D0094A904201D18A7B02630C
:101F8000426942F00102426170470000002C0140AA
:101F90000004004000080040000C004000340140F4
:101FA000004C014000500140005401400018004026
:101FB000001C0040002000400010004000140040C1
:101FC000C2680A43C2607047CA4302617047012970
:101FD00004D1426C42F40042426403E0426C22F4B9
:101FE00000424264704730B5846824F0070484607E
:101FF00084680C438460846940F20335AC43846197
:10200000846940F201152C438461046A24F00A04B7
:102010000462046A24F0A0040462046A42EA03151C
:102020002C43046230BD00210180418081804FF645
:10203000FF7181600021818181737047014648688A
:10204000C0F308007047C1F308024260704710B542
:10205000024602EB9110006801F01F040123A34027
:10206000184008B1012010BD0020FCE710B5C1F3F5
:102070008912825801F01F040123A3409A43C1F33F
:102080008913C25010BD70B5024600230024C1F36D
:102090008910105801F01F060125B54000EA05031C
:1020A00002EB91500068C1F304460125B54000EAF7
:1020B000050414B10BB1012070BD0020FCE7000045
:1020C000000000000000002F0000000007000700D3
:1020D00000147F147F1400242A7F2A1200626408EF
:1020E000132300364955225000000503000000006C
:1020F0001C224100000041221C000014083E08146C
:102100000008083E0808000000A060000008080859
:102110000808000060600000002010080402003E73
:102120005149453E0000427F40000042615149460E
:10213000002141454B31001814127F1000274545FE
:102140004539003C4A494930000171090503003610
:102150004949493600064949291E00003636000023
:102160000000563600000008142241000014141428
:102170001414000041221408000201510906003223
:102180004959513E007C1211127C007F4949493661
:10219000003E41414122007F4141221C007F4949CC
:1021A0004941007F09090901003E4149497A007F00
:1021B0000808087F0000417F4100002040413F01A6
:1021C000007F08142241007F40404040007F020C05
:1021D000027F007F0408107F003E4141413E007FA6
:1021E00009090906003E4151215E007F091929466F
:1021F0000046494949310001017F0101003F40404B
:10220000403F001F2040201F003F4038403F0063F8
:10221000140814630007087008070061514945431A
:1022200000007F41410000552A552A5500004141D8
:102230007F000004020102040040404040400000D2
:1022400001020400002054545478007F484444386C
:1022500000384444442000384444487F00385454F3
:10226000541800087E0901020018A4A4A47C007F71
:10227000080404780000447D4000004080847D0014
:10228000007F102844000000417F4000007C0418BB
:102290000478007C0804047800384444443800FC86
:1022A000242424180018242418FC007C08040408A2
:1022B00000485454542000043F444020003C404017
:1022C000207C001C2040201C003C4030403C00444E
:1022D00028102844001CA0A0A07C004464544C4456
:1022E0001414141414140000000000000000000076
:1022F000000000000000000000F8000000000000E6
:1023000000333000000000100C06100C0600000026
:1023100000000000000040C07840C0784000043F4A
:1023200004043F040400007088FC0830000000181A
:1023300020FF211E0000F008F000E018000000213E
:102340001C031E211E0000F00888700000001E21E2
:1023500023241927211010160E0000000000000091
:10236000000000000000000000E01804020000006F
:1023700000071820400000020418E00000000040A0
:10238000201807000000404080F08040400002021A
:10239000010F01020200000000F000000000010136
:1023A000011F01010100000000000000000080B0DA
:1023B00070000000000000000000000000000001AC
:1023C00001010101010100000000000000000030D7
:1023D0003000000000000000000080601804006071
:1023E00018060100000000E010080810E000000FCF
:1023F000102020100F00001010F800000000002036
:10240000203F20200000007008080888700000307D
:102410002824222130000030088888483000001825
:10242000202020110E000000C02010F8000000073E
:102430000424243F240000F80888880808000019B4
:10244000212020110E0000E0108888180000000FE5
:10245000112020110E0000380808C83808000000BC
:10246000003F000000000070880808887000001C11
:10247000222121221C0000E010080810E0000000CA
:10248000312222110F00000000C0C0000000000037
:10249000003030000000000000800000000000005C
:1024A0008060000000000000804020100800000153
:1024B0000204081020004040404040404000040416
:1024C00004040404040000081020408000000020E0
:1024D000100804020100007048080808F00000001D
:1024E000003036010000C030C828E810E0000718AE
:1024F000272423140B000000C038E0000000203C1B
:1025000023020227382008F8888888700000203FBE
:10251000202020110E00C0300808080838000718D5
:1025200020202010080008F808080810E000203FCC
:10253000202020100F0008F88888E8081000203FAD
:1025400020202320180008F88888E8081000203F81
:10255000200003000000C0300808083800000718F9
:102560002020221E020008F808000008F808203F7A
:10257000210101213F20000808F808080000002080
:10258000203F2020000000000808F8080800C08054
:1025900080807F00000008F888C028180800203FCD
:1025A00020012638200008F8080000000000203F25
:1025B00020202020300008F8F800F8F80800203F1C
:1025C000003F003F200008F830C00008F808203F16
:1025D000200007183F00E01008080810E0000F1066
:1025E000202020100F0008F808080808F000203FFD
:1025F000210101010000E01008080810E0000F1898
:10260000242438504F0008F8888888887000203FBC
:102610002000030C302000708808080838000038BB
:10262000202121221C00180808F8080818000000C2
:10263000203F2000000008F808000008F808001FEC
:10264000202020201F000878880000C838080000DB
:1026500007380E010000F80800F80008F800033CF5
:102660000700073C030008186880806818082030BD
:102670002C03032C30200838C800C838080000009C
:10268000203F2000000010080808C8380800203843
:10269000262120201800000000FE02020200000097
:1026A000007F40404000000C30C0000000000000EF
:1026B00000010638C00000020202FE0000000040D7
:1026C00040407F00000000000402020204000000FD
:1026D00000000000000000000000000000008080FA
:1026E00080808080808000020204000000000000E2
:1026F00000000000000000008080808000000019C1
:10270000242222223F2008F8008080000000003FA1
:10271000112020110E000000008080800000000EBB
:10272000112020201100000000808088F800000E99
:10273000112020103F200000808080800000001FBA
:10274000222222221300008080F08888881800202E
:10275000203F202000000000808080808000006BEF
:1027600094949493600008F8008080800000203FDB
:10277000210000203F2000809898000000000020E9
:10278000203F20200000000000809898000000C03A
:102790008080807F000008F8000080808000203F5B
:1027A00024022D302000000808F80000000000205E
:1027B000203F202000008080808080808000203F9B
:1027C00020003F20003F8080008080800000203F6C
:1027D000210000203F200000808080800000001F3A
:1027E000202020201F00808000808000000080FFCB
:1027F000A12020110E000000008080808000000ECB
:10280000112020A0FF808080800080808000202018
:102810003F21200001000000808080808000003384
:10282000242424241900008080E08080000000001F
:10283000001F202000008080000000808000001F1A
:10284000202020103F2080808000008080800001B8
:102850000E300806010080800080008080800F30EC
:102860000C030C300F00008080008080800000206E
:10287000312E0E3120008080800000808080808199
:102880008E7018060100008080808080800000210A
:10289000302C2221300000000000807C0202000069
:1028A0000000003F404000000000FF00000000006A
:1028B0000000FF0000000002027C800000000040D9
:1028C000403F000000000006010102020404000075
:1028D0000000000000000000F828000800000020B0
:1028E0002C000000B40B0008242900082C00002054
:1028F000A4040000C40B000800A24A040000000069
:102900000000000048454C4C4F574F524C44000AC1
:102910000A000000000000000000000000000000AD
:0429200000000000B3
:0400000508000105E9
:00000001FF
