:020000040800F2
:10000000380400201D010008A10100089901000822
:100010009D01000891010008790600080000000019
:10002000000000000000000000000000ED040008D7
:10003000950100080000000089040008F104000890
:1000400037010008370100083701000837010008B0
:1000500037010008370100083701000837010008A0
:100060003701000837010008370100083701000890
:100070003701000837010008370100083701000880
:100080003701000837010008370100083701000870
:100090003701000837010008370100083701000860
:1000A00037010008CD0500083701000837010008B6
:1000B0003701000837010008370100083701000840
:1000C0003701000837010008370100083701000830
:1000D0003701000837010008E10500083701000872
:1000E0003701000837010008370100080000000050
:1000F0000000000000000000000000000000000000
:1001000037010008DFF810D000F030F80048004751
:10011000E9090008AFF30080380400200648804752
:1001200006480047FEE7FEE7FEE7FEE7FEE7FEE7DC
:10013000FEE7FEE7FEE7FEE7F90400080501000818
:1001400030B50B46014600202022012409E021FAA7
:1001500002F59D4205D303FA02F5491B04FA02F5A4
:100160002844151EA2F10102F1DC30BD064C074DFA
:1001700006E0E06840F0010394E807009847103477
:10018000AC42F6D3FFF7C2FFCC140008EC14000811
:1001900000BFFEE700BFFEE700BFFEE700BFFEE7CF
:1001A00000BFFEE710B5002807DA0A07140E054A5B
:1001B00000F00F031B1FD45403E00A07130E024A7A
:1001C000135410BD18ED00E000E400E030B5002449
:1001D00015E004F1B001C8B200F0F6F8012000F01B
:1001E000F3F8102000F0F0F8002504E0002000F003
:1001F0001BF9681CC5B2842DF8DB601CC4B2082C46
:10020000E7DB30BD10B540F2046000F053FC4FF462
:10021000004303221021484800F01FFB4FF4004028
:1002200045494861431003221021434800F015FB63
:100230004FF48040404948614310032210213E485A
:1002400000F00BFB4FF400503B49486140F2026064
:1002500000F030FC012303221021384800F0FDFAA1
:100260000120364914310860C00333490861801009
:100270004861322000F0D6FA4FF400502E49086150
:10028000AE2000F0A1F8002000F09EF8102000F051
:100290009BF8402000F098F8812000F095F8CF20DE
:1002A00000F092F8A12000F08FF8C82000F08CF840
:1002B000A62000F089F8A82000F086F83F2000F082
:1002C00083F8D32000F080F8002000F07DF8D520DE
:1002D00000F07AF8802000F077F8D92000F074F868
:1002E000F12000F071F8DA2000F06EF8122000F032
:1002F0006BF8DB2000F068F8402000F065F8202063
:1003000000F062F8022000F05FF88D2000F05CF849
:10031000142000F059F8A42000F056F8A62000F0B0
:1003200053F8AF2000F050F8FFF750FF00210846C7
:1003300000F038F810BD0000001001400008014036
:100340002DE9F0430446884615464FF00009002683
:10035000002720E0E85D203800F0FF097E2C04DD56
:10036000002408F1010000F0FF084146204600F09B
:1003700019F8002609E009EB4901094A02EB41019D
:10038000885D00F051F8701CC6B2062EF3DBA01D8C
:10039000C4B2781CC7B2E85D0028DBD1BDE8F083A9
:1003A000B20C000830B504460D4605F1B001C8B2E4
:1003B00000F00AF8102141EA141000F005F804F0EA
:1003C0000F0000F001F830BD10B5034608240120ED
:1003D00013490860C00313494861012000F0FCFA8A
:1003E00018E003F0800020B14FF480400D4908610F
:1003F00003E04FF480400B4948614FF40040094945
:100400000861012000F0E8FA4FF400400549486116
:100410005806030E201EA4F10101CCB2E1D110BD9B
:10042000140801400010014010B5034608240120C3
:1004300013490860C00313494861012000F0CCFA59
:1004400018E003F0800020B14FF480400D490861AE
:1004500003E04FF480400B4948614FF400400949E4
:100460000861012000F0B8FA4FF4004005494861E6
:100470005806030E201EA4F10101CCB2E1D110BD3B
:10048000100801400010014000BFFEE710B504460F
:1004900034B1012C0CD0022C12D0032C20D117E047
:1004A0001021114800F02FFA08B9012010BD17E003
:1004B00080210D4800F027FA08B90120F6E70FE087
:1004C0004021094800F01FFA08B90120EEE707E0D3
:1004D0002021054800F017FA08B90120E6E700BF1F
:1004E00000BF0020E2E700000008014000BFFEE777
:1004F00010B500F0A1F910BD08B53048006840F013
:1005000001002E49086000BF2C48006800F002007E
:100510000028F9D000BF2948406840F080002749F2
:1005200048600020009002E00098401C0090009875
:100530005028F9D32148406840F090001F49486096
:100540000020009002E00098401C00900098502885
:10055000F9D300BF1948406820F0030017494860EC
:100560000846006816490840144908600846406873
:10057000144908401149486008460068104908407D
:100580000E4908600846006820F48020086008468C
:1005900040680D4908400949486008460068084914
:1005A0000840064908604FF41F00886000F020FBF7
:1005B00000214FF0006000F065FA08BD0010024015
:1005C000FFFFF6FE0C00FFE8FFFF00F710B501216A
:1005D000024800F039FB00F0EDF910BD002C01409D
:1005E00010B51C491C4800F048FBB0B11A4800F097
:1005F0002EFBC1B2194802880088401C174B188096
:10060000174881541846008816490978884204D151
:1006100040F20531104800F023FB13490E4800F06A
:100620002CFBA8B1114802780078401C0F4B1870C1
:100630000F48815C084800F00FFB0C4800780D491A
:100640000978884204D140F20731034800F008FBE2
:1006500010BD000005030500004400401600002006
:1006600018000020140000200703070015000020D8
:10067000080000201300002000BFFEE70FB4084B65
:1006800010B504A902AA039800F01CF8044602A9B8
:10069000002000F0C1F8204610BC5DF814FB0000FB
:1006A0001908000802E008C8121F08C1002AFAD180
:1006B00070477047002001E001C1121F002AFBD1E2
:1006C000704700002DE9FF4F89B09B460446002586
:1006D00006E025280BD05A460B999047641C6D1CE8
:1006E00020780028F5D10DB02846BDE8F08F00270E
:1006F000B8460122474900E0074314F8013F203B78
:1007000002FA03F00842F7D120782E2819D114F804
:10071000010F47F004072A280ED06FF02F0220782F
:10072000A0F1300109290CD808EB880102EB410146
:1007300000EB0108641CF2E70A98641C50F8048B73
:100740000A9020780028CED0642808D0692806D0E6
:1007500075281ED05A460B9990476D1C58E00A998F
:100760004FF00A0901C90A91002802DA40422D21FE
:1007700002E0390504D52B218DF82010012103E07A
:10078000F90704D02021F7E78A4608AE0DE00021E2
:10079000FAE70A994FF00A0901C90A91F7E74946B1
:1007A000FFF7CEFC303106F8011D0028F7D1ADEB84
:1007B000060000F12009780701D44FF00108C84570
:1007C00002DDA8EB090000E000208046002706E0DB
:1007D00008A85A46C05D0B9990476D1C7F1C574571
:1007E000F6DB04E030205A460B9990476D1CB8F1B7
:1007F0000001A8F10108F5DC05E016F8010B5A46E6
:100800000B9990476D1CB9F10001A9F10109F4DCC5
:10081000641C65E7092801000A68531C0B6010700E
:10082000704700000349086000BF024909680029B9
:10083000FBD17047040000200448006820B1034841
:100840000068401E01490860704700000400002055
:100850000AB1016100E041617047F0B504461646F7
:100860000025002201F00F0501F0100707B1354304
:1008700000201EE0012787401F40C7B122684FEAD1
:10088000800C0F2707FA0CF7BA43870005FA07F721
:100890003A43282904D1012787401F40676105E0BA
:1008A000482903D1012787401F4027612260471C48
:1008B000B8B20828DED3082022E0012787401F4075
:1008C000E7B16268A0F108074FEA870C0F2707FA23
:1008D0000CF7BA43A0F10807BF0005FA07F73A433F
:1008E000282904D1012787401F40676105E0482976
:1008F00003D1012787401F4027616260471CB8B2BF
:100900001028DAD3F0BD02469068084008B10120F3
:1009100070470020FCE7000010B540F2036000F0D3
:10092000C9F80123032204211648FFF796FF40F27D
:10093000036000F0BFF80223032204211148FFF7EF
:100940008CFF40F2036000F0B5F80423032219463F
:100950000C48FFF782FF40F2036000F0ABF84FF461
:100960000063032204210848FFF777FF40F202608A
:1009700000F0A0F84FF48053032204210248FFF74F
:100980006CFF10BD000C01400008014010B540F2A2
:10099000036000F08FF84FF4004303221021044855
:1009A000FFF75BFF4FF4004001491431086010BDB0
:1009B000000C014010B54FF400410648FFF7A3FFBB
:1009C000C0F10100C4B222464FF400410148FFF7D4
:1009D0003FFF10BD000C014000E000BF011EA0F170
:1009E0000100FAD17047000088B000F005F900203E
:1009F00000F054F800F000F94FF4C06000F05AF82D
:100A0000FFF7C4FFFFF788FFFFF7FCFBC820FFF7E5
:100A100009FFFFF7DBFB00F05DF82BE00020FFF79C
:100A200035FD8DF81C000120FFF730FD8DF81D000D
:100A30000220FFF72BFD8DF81E000320FFF726FD97
:100A40008DF81F009DF81F009DF81E10CDE90010C5
:100A50009DF81D309DF81C2007A102A8FFF70EFE8F
:100A600002AA02210020FFF76BFCFFF7A3FFC820BA
:100A7000FFF7D8FED2E70000256420256420256416
:100A800020256400034A0A400243034B1A60BFF367
:100A90004F8F704780FFFF1F08ED00E0044A516848
:100AA00021F0F00141EA0002014B5A60704700005A
:100AB00000100240064A02EB9011096800F01F0383
:100AC00001229A401143024B03EB901211607047D0
:100AD0000010024010B540F20260FFF7EBFF102358
:100AE000032204211048FFF7B8FE40F20260FFF72E
:100AF000E1FF8023032204210B48FFF7AEFE40F202
:100B00000260FFF7D7FF4023032204210648FFF7C6
:100B1000A4FE40F20260FFF7CDFF20230322042150
:100B20000148FFF79AFE10BD000801400020002197
:100B30002C4A126842F480322A4B1A6000BF401CD3
:100B4000284A126802F4003119B94FF6FF72904238
:100B5000F5D1244A126802F400320AB900BFFEE758
:100B6000204A52681F4B5A601A4652685A601A4609
:100B7000526842F480625A601A46526822F4403247
:100B80005A601A46526842F440325A601A46526815
:100B9000154B1A40134B5A601A465268134B1A43AE
:100BA000104B5A601A46126842F080721A6000BFF9
:100BB0000C4A126802F00072002AF9D0094A526801
:100BC00022F00302074B5A601A46526842F00202B2
:100BD0005A6000BF034A526802F00C02082AF9D199
:100BE0007047000000100240FFFFC3F70000040838
:100BF00010B5FFF79BFF10BD10B5124800684FF409
:100C00007A71B0FBF1F4601EB0F1807F01D3012056
:100C10000FE0601E4FF0E02148610F214FF0FF30E0
:100C2000FFF7C0FA00204FF0E0218861072008613B
:100C3000002008B100BFFEE70021481EFFF7B2FA0E
:100C400010BD000000000020CA4302617047014649
:100C50004868C0F308007047C1F30802426070475B
:100C600010B5C1F38912825801F01F040123A3407B
:100C70009A43C1F38913C25010BD70B502460023D8
:100C80000024C1F38910105801F01F060125B5405A
:100C900000EA050302EB91500068C1F30446012508
:100CA000B54000EA050414B10BB1012070BD00206D
:100CB000FCE70000000000000000002F0000000022
:100CC0000700070000147F147F1400242A7F2A12D3
:100CD00000626408132300364955225000000503C2
:100CE000000000001C224100000041221C000014F2
:100CF000083E08140008083E0808000000A0600034
:100D000000080808080800006060000000201008C3
:100D10000402003E5149453E0000427F400000422F
:100D200061514946002141454B31001814127F1092
:100D3000002745454539003C4A49493000017109C1
:100D4000050300364949493600064949291E000075
:100D5000363600000000563600000008142241001C
:100D6000001414141414000041221408000201514C
:100D7000090600324959513E007C1211127C007F55
:100D800049494936003E41414122007F4141221CF0
:100D9000007F49494941007F09090901003E414955
:100DA000497A007F0808087F0000417F4100002049
:100DB00040413F01007F08142241007F40404040F5
:100DC000007F020C027F007F0408107F003E41413B
:100DD000413E007F09090906003E4151215E007F26
:100DE000091929460046494949310001017F01019D
:100DF000003F4040403F001F2040201F003F403840
:100E0000403F00631408146300070870080700617E
:100E10005149454300007F41410000552A552A555C
:100E2000000041417F0000040201020400404040F4
:100E30004040000001020400002054545478007F18
:100E40004844443800384444442000384444487FEF
:100E500000385454541800087E0901020018A4A454
:100E6000A47C007F080404780000447D400000401A
:100E700080847D00007F102844000000417F4000F6
:100E8000007C04180478007C08040478003844448A
:100E9000443800FC242424180018242418FC007C66
:100EA0000804040800485454542000043F444020DF
:100EB000003C4040207C001C2040201C003C403076
:100EC000403C004428102844001CA0A0A07C004402
:100ED00064544C4414141414141400000000000052
:100EE00000000000000000000000000000F800000A
:100EF0000000000000333000000000100C06100C51
:100F00000600000000000000000040C07840C078EB
:100F10004000043F04043F040400007088FC0830D3
:100F20000000001820FF211E0000F008F000E0186B
:100F3000000000211C031E211E0000F00888700024
:100F400000001E2123241927211010160E00000076
:100F500000000000000000000000000000E0180495
:100F60000200000000071820400000020418E00002
:100F700000000040201807000000404080F0804042
:100F800040000202010F01020200000000F0000018
:100F900000000101011F010101000000000000002C
:100FA000000080B0700000000000000000000000A1
:100FB000000000010101010101010000000000002A
:100FC00000000030300000000000000000008060E1
:100FD0001804006018060100000000E01008081066
:100FE000E000000F102020100F00001010F800008B
:100FF00000000020203F2020000000700808088822
:1010000070000030282422213000003008888848F1
:1010100030000018202020110E000000C02010F821
:10102000000000070424243F240000F808888808F2
:1010300008000019212020110E0000E010888818F7
:101040000000000F112020110E0000380808C838D9
:1010500008000000003F00000000007088080888B9
:101060007000001C222121221C0000E01008081042
:10107000E0000000312222110F00000000C0C0007B
:101080000000000000303000000000000080000080
:101090000000000080600000000000008040201080
:1010A0000800000102040810200040404040404079
:1010B00040000404040404040400000810204080DC
:1010C0000000002010080402010000704808080811
:1010D000F0000000003036010000C030C828E810E1
:1010E000E0000718272423140B000000C038E0009C
:1010F0000000203C23020227382008F888888870E6
:101100000000203F202020110E00C03008080808F1
:101110003800071820202010080008F808080810D8
:10112000E000203F202020100F0008F88888E80801
:101130001000203F20202320180008F88888E808A5
:101140001000203F200003000000C03008080838CD
:10115000000007182020221E020008F808000008DE
:10116000F808203F210101213F20000808F8080865
:1011700000000020203F2020000000000808F808A0
:101180000800C08080807F00000008F888C0281810
:101190000800203F20012638200008F80800000041
:1011A0000000203F20202020300008F8F800F8F848
:1011B0000800203F003F003F200008F830C0000832
:1011C000F808203F200007183F00E010080808102A
:1011D000E0000F10202020100F0008F80808080871
:1011E000F000203F210101010000E0100808081074
:1011F000E0000F18242438504F0008F888888888A9
:101200007000203F2000030C302000708808080880
:1012100038000038202121221C00180808F808088E
:1012200018000000203F2000000008F80800000817
:10123000F808001F202020201F000878880000C820
:101240003808000007380E010000F80800F8000810
:10125000F800033C0700073C03000818688080681A
:10126000180820302C03032C30200838C800C83858
:1012700008000000203F2000000010080808C838BF
:1012800008002038262120201800000000FE02025D
:1012900002000000007F40404000000C30C0000011
:1012A0000000000000010638C00000020202FE003B
:1012B0000000004040407F000000000004020202E5
:1012C000040000000000000000000000000000001A
:1012D0000000808080808080808000020204000006
:1012E00000000000000000000000000080808080FE
:1012F00000000019242222223F2008F800808000EC
:101300000000003F112020110E00000000808080AE
:101310000000000E112020201100000000808088B5
:10132000F800000E112020103F20000080808080F7
:101330000000001F222222221300008080F08888F3
:1013400088180020203F202000000000808080803E
:101350008000006B94949493600008F80080808073
:101360000000203F210000203F20008098980000CE
:1013700000000020203F20200000000000809898FE
:10138000000000C08080807F000008F8000080809E
:101390008000203F24022D302000000808F80000C3
:1013A00000000020203F202000008080808080807E
:1013B0008000203F20003F20003F80800080808010
:1013C0000000203F210000203F200000808080801E
:1013D0000000001F202020201F008080008080004F
:1013E000000080FFA12020110E00000000808080FE
:1013F0008000000E112020A0FF808080800080806F
:10140000800020203F21200001000000808080809B
:1014100080000033242424241900008080E0808090
:1014200000000000001F20200000808000000080DD
:101430008000001F202020103F208080800000803E
:10144000808000010E30080601008080008000804E
:1014500080800F300C030C300F00008080008080F3
:1014600080000020312E0E3120008080800000801E
:10147000808080818E7018060100008080808080CE
:1014800080000021302C2221300000000000807CF0
:10149000020200000000003F404000000000FF008A
:1014A000000000000000FF0000000002027C80003D
:1014B00000000040403F0000000000060101020261
:1014C000040400000000000000000000EC1400080C
:1014D0000000002018000000A40600080415000801
:1014E0001800002020040000B406000800A24A04EE
:1014F0000000000048454C4C4F574F524C44000AE6
:041500000A000000DD
:0400000508000105E9
:00000001FF
