:020000040800F2
:10000000D80400201D010008F5020008B90100080D
:10001000BD01000891010008650E00080000000005
:10002000000000000000000000000000950600082D
:1000300095010008000000009106000899060008DC
:1000400037010008370100083701000837010008B0
:1000500037010008370100083701000837010008A0
:100060003701000837010008370100083701000890
:100070003701000837010008370100083701000880
:100080003701000837010008370100083701000870
:100090003701000837010008370100083701000860
:1000A00037010008DD0700083701000837010008A4
:1000B00037010008F1070008370100083701000880
:1000C0003701000837010008370100083701000830
:1000D0003701000837010008B50C00084D0D000875
:1000E0003701000837010008370100080000000050
:1000F0000000000000000000000000000000000000
:1001000037010008DFF810D000F030F80048004751
:10011000F9150008AFF30080D80400200648804796
:1001200006480047FEE7FEE7FEE7FEE7FEE7FEE7DC
:10013000FEE7FEE7FEE7FEE7A1060008050100086E
:1001400030B50B46014600202022012409E021FAA7
:1001500002F59D4205D303FA02F5491B04FA02F5A4
:100160002844151EA2F10102F1DC30BD064C074DFA
:1001700006E0E06840F0010394E807009847103477
:10018000AC42F6D3FFF7C2FF3C2B00085C2B000803
:1001900000BFFEE700BFFEE770B5054600246C6AAD
:1001A0000021284601F078FEB4F5004F02DBA4F5EB
:1001B0007F44FF3C204670BD00BFFEE700BFFEE766
:1001C00070B504460D461646002C0ADDA2B2002189
:1001D000224801F0A8FD4FF48051214801F0F4F8C5
:1001E0000AE0604282B200211C4801F09CFD4FF4FD
:1001F00080511B4801F0EAF8002D0ADDAAB2012166
:10020000164801F090FD4FF40051154801F0DCF85C
:100210000AE0684282B20121104801F084FD4FF4E7
:1002200000510F4801F0D2F8002E0ADDB2B20221CF
:100230000A4801F078FD4FF48041094801F0C4F804
:100240000AE0704282B20221044801F06CFD4FF4D2
:100250008041034801F0BAF870BD0000002C014055
:10026000000C014010B540F2036001F049FB4FF46F
:100270008053032210211D4801F0AFF84FF40053C2
:1002800003221021194801F0A8F84FF480430322FB
:100290001021164801F0A1F84FF480501349143191
:1002A0000860400008604000086040F2026001F011
:1002B00027FB4FF4C06001F023FB4FF4807303224F
:1002C00018210B4801F089F84FF40073032218211C
:1002D000074801F082F84FF4806303221821044894
:1002E00001F07BF801F060FD10BD0000000C014042
:1002F0000008014000BFFEE710B5002807DA0A0732
:10030000140E054A00F00F031B1FD45403E00A0724
:10031000130E024A135410BD18ED00E000E400E093
:1003200070B5002415E004F1B001C8B200F044F942
:10033000012000F041F9102000F03EF9002504E012
:10034000002000F06FF9681CC5B2842DF8DB601C3A
:10035000C4B2082CE7DB70BD10B540F2046001F0B8
:10036000CFFA40F2026001F0CBFA4FF400430322CF
:1003700010214B4801F031F84FF40041484801F09A
:1003800023F84FF4804303221021454801F025F85B
:100390004FF48041424801F017F84FF40053032214
:1003A00010213F4801F019F84FF400513C4801F08A
:1003B0000BF80123032210213A4801F00EF8012125
:1003C000384801F001F84FF40041354800F0FEFFD5
:1003D0004FF40051324800F0F7FF322000F00EFFDA
:1003E0004FF400512E4800F0F1FFAE2000F0E4F889
:1003F000002000F0E1F8102000F0DEF8402000F0CE
:10040000DBF8812000F0D8F8CF2000F0D5F8A1204B
:1004100000F0D2F8C82000F0CFF8A62000F0CCF809
:10042000A82000F0C9F83F2000F0C6F8D32000F063
:10043000C3F8002000F0C0F8D52000F0BDF88020FF
:1004400000F0BAF8D92000F0B7F8F12000F0B4F8C5
:10045000DA2000F0B1F8122000F0AEF8DB2000F056
:10046000ABF8402000F0A8F8202000F0A5F802200A
:1004700000F0A2F88D2000F09FF8142000F09CF806
:10048000A42000F099F8A62000F096F8AF2000F024
:1004900093F8FFF745FF0021084600F07BF810BDF8
:1004A00000100140000801402DE9F047044688464D
:1004B00015464FF000090026002720E0E85D2038AF
:1004C00000F0FF097E2C04DD002408F1010000F09B
:1004D000FF084146204600F05DF8002609E009EBE0
:1004E0004901094A02EB4101885D00F09BF8701C4C
:1004F000C6B2062EF3DBA01DC4B2781CC7B2E85DFD
:100500000028DBD1BDE8F087242300082DE9F0475F
:1005100006460F46904600250024A14631E018F813
:1005200009002038C5B2782E02DD0026781CC7B23B
:100530003946304600F02EF8002407E004EB0511A0
:10054000134A505C00F06EF8601CC4B2082CF5DB56
:10055000781CC1B2304600F01DF8002408E004EB1E
:10056000051108310A4A505C00F05CF8601CC4B206
:10057000082CF4DB06F10800C6B209F1010000F016
:10058000FF0918F809000028C9D1BDE8F08700006C
:100590004C25000870B504460D4605F1B001C8B2FF
:1005A00000F00AF8102141EA141000F005F804F0F8
:1005B0000F0000F001F870BD70B504460825012158
:1005C000164800F001FF2903154800F0FDFE012048
:1005D00001F00AF81CE004F0800028B14FF48041DB
:1005E0000F4800F0F3FE04E04FF480410C4800F0A7
:1005F000EBFE4FF400410A4800F0E8FE012000F055
:10060000F3FF4FF40041064800F0DEFE6006040EE2
:10061000281EA5F10101CDB2DDD170BD0008014059
:100620000010014070B5044608250121164800F06D
:10063000CDFE2903154800F0C7FE012000F0D4FFCD
:100640001CE004F0800028B14FF480410F4800F016
:10065000BDFE04E04FF480410C4800F0B5FE4FF4BD
:1006600000410A4800F0B2FE012000F0BDFF4FF447
:100670000041064800F0A8FE6006040E281EA5F101
:100680000101CDB2DDD170BD000801400010014074
:1006900000BFFEE700BFFEE710B500F0B9FD10BDDA
:1006A00008B53048006840F001002E49086000BFDE
:1006B0002C48006800F002000028F9D000BF29484B
:1006C000406840F08000274948600020009002E028
:1006D0000098401C009000985028F9D321484068A9
:1006E00040F090001F4948600020009002E0009810
:1006F000401C009000985028F9D300BF194840686A
:1007000020F0030017494860084600681649084071
:100710001449086008464068144908401149486077
:1007200008460068104908400E49086008460068FD
:1007300020F480200860084640680D4908400949B7
:1007400048600846006808490840064908604FF4B8
:100750001F00886001F092F900214FF0006001F065
:1007600025F808BD00100240FFFFF6FE0C00FFE870
:10077000FFFF00F77FB505460C4640F2017001F01F
:10078000BFF8154801F08AFB684601F0A0FC002084
:10079000ADF80200ADF80C00ADF804000295ADF81C
:1007A00000408DF80E0069460B4801F0EDFB012179
:1007B000094801F05DFC0121074801F055FC4FF4A8
:1007C000A06000F0E9FF012211461D2000F08EFF1D
:1007D000014801F0D1FB7FBD0004004010B50121AC
:1007E000024801F0CEFB00F0EDFE10BD002C0140F0
:1007F00010B50121044801F0C4FB04480068401C06
:100800000249086010BD0000000400400400002000
:1008100070B592B040F2DC544FF416754FF47A760E
:100820004FF4E13000F0B0FAF64800780090F64856
:100830000378F648F6A1026802A800F015FB02AAA8
:1008400004210020FFF762FEF44800682044F449C8
:1008500009684218F3A102A800F006FB02AA0221CF
:100860000020FFF753FE00F0ADFEE8480068342892
:1008700014D10020E9490860E9480068C830E84917
:1008800008600846006840F6C411884202DB08464A
:10089000E3490860DB480078DC490860DB48006811
:1008A00061280AD14FF4FA60DC490860D548007825
:1008B000D64908600020DA490860D4480068332827
:1008C0000FD1601B00F5AF726142D948FFF778FC89
:1008D000CE480078CB490870CC480078CA490870E7
:1008E0008EE1CA48006863280FD1A01B00F5AF72E3
:1008F0006142CF48FA38FFF763FCC4480078C14929
:1009000008703320C04908707AE1C0480068312877
:1009100016D1C3480068204400F5AF70BF4B1B6878
:10092000C2186042BE4B1B68C01ABC4B1B68C11A80
:100930000020FFF745FCB5480078B24908705FE138
:10094000B2480068322810D16042411904F5E172C2
:100950004FF4FA70FFF734FCAC480078A9490870EE
:10096000AA480078A84908704AE1A84800686228A7
:100970000FD16042811904F5E17240F2EE20FFF7D9
:100980001FFCA24800789F49087032209E490870D9
:1009900036E19E48006830282ED19B4800783328E5
:1009A0000CD1A44A11461046FFF70AFC30209749A3
:1009B0000860084600789349087021E19248007861
:1009C00032280CD1020111461046FFF7F9FB302006
:1009D0008E490860084600788A49087010E1954AF7
:1009E00011461046FFF7ECFB3020884908600846A6
:1009F00000788449087003E184480068362813D1E0
:100A00008748006800F2AA52854800684042A0F575
:100A10007A718948FFF7D4FB7C48007879490870DF
:100A2000322079490870EBE078480068372814D103
:100A30007B48006800F2AA52794800684042A0F55D
:100A40007A714FF4FA60FFF7BBFB704800786D498C
:100A5000087033206C490870D2E06C480068382870
:100A60001CD1A4F596706E4B1B68184400F5E1721A
:100A70006042A0F5FA706A4B1B68C01A6F4B1B6886
:100A8000C11A6E4800684042FFF79AFB5F48007841
:100A90005C49087033205C490870B1E05B4800682D
:100AA00039281AD104F5FA705D4B1B681844634B62
:100AB0001B68184400F5E172C4F59670584B1B682A
:100AC000C11A5E480068FFF77BFB504800784D492B
:100AD000087032204C49087092E04C480068352874
:100AE00047D14A48007847490870534A514200208C
:100AF000FFF766FBFA2000F081FB4FF4FA625142E7
:100B00000020FFF75DFBC82000F078FB3E4800782E
:100B100033280CD1474A11461046FFF751FB3020CD
:100B20003A49086008460078364908701CE03648A3
:100B3000007832280CD1020111461046FFF740FB25
:100B4000302032490860084600782E4908700BE0D2
:100B5000384A11461046FFF733FB30202B49086016
:100B600008460078274908704FF4C87000F046FB2B
:100B700046E02648006864280BD14FF4FA622D49FC
:100B8000C8392F48FFF71CFB4FF4FA7000F036FB12
:100B900036E01E48006865280BD14FF47A7226496A
:100BA00040F2DC50FFF70CFB4FF4FA7000F026FB2C
:100BB00026E016480068662809D1002220494842EC
:100BC000FFF7FEFA4FF4FA7000F018FB18E00F4838
:100BD000006867280AD140F2DC5200215042FFF73A
:100BE000EFFA4FF4FA7000F009FB09E007480078CB
:100BF000044908704FF4487211461046FFF7E0FAB6
:100C000012B070BD29000020280000202400002020
:100C100052443A2563202563202563002C000020E0
:100C20003400002073706565643A2025642000005C
:100C30000CFEFFFFE0FCFFFF30F8FFFF300000205C
:100C400024FAFFFF1FB540F2017000F059FE18486A
:100C500001F024F9684601F03AFA0020ADF80200EC
:100C6000ADF80C00ADF8040041F61F40029042F2CE
:100C70000F70ADF8000000208DF80E0069460C489A
:100C800001F082F901210A4801F0F2F90121084836
:100C900001F0EAF94FF4A06000F07EFD0122114658
:100CA0001D2000F023FD024801F066F91FBD000081
:100CB0000004004010B51C491C4801F0EFFAB0B127
:100CC0001A4801F057FAC1B2194802880088401C3E
:100CD000174B188017488154184600881649097820
:100CE000884204D140F20531104801F0BDFA1349A1
:100CF0000E4801F0D3FAA8B1114802780078401CE0
:100D00000F4B18700F48815C084801F038FA0C4806
:100D100000780D490978884204D140F20731034830
:100D200001F0A2FA10BD00000503050000440040D8
:100D30001A000020380000201800002007030700D8
:100D4000190000200C0000201700002010B50B49EE
:100D50000B4801F0A3FA80B1094801F00BFA0949E8
:100D6000087008460178064801F009FA00BF07211B
:100D7000034801F056FA0028F9D010BD050305001C
:100D8000004800402400002010B5044640F20360F3
:100D900000F0B6FD40F2127000F0B2FD4FF4806337
:100DA000032218211D4800F018FB4FF400630322B2
:100DB00004211A4800F011FB194801F0E5F9214619
:100DC000174801F08FF90021154801F0A3FA00211E
:100DD000134801F08FFA0021114801F07BFA00213D
:100DE0000F4801F037FA00210D4801F029FA0821D7
:100DF0000B4801F087FA0421094801F073FA08480A
:100E000001F00AFA00221146272000F06FFC40F2A0
:100E10000531034801F035FA10BD0000000C014017
:100E20000048004010B540F2036000F069FD4FF447
:100E30000063032210210A4800F0CFFA4FF48063C8
:100E400003220421064800F0C8FA00224FF4006192
:100E5000034800F0BDFA4D210920FFF78BFC10BDBF
:100E6000000C014000BFFEE70FB4084B10B504A909
:100E700002AA039800F01CF8044602A9002000F022
:100E8000B8F9204610BC5DF814FB0000F31100080F
:100E900002E008C8121F08C1002AFAD17047704743
:100EA000002001E001C1121F002AFBD170470000A1
:100EB0002DE9FF4F8BB088460546002606E0252821
:100EC0000BD0DDE90D1290476D1C761C28780028A8
:100ED000F5D10FB03046BDE8F08F0024A146A24600
:100EE0000122AE4900E0044315F8013F203B02FA1D
:100EF00003F00842F7D128782A2810D06FF02F028B
:100F00002878A0F13001092915D809EB890102EBF5
:100F1000410144F0020400EB01096D1CF0E758F8B0
:100F2000041B5FEA010903D544F40054C9F1000928
:100F300044F002046D1C28782E2817D115F8010FF3
:100F400044F004042A280ED06FF02F022878A0F174
:100F5000300109290AD80AEB8A0102EB410100EBB2
:100F6000010A6D1CF2E758F804AB6D1C28786C2858
:100F70000FD006DC4C2817D068280DD06A2814D171
:100F800004E0742810D07A280FD10DE044F4001446
:100F90000AE044F4801401E044F44014697881428A
:100FA00002D104F580146D1C6D1C2878692865D069
:100FB00006DC00288DD0632827D0642806D15DE0A8
:100FC0006E2808D073282AD0752877D0DDE90D1255
:100FD0009047761CE0E0C4F30250022809D00328B1
:100FE0000DD0D8F8001004280DD00E6008F10408C8
:100FF000D2E0D8F80010F217C1E90062F6E7D8F89D
:1010000000100E80F2E70E70F0E718F8041B8DF860
:10101000001000208DF80100EB46012003E058F895
:1010200004BB4FF0FF3061074FF0000701D40AE026
:101030007F1C57450DDA8742FADB1BF807100029A1
:10104000F6D106E07F1C8742FCDB1BF80710002965
:10105000F8D1DDE90D23A9EB07008146214600F018
:10106000B1F83044C61904E0DDE90D121BF8010B9C
:1010700090477F1EF8D22146484688E058F8040B76
:10108000C4F302514FF00A0B032900D100B2042926
:1010900000D140B2002802DA40422D2102E02105B1
:1010A00005D52B218DF82410012104E006E0E1078D
:1010B00010D02021F6E708AF089113E058F8040B90
:1010C000C4F302514FF00A0B032900D180B2042966
:1010D00000D1C0B20021EEE75946FFF731F83031B8
:1010E00007F8011D0028F7D1ADEB070000F1200B38
:1010F000600702D524F4803401E04FF0010ADA459C
:1011000002DDAAEB0B0000E00020824600EB0B01A1
:1011100008980144A9EB01000A90E00306D4DDE938
:101120000D2321460A9800F04DF806444FF00009BF
:1011300008E009A911F80900DDE90D12904709F14D
:101140000109761C08998945F3DBE0030CD5DDE93C
:101150000D2321460A9800F035F8064404E0DDE945
:101160000D1230209047761CBAF10001AAF1010A55
:10117000F5DC05E0DDE90D1217F8010B9047761C50
:10118000BBF10001ABF1010BF4DC0A982146DDE96B
:101190000D2300F005F806446D1C97E609280100B0
:1011A0002DE9F041044600251E461746880404D464
:1011B00005E039462020B0476D1C641EF9D528464D
:1011C000BDE8F0812DE9F041044600251E46904619
:1011D000C80301D5302700E02027880404D505E0A6
:1011E00041463846B0476D1C641EF9D52846BDE817
:1011F000F0810A68531C0B60107070470349086047
:1012000000BF024909680029FBD17047080000208F
:101210000448006820B103480068401E0149086086
:1012200070470000080000201FB54FF4E06000F098
:1012300067FB40F2026000F063FB40F2036000F0E5
:101240005FFB01211C4800F027F94FF40043032203
:10125000042140F2026000F0C0F8082303220421B8
:1012600040F2036000F0B9F84FF0804000F016FE45
:101270000020ADF80000ADF80200ADF804004FF614
:10128000FF7002900020ADF80C008DF80E0069464A
:101290004FF0804000F078FE0223002219465807E4
:1012A00000F0F5FE4FF0804000F014FC4FF080405D
:1012B00000F062FE1FBD0000000318001FB540F2E1
:1012C000017000F01DFB40F2036000F019FB40F2DA
:1012D000036000F015FB0121194800F0DDF8102330
:1012E0000322042140F2036000F077F82023032258
:1012F000042140F2036000F070F8124800F0CEFDC7
:101300000020ADF80000ADF80200ADF804004FF683
:10131000FF7002900020ADF80C008DF80E006946B9
:10132000084800F031FE022300221946054800F06B
:10133000AEFE044800F0CEFB024800F01DFE1FBDCB
:1013400000081A00000400401FB540F2027000F0CF
:10135000D7FA40F2036000F0D3FA40F2036000F0E5
:10136000CFFA40230322042140F2036000F035F855
:1013700080230322042140F2036000F02EF811487C
:1013800000F08CFD0020ADF80000ADF80200ADF8D3
:1013900004004FF6FF7002900020ADF80C008DF8AD
:1013A0000E006946074800F0EFFD022300221946AF
:1013B000044800F06CFE034800F08CFB014800F08C
:1013C000DBFD1FBD000800404161704701617047AF
:1013D0000AB1016100E041617047F0B5044616466C
:1013E0000025002201F00F0501F0100707B1354379
:1013F00000201EE0012787401F40C7B122684FEA46
:10140000800C0F2707FA0CF7BA43870005FA07F795
:101410003A43282904D1012787401F40676105E02E
:10142000482903D1012787401F4027612260471CBC
:10143000B8B20828DED3082022E0012787401F40E9
:10144000E7B16268A0F108074FEA870C0F2707FA97
:101450000CF7BA43A0F10807BF0005FA07F73A43B3
:10146000282904D1012787401F40676105E04829EA
:1014700003D1012787401F4027616260471CB8B233
:101480001028DAD3F0BD02469068084008B1012068
:1014900070470020FCE70000F0B50A460023002456
:1014A0000021002500F00046B6F1004F02D11D4E8C
:1014B000F16901E01B4E7168C0F3034583B200F48B
:1014C0004016B6F5401F08D121F07061154E7668C0
:1014D00026F07066134F7E6012E000F48016B6F5B9
:1014E000801F06D1032606FA05F4A14341F070617E
:1014F00006E0460D360103FA06F6B14341F070618D
:1015000022B1460D360103FA06F6314300F00046DB
:10151000B6F1004F02D1034EF16101E0014E71605E
:10152000F0BD00000000014010B540F2036000F083
:10153000E7F90123032204211648FFF74EFF40F28A
:10154000036000F0DDF90223032204211148FFF7B4
:1015500044FF40F2036000F0D3F90423032219464C
:101560000C48FFF73AFF40F2036000F0C9F94FF46E
:101570000063032204210848FFF72FFF40F20260B6
:1015800000F0BEF94FF48053032204210248FFF714
:1015900024FF10BD000C01400008014010B540F2CE
:1015A000036000F0ADF94FF400430322102104481A
:1015B000FFF713FF4FF400410148FFF707FF10BD8D
:1015C000000C014010B54FF400410648FFF75BFFE7
:1015D000C0F10100C4B222464FF400410148FFF7B8
:1015E000F7FE10BD000C014000E000BF011EA0F19D
:1015F0000100FAD1704700008EB000F043FA0020DD
:1016000000F0E0F800F03EFA4FF4C06000F078F926
:10161000FFF7C4FFFFF788FFFEF79EFEC820FFF725
:10162000EDFDFEF77DFE00F09BF9FEF71BFE00BF0F
:10163000FFF708FBFFF7F8FDFFF740FEFFF784FE1A
:1016400000BF00BF00BF00F01DFA002000F0BAF894
:1016500000F018FA4FF4C06000F052F9FFF79EFF57
:10166000FFF762FFFEF778FEC820FFF7C7FDFEF721
:1016700057FEFFF7D7FBFEF76FFE13A202210A20E9
:10168000FEF712FF0520FFF7B9FD1BE012A20121B2
:101690000020FEF709FF4FF08040FEF77DFD114866
:1016A000FEF77AFD1048FEF777FD01AA022100201F
:1016B000FEF7FAFE6420FFF7A1FDFFF7A9F80A2064
:1016C000FFF79CFDE2E700005465737420726564C7
:1016D0002062616C6C20000054494D5F5465737446
:1016E0002E00000000040040000800402DE9F041F9
:1016F00003460D46164600240027A04624480068ED
:1017000000F4E060B0F5A06F15D006DCB0F5407FC6
:1017100018D0B0F5806F19D110E0B0F5C06F06D0C9
:10172000B0F5E06F12D100274FF0040815E0012753
:101730004FF0030811E00227B8460EE003274FF0F0
:1017400001080AE004274FF0000806E04FF4A0600B
:1017500000F022F80227B84600BF00BFC7F104001E
:1017600005FA00F4C8F104010F20C84030400443DA
:1017700024010848C45403F01F0101208840591176
:10178000890001F1E021C1F80001BDE8F08100000D
:101790000CED00E000E400E002490143024A116060
:1017A000704700000000FA050CED00E0034A0A4013
:1017B0000243034B1A60BFF34F8F704780FFFF1F38
:1017C00008ED00E0044A516821F0F00141EA00020E
:1017D000014B5A6070470000001002402DE9F04FA5
:1017E0008BB00746002009903EA090E8004CC068EE
:1017F000CDE905BECDF810A007900FF2EC0ADAE9AA
:10180000000ACDE9020A0FF2E00ADAE9000ACDE99E
:10181000000A38484068C0F381000A900A9820B155
:10182000012804D0022829D103E0334928E03249B5
:1018300026E03048406800F48038B8F5803F09D190
:101840002D4C2C48406800F40039B9F5003F02D116
:10185000641000E0294C27484068C0F383422548C3
:10186000406800F0006008B142F010020F2A01D277
:10187000921C00E0521C04FB02F101E01E4900BF73
:1018800000BF1C484068C0F3031504A8465D21FA58
:1018900006F318484068C0F3022502A8465D23FA03
:1018A00006FC14484068C0F3C2251DF8056023FA01
:1018B00006F0089037B1012F06D0022F06D0032F73
:1018C0000AD106E0099108E0099306E0CDF824C0AA
:1018D00003E00898099000E000BF00BF09980BB032
:1018E000BDE8F08F000000000000000001020304CA
:1018F000060708090010024000127A0000093D00A6
:10190000064A02EB9011096800F01F0301229A4079
:101910001143024B03EB901211607047001002401C
:10192000064A02EB9011096800F01F0301229A4059
:101930009143024B03EB901211607047001002407C
:10194000064A02EB9011096800F01F0301229A4039
:101950001143024B03EB90121160704700100240DC
:1019600010B540F20260FFF7CBFF102303220421E1
:101970001048FFF732FD40F20260FFF7C1FF8023FD
:10198000032204210B48FFF728FD40F20260FFF715
:10199000B7FF4023032204210648FFF71EFD40F253
:1019A0000260FFF7ADFF2023032204210148FFF767
:1019B00014FD10BD00080140002000212C4A1268CF
:1019C00042F480322A4B1A6000BF401C284A126839
:1019D00002F4003119B94FF6FF729042F5D1244A52
:1019E000126802F400320AB900BFFEE7204A5268CA
:1019F0001F4B5A601A4652685A601A46526842F49F
:101A000080625A601A46526822F440325A601A467E
:101A1000526842F440325A601A465268154B1A40D6
:101A2000134B5A601A465268134B1A43104B5A60B4
:101A30001A46126842F080721A6000BF0C4A12689F
:101A400002F00072002AF9D0094A526822F003021B
:101A5000074B5A601A46526842F002025A6000BFB1
:101A6000034A526802F00C02082AF9D170470000BC
:101A700000100240FFFFC3F70000040810B5FFF795
:101A80009BFF10BD10B5124800684FF47A71B0FB8F
:101A9000F1F4601EB0F1807F01D301200FE0601EE1
:101AA0004FF0E02148610F214FF0FF30FEF724FC9A
:101AB00000204FF0E021886107200861002008B174
:101AC00000BFFEE70021481EFEF716FC10BD000017
:101AD00000000020016841F08001016070470000B3
:101AE00010B531B101293FD002297DD003297CD125
:101AF000BFE0036A23F001030362836923F0030359
:101B00008361036A148823430362036A23F0020398
:101B10000362036A9488234303626A4B984202D0AB
:101B2000694B98421FD1036A23F004030362036ADE
:101B3000548823430362036A23F008030362036AA1
:101B4000D48823430362436823F48073436043686B
:101B5000148923434360436823F40073436043685C
:101B6000548923434360ABE0036A23F0100303620C
:101B7000836923F440738361036A148843EA04137E
:101B80000362036A23F020030362036A948843EA32
:101B9000041303624B4B984202D04B4B984226D120
:101BA000036A23F040030362036A548843EA041380
:101BB0000362036A23F080030362036AD48843EA62
:101BC00004130362436823F4806343604368148909
:101BD00043EA84034360436823F40063436043683B
:101BE000548943EA840301E002E068E0436067E06F
:101BF000036A23F480730362C36923F00303C361A0
:101C0000036A148843EA04230362036A23F400731B
:101C10000362036A948843EA04230362294B9842CF
:101C200002D0294B984223D1036A23F480630362D4
:101C3000036A548843EA04230362036A23F40063BB
:101C40000362036AD48843EA04230362436823F4EB
:101C5000805343604368148943EA04134360436834
:101C600023F4005343604368548943EA04134360F8
:101C700026E0036A23F480530362C36923F44073AC
:101C8000C361036A148843EA04330362036A23F4DA
:101C900000530362036A948843EA04330362094BE6
:101CA000984202D0084B984208D1436823F48043FD
:101CB00043604368148943EA8413436000E000BF33
:101CC00000BF10BD002C01400034014031B101299A
:101CD0000CD0022913D0032922D118E0836923F004
:101CE000700383618369134383611AE0836923F47A
:101CF000E0438361836943EA0223836111E0C3699E
:101D000023F07003C361C3691343C36109E0C3696E
:101D100023F4E043C361C36943EA0223C36100E0E3
:101D200000BF00BF704731B1012906D0022906D09B
:101D3000032908D105E0426306E0826304E0C26340
:101D400002E0026400E000BF00BF704731B101292A
:101D50000CD0022913D0032922D118E0836923F083
:101D6000080383618369134383611AE0836923F461
:101D700000638361836943EA0223836111E0C369DD
:101D800023F00803C361C3691343C36109E0C36956
:101D900023F40063C361C36943EA0223C36100E023
:101DA00000BF00BF7047000000B587B040F20B6075
:101DB000FFF7A6FD374800F071F80020ADF80000ED
:101DC000ADF80200ADF8040041F61F40029000207B
:101DD000ADF80C008DF80E0069462E4800F0D4F8DE
:101DE0000020ADF814000120ADF810000020ADF87F
:101DF0001600ADF81200ADF81800ADF81A0004AAEC
:101E000000212448FFF76CFE04AA01212148FFF7B6
:101E100067FE04AA02211F48FFF762FE40F2F31298
:101E200000211C48FFF77FFF602200211948FFF7BF
:101E30004DFF002211461748FFF788FF40F2F312CA
:101E400001211448FFF76FFF602201211148FFF7BD
:101E50003DFF002201210F48FFF778FF40F2F31207
:101E600002210C48FFF75FFF602202210948FFF7BB
:101E70002DFF002202210748FFF768FF0548FFF702
:101E800029FE0121034800F0F6F8024800F074F83A
:101E900007B000BD002C01404162704710B50446F8
:101EA0003349601A8C4244D00CDCB4F1804F1CD012
:101EB0003048204410B3B0F5806F28D0B0F5006FE3
:101EC00052D12DE0B0F5806F3CD0B0F58E3F03D0FD
:101ED000B0F5923F48D13EE040F20B30FFF730FDC5
:101EE00040F20B30FFF71CFD3FE04FF48060FFF73E
:101EF00027FD4FF48060FFF713FD36E040F201400C
:101F0000FFF71EFD40F20140FFF70AFD2DE040F211
:101F10000240FFF715FD40F20240FFF701FD24E00B
:101F200040F20340FFF70CFD40F20340FFF7F8FCDE
:101F30001BE040F20440FFF703FD40F20440FFF7CE
:101F4000EFFC12E040F20540FFF7FAFC40F20540DA
:101F5000FFF7E6FC09E040F20D30FFF7F1FC40F23C
:101F60000D30FFF7DDFC00E000BF00BF10BD00003A
:101F70000010004000FCFFBF016841F0010101605A
:101F80007047CA43026170470A888262294A9042B8
:101F900020D0B0F1804F1DD0274A90421AD0274A56
:101FA000904217D0264A904214D0264A904211D02F
:101FB000254A90420ED0254A90420BD0244A9042A6
:101FC00008D0244A904205D0234A904202D0234AA6
:101FD00090420FD1026822F07002026002688B7892
:101FE00003F060031A43026002680B7903F01003E8
:101FF0001A4302608A68C262194A90420CD0194A98
:10200000904209D0026822F44072026002688B8913
:1020100003F440731A430260064A904202D0094A10
:10202000904201D18A7B0263426942F0010242611F
:1020300070470000002C01400004004000080040F0
:10204000000C004000340140004C014000500140B1
:102050000054014000180040001C004000200040D7
:102060000010004000140040C2680A43C26070477C
:10207000CA4302617047012904D1426C42F4004214
:10208000426403E0426C22F400424264704730B57F
:10209000846824F00704846084680C438460846945
:1020A00040F20335AC438461846940F201152C434E
:1020B0008461046A24F00A040462046A24F0A0041F
:1020C0000462046A42EA03152C43046230BD002115
:1020D0000180418081804FF6FF7181600021818104
:1020E000817370472DE9F04704460D460027B84636
:1020F000B94600261D49601A8C421CD006DC1C48DB
:10210000204470B1B0F5806F1FD10FE0B0F5806F43
:1021100016D0B0F56C4F18D10320FFF75FFB0746D0
:1021200014E00220FFF75AFB07460FE00220FFF7FA
:1021300055FB07460AE00220FFF750FB074605E083
:102140000220FFF74BFB074600E000BF00BF07EB94
:102150005500B0FBF5F64FF6F07006EA000806F001
:102160000F0948EA0900A060BDE8F087004C004074
:1021700000BCFFBF01464868C0F308007047C1F3C8
:10218000080242607047000010B504462049601AFA
:102190008C4228D006DC1F48204490B1B0F5806FF7
:1021A00033D117E0B0F5806F26D0B0F56C4F2CD14D
:1021B00040F20E30FFF7C4FB40F20E30FFF7B0FBE9
:1021C00024E040F21140FFF7BBFB40F21140FFF763
:1021D000A7FB1BE040F21240FFF7B2FB40F21240B7
:1021E000FFF79EFB12E040F21340FFF7A9FB40F21D
:1021F0001340FFF795FB09E040F21440FFF7A0FB06
:1022000040F21440FFF78CFB00E000BF00BF10BDA0
:10221000004C004000BCFFBFC16841F40051C160E8
:10222000704710B5024602EB9110006801F01F04E0
:102230000123A340184008B1012010BD0020FCE795
:10224000426922F400724261426901F400731A4348
:1022500042617047426922F480724261426901F42E
:1022600080731A434261704710B5C1F389128258D6
:1022700001F01F040123A3409A43C1F38913C25004
:1022800010BD10B5C1F38912825801F01F0401235B
:10229000A3401A43C1F38913C25010BD70B5024662
:1022A00000230024C1F38910105801F01F060125F6
:1022B000B54000EA050302EB91500068C1F3044603
:1022C0000125B54000EA050414B10BB1012070BD31
:1022D0000020FCE7C26822F4C062C260C2680A4300
:1022E000C26070470A460021C16821F00401114311
:1022F000C1607047026922F44052026102690A43D8
:10230000026170470A460021C16821F008011143AB
:10231000C1607047C26822F48052C260C2680A433A
:10232000C26070470000000000000000002F0000A5
:1023300000000700070000147F147F1400242A7F88
:102340002A12006264081323003649552250000007
:102350000503000000001C224100000041221C0077
:102360000014083E08140008083E0808000000A0F9
:1023700060000008080808080000606000000020F5
:1023800010080402003E5149453E0000427F4000D3
:10239000004261514946002141454B310018141259
:1023A0007F10002745454539003C4A494930000126
:1023B0007109050300364949493600064949291E75
:1023C00000003636000000005636000000081422D7
:1023D00041000014141414140000412214080002D7
:1023E0000151090600324959513E007C1211127CFC
:1023F000007F49494936003E41414122007F414129
:10240000221C007F49494941007F09090901003E1A
:102410004149497A007F0808087F0000417F410058
:10242000002040413F01007F08142241007F4040CE
:102430004040007F020C027F007F0408107F003EB6
:102440004141413E007F09090906003E4151215E9C
:10245000007F091929460046494949310001017F99
:102460000101003F4040403F001F2040201F003F2F
:102470004038403F006314081463000708700807E1
:1024800000615149454300007F41410000552A55F4
:102490002A55000041417F0000040201020400406F
:1024A0004040404000000102040000205454547891
:1024B000007F4844443800384444442000384444B1
:1024C000487F00385454541800087E09010200184F
:1024D000A4A4A47C007F080404780000447D40008C
:1024E000004080847D00007F102844000000417F70
:1024F0004000007C04180478007C0804047800384C
:102500004444443800FC242424180018242418FCD3
:10251000007C0804040800485454542000043F443C
:102520004020003C4040207C001C2040201C003CFF
:102530004030403C004428102844001CA0A0A07C4F
:10254000004464544C441414141414140000000087
:10255000000000000000000000000000000000F883
:1025600000000000000000333000000000100C06E6
:10257000100C0600000000000000000040C0784081
:10258000C0784000043F04043F040400007088FC4D
:1025900008300000001820FF211E0000F008F000A5
:1025A000E018000000211C031E211E0000F0088816
:1025B000700000001E2123241927211010160E0080
:1025C000000000000000000000000000000000E02B
:1025D0001804020000000007182040000002041840
:1025E000E00000000040201807000000404080F09C
:1025F000804040000202010F01020200000000F0D2
:10260000000000000101011F0101010000000000A5
:102610000000000080B0700000000000000000001A
:1026200000000000000101010101010100000000A3
:10263000000000000030300000000000000000003A
:1026400080601804006018060100000000E0100817
:102650000810E000000F102020100F00001010F8EC
:10266000000000000020203F20200000007008082B
:1026700008887000003028242221300000300888AB
:10268000884830000018202020110E000000C020D3
:1026900010F8000000070424243F240000F80888F4
:1026A000880808000019212020110E0000E0108881
:1026B00088180000000F112020110E0000380808B3
:1026C000C83808000000003F0000000000708808C3
:1026D00008887000001C222121221C0000E0100844
:1026E0000810E0000000312222110F00000000C09D
:1026F000C00000000000003030000000000000803A
:102700000000000000008060000000000000804029
:102710002010080000010204081020004040404042
:102720004040400004040404040404000008102095
:1027300040800000002010080402010000704808DA
:102740000808F0000000003036010000C030C82842
:10275000E810E0000718272423140B000000C038FD
:10276000E0000000203C23020227382008F8888877
:1027700088700000203F202020110E00C030080883
:1027800008083800071820202010080008F808085A
:102790000810E000203F202020100F0008F8888853
:1027A000E8081000203F20202320180008F888881F
:1027B000E8081000203F200003000000C030080897
:1027C0000838000007182020221E020008F8080020
:1027D0000008F808203F210101213F20000808F8E7
:1027E000080800000020203F20200000000008080A
:1027F000F8080800C08080807F00000008F888C0CA
:1028000028180800203F20012638200008F808007A
:1028100000000000203F20202020300008F8F800B1
:10282000F8F80800203F003F003F200008F830C0C3
:102830000008F808203F200007183F00E0100808B3
:102840000810E0000F10202020100F0008F80808E2
:102850000808F000203F210101010000E0100808F5
:102860000810E0000F18242438504F0008F888881A
:1028700088887000203F2000030C302000708808FA
:10288000080838000038202121221C00180808F808
:10289000080818000000203F2000000008F8080089
:1028A0000008F808001F202020201F00087888005A
:1028B00000C83808000007380E010000F80800F8CA
:1028C0000008F800033C0700073C03000818688074
:1028D0008068180820302C03032C30200838C800EA
:1028E000C83808000000203F200000001008080839
:1028F000C83808002038262120201800000000FEDB
:10290000020202000000007F40404000000C30C086
:1029100000000000000000010638C00000020202B2
:10292000FE000000004040407F0000000000040264
:10293000020204000000000000000000000000008F
:10294000000000008080808080808080000202047F
:102950000000000000000000000000000000808077
:10296000808000000019242222223F2008F80080E5
:1029700080000000003F112020110E0000000080A8
:1029800080800000000E1120202011000000008037
:102990008088F800000E112020103F200000808069
:1029A00080800000001F222222221300008080F07D
:1029B000888888180020203F2020000000008080A8
:1029C00080808000006B94949493600008F80080ED
:1029D00080800000203F210000203F200080989848
:1029E000000000000020203F2020000000000080A8
:1029F0009898000000C08080807F000008F80000E8
:102A000080808000203F24022D302000000808F83C
:102A1000000000000020203F2020000080808080F7
:102A200080808000203F20003F20003F8080008089
:102A300080800000203F210000203F200000808097
:102A400080800000001F202020201F008080008048
:102A50008000000080FFA12020110E0000000080F7
:102A600080808000000E112020A0FF8080808000E8
:102A70008080800020203F21200001000000808015
:102A8000808080000033242424241900008080E00A
:102A9000808000000000001F2020000080800000D7
:102AA00000808000001F202020103F2080808000B8
:102AB0000080808000010E300806010080800080C8
:102AC000008080800F300C030C300F0000808000ED
:102AD000808080000020312E0E3120008080800018
:102AE0000080808080818E701806010000808080C8
:102AF000808080000021302C222130000000000066
:102B0000807C020200000000003F40400000000006
:102B1000FF00000000000000FF0000000002027C37
:102B2000800000000040403F00000000000601015E
:102B30000202040400000000000000005C2B0008FA
:102B40000000002038000000900E0008942B0008C0
:102B500038000020A0040000A00E000800A24A04D3
:102B6000000000000000000048454C4C4F574F52F9
:102B70004C44000A0A0000000000000000000000B1
:102B80000000000031310000E803000000000000F8
:042B90000000000041
:0400000508000105E9
:00000001FF
