:020000040800F2
:10000000080400201D010008750100086D010008AA
:1000100071010008650100084D03000800000000A0
:100020000000000000000000000000006D02000859
:100030006901000800000000A10100087102000829
:1000400037010008370100083701000837010008B0
:1000500037010008370100083701000837010008A0
:100060003701000837010008370100083701000890
:100070003701000837010008370100083701000880
:100080003701000837010008370100083701000870
:100090003701000837010008370100083701000860
:1000A0003701000837010008370100083701000850
:1000B0003701000837010008370100083701000840
:1000C0003701000837010008370100083701000830
:1000D0003701000837010008370100083701000820
:1000E0003701000837010008370100080000000050
:1000F0000000000000000000000000000000000000
:1001000037010008DFF810D000F01AF80048004767
:1001100025050008AFF3008008040020064880474A
:1001200006480047FEE7FEE7FEE7FEE7FEE7FEE7DC
:10013000FEE7FEE7FEE7FEE779020008050100089A
:10014000064C074D06E0E06840F0010394E8070024
:1001500098471034AC42F6D3FFF7D8FF0C070008DD
:100160002C07000800BFFEE700BFFEE700BFFEE768
:1001700000BFFEE700BFFEE710B5002807DA0A0758
:10018000140E054A00F00F031B1FD45403E00A07A6
:10019000130E024A135410BD18ED00E000E400E015
:1001A00000BFFEE710B50446052C58D2DFE804F086
:1001B00003132333450001212A4800F04AF948B9C6
:1001C0000A2000F0D5F80121264800F042F908B9CC
:1001D000012010BD43E00221224800F03AF948B95D
:1001E0000A2000F0C5F802211E4800F032F908B9D3
:1001F0000120EEE733E004211A4800F02AF948B95B
:100200000A2000F0B5F80421164800F022F908B9D8
:100210000120DEE723E04FF40061134800F019F9F4
:1002200050B90A2000F0A4F84FF400610E4800F025
:1002300010F908B90120CCE711E04FF480510A48C9
:1002400000F007F950B90A2000F092F84FF48051FD
:10025000054800F0FEF808B90120BAE700BF00BF6A
:100260000020B6E7000C01400008014000BFFEE797
:1002700010B500F087F810BD08B53048006840F0B0
:1002800001002E49086000BF2C48006800F0020001
:100290000028F9D000BF2948406840F08000274975
:1002A00048600020009002E00098401C00900098F8
:1002B0005028F9D32148406840F090001F49486019
:1002C0000020009002E00098401C00900098502808
:1002D000F9D300BF1948406820F00300174948606F
:1002E00008460068164908401449086008464068F6
:1002F0001449084011494860084600681049084000
:100300000E4908600846006820F48020086008460E
:1003100040680D4908400949486008460068084996
:100320000840064908604FF41F00886000F0C2F9D9
:1003300000214FF0006000F033F908BD00100240CA
:10034000FFFFF6FE0C00FFE8FFFF00F700BFFEE72F
:1003500002E008C8121F08C1002AFAD1704770478E
:10036000002001E001C1121F002AFBD170470000EC
:100370000349086000BF024909680029FBD17047A2
:10038000040000200448006820B103480068401EB3
:100390000149086070470000040000200AB10161B3
:1003A00000E041617047F0B5044616460025002282
:1003B00001F00F0501F0100707B1354300201EE0E2
:1003C000012787401F40C7B122684FEA800C0F27E2
:1003D00007FA0CF7BA43870005FA07F73A432829CA
:1003E00004D1012787401F40676105E0482903D1F8
:1003F000012787401F4027612260471CB8B20828A8
:10040000DED3082022E0012787401F40E7B1626861
:10041000A0F108074FEA870C0F2707FA0CF7BA4339
:10042000A0F10807BF0005FA07F73A43282904D1CD
:10043000012787401F40676105E0482903D1012754
:1004400087401F4027616260471CB8B21028DAD38A
:10045000F0BD02469068084008B1012070470020B6
:10046000FCE7000010B540F2036000F0B1F8012392
:10047000032204211648FFF796FF40F2036000F0C4
:10048000A7F80223032204211148FFF78CFF40F252
:10049000036000F09DF80423032219460C48FFF77F
:1004A00082FF40F2036000F093F84FF400630322F0
:1004B00004210848FFF777FF40F2026000F088F857
:1004C0004FF48053032204210248FFF76CFF10BD54
:1004D000000C01400008014010B540F2036000F03C
:1004E00077F84FF40043032210210448FFF75BFF25
:1004F0004FF4004001491431086010BD000C014068
:1005000010B54FF400410648FFF7A3FFC0F101000A
:10051000C4B222464FF400410148FFF73FFF10BD2F
:10052000000C014000F0CAF8002000F045F800F08F
:10053000C5F84FF4C06000F04BF8FFF7CDFFFFF7B0
:1005400091FF2CE00020FFF72DFE20B16420FFF783
:100550000FFFFFF7D5FF0120FFF724FE20B1642035
:10056000FFF706FFFFF7CCFF0220FFF71BFE20B1CD
:100570006420FFF7FDFEFFF7C3FF0320FFF712FE25
:1005800020B16420FFF7F4FEFFF7BAFF0420FFF765
:1005900009FE20B16420FFF7EBFEFFF7B1FFD1E7C2
:1005A000034A0A400243034B1A60BFF34F8F704760
:1005B00080FFFF1F08ED00E0044A516821F0F001C0
:1005C00041EA0002014B5A607047000000100240EF
:1005D000064A02EB9011096800F01F0301229A40BD
:1005E0001143024B03EB9012116070470010024060
:1005F000002000212C4A126842F480322A4B1A60F3
:1006000000BF401C284A126802F4003119B94FF6A5
:10061000FF729042F5D1244A126802F400320AB9FE
:1006200000BFFEE7204A52681F4B5A601A465268C4
:100630005A601A46526842F480625A601A465268FA
:1006400022F440325A601A46526842F440325A60EC
:100650001A465268154B1A40134B5A601A46526894
:10066000134B1A43104B5A601A46126842F08072BC
:100670001A6000BF0C4A126802F00072002AF9D01A
:10068000094A526822F00302074B5A601A46526820
:1006900042F002025A6000BF034A526802F00C02A4
:1006A000082AF9D17047000000100240FFFFC3F78D
:1006B0000000040810B5FFF79BFF10BD10B51248ED
:1006C00000684FF47A71B0FBF1F4601EB0F1807FE6
:1006D00001D301200FE0601E4FF0E02148610F219F
:1006E0004FF0FF30FFF748FD00204FF0E021886118
:1006F00007200861002008B100BFFEE70021481E66
:10070000FFF73AFD10BD0000000000202C07000894
:100710000000002008000000500300083407000813
:1007200008000020000400006003000800A24A0442
:0407300000000000C5
:0400000508000105E9
:00000001FF
