:020000040800F2
:10000000080400201D010008750100086D010008AA
:1000100071010008650100081D07000800000000CC
:100020000000000000000000000000003D06000885
:1000300069010008000000003906000841060008B8
:1000400037010008370100083701000837010008B0
:1000500037010008370100083701000837010008A0
:100060003701000837010008370100083701000890
:100070003701000837010008370100083701000880
:100080003701000837010008370100083701000870
:100090003701000837010008370100083701000860
:1000A0003701000837010008370100083701000850
:1000B0003701000837010008370100083701000840
:1000C0003701000837010008370100083701000830
:1000D0003701000837010008370100083701000820
:1000E0003701000837010008370100080000000050
:1000F0000000000000000000000000000000000000
:1001000037010008DFF810D000F01AF80048004767
:10011000C5080008AFF300800804002006488047A7
:1001200006480047FEE7FEE7FEE7FEE7FEE7FEE7DC
:10013000FEE7FEE7FEE7FEE74906000805010008C6
:10014000064C074D06E0E06840F0010394E8070024
:1001500098471034AC42F6D3FFF7D8FF28130008B5
:100160004813000800BFFEE700BFFEE700BFFEE740
:1001700000BFFEE700BFFEE710B5002807DA0A0758
:10018000140E054A00F00F031B1FD45403E00A07A6
:10019000130E024A135410BD18ED00E000E400E015
:1001A00030B5002415E004F1B001C8B200F0E4F964
:1001B000012000F0E1F9102000F0DEF9002504E054
:1001C000002000F009FA681CC5B2842DF8DB601C21
:1001D000C4B2082CE7DB30BD30B5002415E004F1D3
:1001E000B001C8B200F0C8F9012000F0C5F9102034
:1001F00000F0C2F9002504E0FF2000F0EDF9681CD2
:10020000C5B2842DF8DB601CC4B2082CE7DB30BD1E
:1002100010B540F2046000F0DDFB4FF40043032210
:100220001021484800F0A2FA4FF4004045494861C7
:10023000431003221021434800F098FA4FF4804005
:10024000404948614310032210213E4800F08EFAD5
:100250004FF400503B49486140F2026000F0BAFBA5
:10026000012303221021384800F080FA012036498A
:1002700014310860C003334908618010486132209E
:1002800000F05EFA4FF400502E490861AE2000F0F5
:1002900073F9002000F070F9102000F06DF9402093
:1002A00000F06AF9812000F067F9CF2000F064F9CE
:1002B000A12000F061F9C82000F05EF9A62000F04E
:1002C0005BF9A82000F058F93F2000F055F9D32041
:1002D00000F052F9002000F04FF9D52000F04CF961
:1002E000802000F049F9D92000F046F9F12000F013
:1002F00043F9DA2000F040F9122000F03DF9DB204C
:1003000000F03AF9402000F037F9202000F034F9ED
:10031000022000F031F98D2000F02EF9142000F0B9
:100320002BF9A42000F028F9A62000F025F9AF2031
:1003300000F022F9FFF734FF0021084600F00AF927
:1003400010BD000000100140000801402DE9F043FD
:100350000446884615464FF000090026002720E095
:10036000E85D203800F0FF097E2C04DD002408F150
:10037000010000F0FF084146204600F0EBF800269F
:1003800009E009EB4901094A02EB4101885D00F0EF
:1003900023F9701CC6B2062EF3DBA01DC4B2781C74
:1003A000C7B2E85D0028DBD1BDE8F083100B000880
:1003B0002DE9F04306460F46904600250024A1464D
:1003C00031E018F809002038C5B2782E02DD002689
:1003D000781CC7B23946304600F0BCF8002407E06C
:1003E00004EB0511134A505C00F0F6F8601CC4B22F
:1003F000082CF5DB781CC1B2304600F0ABF80024C5
:1004000008E004EB051108310A4A505C00F0E4F8FA
:10041000601CC4B2082CF4DB06F10800C6B209F176
:10042000010000F0FF0918F809000028C9D1BDE853
:10043000F0830000380D000870B505460C46E11049
:10044000284600F087F82046E11704EB5171C910E7
:10045000A4EBC10201219140CEB2B02101EBE40135
:10046000C8B200F089F8102141EA151000F084F8B4
:1004700005F00F0000F080F8304600F0ADF870BDD8
:100480002DE9F04781460D4617461E46DDF82080CF
:10049000E910484600F05EF84C4613E0AA46E9171A
:1004A00005EB5171C910A5EBC10201219140C8B201
:1004B00000F092F8B8F1010F02D10A2000F040F9E3
:1004C000601CC4B2BC42E9DDF110484600F042F8BD
:1004D0004C4613E0B246F11706EB5171C910A6EB7A
:1004E000C10201219140C8B200F076F8B8F1010FC5
:1004F00002D10A2000F024F9601CC4B2BC42E9DD3C
:10050000EC100EE02146484600F024F8FF2000F0F1
:1005100063F8B8F1010F02D1322000F011F9601C2C
:10052000C4B2B4EBE60FEDDDEC100EE02146384628
:1005300000F010F8FF2000F04FF8B8F1010F02D1E1
:10054000322000F0FDF8601CC4B2B4EBE60FEDDD24
:10055000BDE8F08730B504460D4605F1B001C8B2DC
:1005600000F00AF8102141EA141000F005F804F038
:100570000F0000F001F830BD10B50346082401203B
:1005800013490860C00313494861012000F092F943
:1005900018E003F0800020B14FF480400D4908615D
:1005A00003E04FF480400B4948614FF40040094993
:1005B0000861012000F07EF94FF4004005494861D0
:1005C0005806030E201EA4F10101CCB2E1D110BDEA
:1005D000140801400010014010B503460824012012
:1005E00013490860C00313494861012000F062F913
:1005F00018E003F0800020B14FF480400D490861FD
:1006000003E04FF480400B4948614FF40040094932
:100610000861012000F04EF94FF40040054948619F
:100620005806030E201EA4F10101CCB2E1D110BD89
:10063000100801400010014000BFFEE700BFFEE7C8
:1006400010B500F087F810BD08B53048006840F0DC
:1006500001002E49086000BF2C48006800F002002D
:100660000028F9D000BF2948406840F080002749A1
:1006700048600020009002E00098401C0090009824
:100680005028F9D32148406840F090001F49486045
:100690000020009002E00098401C00900098502834
:1006A000F9D300BF1948406820F00300174948609B
:1006B0000846006816490840144908600846406822
:1006C000144908401149486008460068104908402C
:1006D0000E4908600846006820F48020086008463B
:1006E00040680D49084009494860084600680849C3
:1006F0000840064908604FF41F00886000F0DCF9EC
:1007000000214FF0006000F04DF908BD00100240DC
:10071000FFFFF6FE0C00FFE8FFFF00F700BFFEE75B
:1007200002E008C8121F08C1002AFAD170477047BA
:10073000002001E001C1121F002AFBD17047000018
:100740000349086000BF024909680029FBD17047CE
:10075000040000200448006820B103480068401EDF
:10076000014908607047000004000020F0B504460D
:1007700016460025002201F00F0501F0100707B111
:10078000354300201EE0012787401F40C7B1226883
:100790004FEA800C0F2707FA0CF7BA43870005FAD7
:1007A00007F73A43282904D1012787401F40676192
:1007B00005E0482903D1012787401F4027612260B7
:1007C000471CB8B20828DED3082022E00127874062
:1007D0001F40E7B16268A0F108074FEA870C0F27B6
:1007E00007FA0CF7BA43A0F10807BF0005FA07F7AC
:1007F0003A43282904D1012787401F40676105E05B
:10080000482903D1012787401F4027616260471CA8
:10081000B8B21028DAD3F0BD10B540F2036000F092
:10082000D9F80123032204211648FFF79FFF40F265
:10083000036000F0CFF80223032204211148FFF7E0
:1008400095FF40F2036000F0C5F804230322194627
:100850000C48FFF78BFF40F2036000F0BBF84FF449
:100860000063032204210848FFF780FF40F2026082
:1008700000F0B0F84FF48053032204210248FFF740
:1008800075FF10BD000C01400008014010B540F29A
:10089000036000F09FF84FF4004303221021044846
:1008A000FFF764FF4FF4004001491431086010BDA8
:1008B000000C014000E000BF011EA0F10100FAD1D0
:1008C0007047000008B500F0FBF8002000F076F853
:1008D00000F0F6F84FF4C06000F07CF8FFF7D6FFA8
:1008E000FFF79AFFFFF794FC2AA207210020FFF7E9
:1008F0002DFD4FF4FA60FFF723FFFFF751FC47E0AF
:1009000024A207210020FFF721FD4FF47A70FFF7A2
:1009100017FF00203E237F2201460090FFF7B0FD25
:10092000012037235822082100901820FFF7A8FD46
:1009300001202F235022102100902020FFF7A0FD3E
:10094000012027234822182100902820FFF798FD36
:100950004FF47A70FFF7F4FEFFF722FC0FA200219C
:100960000846FFF725FD3C217820FFF765FD4FF491
:100970007A70FFF7E5FEFFF713FCFFF72DFC4FF44D
:100980007A70FFF7DDFEFFF70BFC3220FFF7D8FE91
:10099000B6E700004F4C454420332E004F4C4544F1
:1009A00020342E00034A0A400243034B1A60BFF36F
:1009B0004F8F704780FFFF1F08ED00E0044A516829
:1009C00021F0F00141EA0002014B5A60704700003B
:1009D00000100240064A02EB9011096800F01F0364
:1009E00001229A401143024B03EB901211607047B1
:1009F00000100240002000212C4A126842F480328C
:100A00002A4B1A6000BF401C284A126802F40031C9
:100A100019B94FF6FF729042F5D1244A126802F4D8
:100A200000320AB900BFFEE7204A52681F4B5A60E5
:100A30001A4652685A601A46526842F480625A60F6
:100A40001A46526822F440325A601A46526842F4FA
:100A500040325A601A465268154B1A40134B5A607E
:100A60001A465268134B1A43104B5A601A461268C2
:100A700042F080721A6000BF0C4A126802F00072E5
:100A8000002AF9D0094A526822F00302074B5A6043
:100A90001A46526842F002025A6000BF034A526886
:100AA00002F00C02082AF9D1704700000010024041
:100AB000FFFFC3F70000040810B5FFF79BFF10BD50
:100AC00010B5124800684FF47A71B0FBF1F4601E63
:100AD000B0F1807F01D301200FE0601E4FF0E021D4
:100AE00048610F214FF0FF30FFF746FB00204FF029
:100AF000E021886107200861002008B100BFFEE7FF
:100B00000021481EFFF738FB10BD00000000002048
:100B10000000000000000000002F0000000007009F
:100B2000070000147F147F1400242A7F2A12006219
:100B300064081323003649552250000005030000C5
:100B400000001C224100000041221C000014083E4D
:100B500008140008083E0808000000A06000000813
:100B60000808080800006060000000201008040267
:100B7000003E5149453E0000427F40000042615125
:100B80004946002141454B31001814127F100027BF
:100B900045454539003C4A49493000017109050382
:100BA00000364949493600064949291E00003636B3
:100BB0000000000056360000000814224100001416
:100BC00014141414000041221408000201510906F3
:100BD00000324959513E007C1211127C007F494974
:100BE0004936003E41414122007F4141221C007FA5
:100BF00049494941007F09090901003E4149497AB3
:100C0000007F0808087F0000417F4100002040412C
:100C10003F01007F08142241007F40404040007F98
:100C2000020C027F007F0408107F003E4141413EDC
:100C3000007F09090906003E4151215E007F091924
:100C400029460046494949310001017F0101003F21
:100C50004040403F001F2040201F003F4038403FA1
:100C60000063140814630007087008070061514905
:100C7000454300007F41410000552A552A55000098
:100C800041417F0000040201020400404040404016
:100C9000000001020400002054545478007F4844AE
:100CA000443800384444442000384444487F0038E5
:100CB0005454541800087E0901020018A4A4A47C0E
:100CC000007F080404780000447D400000408084D8
:100CD0007D00007F102844000000417F4000007C20
:100CE00004180478007C080404780038444444382C
:100CF00000FC242424180018242418FC007C080478
:100D0000040800485454542000043F444020003C50
:100D10004040207C001C2040201C003C4030403CD7
:100D2000004428102844001CA0A0A07C0044645467
:100D30004C441414141414140000000000000000AB
:100D40000000000000000000000000F800000000AB
:100D5000000000333000000000100C06100C0600EC
:100D6000000000000000000040C07840C078400053
:100D7000043F04043F040400007088FC08300000B5
:100D8000001820FF211E0000F008F000E01800000D
:100D900000211C031E211E0000F0088870000000C6
:100DA0001E2123241927211010160E000000000018
:100DB0000000000000000000000000E01804020035
:100DC000000000071820400000020418E0000000A6
:100DD0000040201807000000404080F080404000A4
:100DE0000202010F01020200000000F000000000FA
:100DF0000101011F010101000000000000000000CE
:100E000080B0700000000000000000000000000042
:100E100000010101010101010000000000000000CB
:100E20000030300000000000000000008060180466
:100E3000006018060100000000E010080810E00043
:100E4000000F102020100F00001010F8000000000C
:100E50000020203F20200000007008080888700053
:100E600000302824222130000030088888483000D3
:100E70000018202020110E000000C02010F80000F3
:100E800000070424243F240000F80888880808008C
:100E90000019212020110E0000E0108888180000A1
:100EA000000F112020110E0000380808C838080073
:100EB0000000003F000000000070880808887000F3
:100EC000001C222121221C0000E010080810E00074
:100ED0000000312222110F00000000C0C0000000FD
:100EE0000000003030000000000000800000000022
:100EF000000080600000000000008040201008001A
:100F000000010204081020004040404040404000E2
:100F100004040404040404000008102040800000BD
:100F20000020100804020100007048080808F000C2
:100F30000000003036010000C030C828E810E00092
:100F40000718272423140B000000C038E00000001D
:100F5000203C23020227382008F888888870000087
:100F6000203F202020110E00C0300808080838005B
:100F7000071820202010080008F808080810E000D2
:100F8000203F202020100F0008F88888E808100073
:100F9000203F20202320180008F88888E808100047
:100FA000203F200003000000C0300808083800007F
:100FB00007182020221E020008F808000008F80880
:100FC000203F210101213F20000808F80808000007
:100FD0000020203F2020000000000808F80808003A
:100FE000C08080807F00000008F888C028180800B2
:100FF000203F20012638200008F8080000000000EB
:10100000203F20202020300008F8F800F8F80800E1
:10101000203F003F003F200008F830C00008F808DB
:10102000203F200007183F00E01008080810E000EB
:101030000F10202020100F0008F808080808F00002
:10104000203F210101010000E01008080810E00025
:101050000F18242438504F0008F8888888887000BA
:10106000203F2000030C302000708808080838005A
:101070000038202121221C00180808F80808180050
:101080000000203F2000000008F808000008F808D1
:10109000001F202020201F000878880000C8380882
:1010A000000007380E010000F80800F80008F800FA
:1010B000033C0700073C0300081868808068180894
:1010C00020302C03032C30200838C800C838080012
:1010D0000000203F2000000010080808C838080061
:1010E0002038262120201800000000FE0202020005
:1010F0000000007F40404000000C30C000000000B5
:10110000000000010638C00000020202FE000000DC
:10111000004040407F000000000004020202040082
:1011200000000000000000000000000000000000BF
:1011300080808080808080800002020400000000A7
:10114000000000000000000000008080808000009F
:101150000019242222223F2008F80080800000008D
:10116000003F112020110E00000000808080000050
:10117000000E112020201100000000808088F8005F
:10118000000E112020103F20000080808080000091
:10119000001F222222221300008080F088888818F5
:1011A0000020203F20200000000080808080800000
:1011B000006B94949493600008F800808080000095
:1011C000203F210000203F20008098980000000070
:1011D0000020203F202000000000008098980000A0
:1011E00000C08080807F000008F8000080808000C0
:1011F000203F24022D302000000808F800000000E5
:101200000020203F2020000080808080808080009F
:10121000203F20003F20003F808000808080000031
:10122000203F210000203F200000808080800000BF
:10123000001F202020201F008080008080000000F0
:1012400080FFA12020110E0000000080808080001F
:10125000000E112020A0FF80808080008080800010
:1012600020203F212000010000008080808080003D
:101270000033242424241900008080E080800000B2
:101280000000001F202000008080000000808000FF
:10129000001F202020103F20808080000080808060
:1012A00000010E30080601008080008000808080F0
:1012B0000F300C030C300F00008080008080800015
:1012C0000020312E0E312000808080000080808040
:1012D00080818E70180601000080808080808000F0
:1012E0000021302C2221300000000000807C02020E
:1012F00000000000003F404000000000FF00000030
:1013000000000000FF0000000002027C80000000DE
:101310000040403F000000000006010102020404FA
:10132000000000000000000048130008000000203A
:1013300008000000200700085013000808000020E3
:10134000000400003007000800A24A04000000006A
:0400000508000105E9
:00000001FF
